:020000040800F2
:1000000048070020CD0100081506000899030008E4
:100010001106000875020008E3090008000000004E
:10002000000000000000000000000000870700083A
:10003000790200080000000017060008990800086F
:10004000E7010008E7010008E7010008E7010008F0
:10005000E7010008E7010008E7010008E7010008E0
:10006000E7010008E7010008E7010008E7010008D0
:10007000E7010008E7010008E7010008E7010008C0
:10008000E7010008E7010008E7010008E7010008B0
:10009000E7010008E7010008E7010008E7010008A0
:1000A000E7010008E7010008E7010008E701000890
:1000B000E7010008E7010008E7010008E701000880
:1000C000E7010008E7010008E7010008E701000870
:1000D000E7010008FD080008E7010008E701000843
:1000E000E7010008E7010008E7010008E701000850
:1000F000E7010008E7010008E7010008E701000840
:10010000E7010008E7010008E7010008E70100082F
:10011000E7010008E7010008E7010008E70100081F
:10012000E7010008E7010008E7010008E70100080F
:1001300000F002F800F03AF80AA090E8000C8244BF
:100140008344AAF10107DA4501D100F02FF8AFF29C
:10015000090EBAE80F0013F0010F18BFFB1A43F0A5
:1001600001031847EC0900000C0A0000103A24BFF4
:1001700078C878C1FAD8520724BF30C830C144BF0C
:1001800004680C607047000000230024002500264E
:10019000103A28BF78C1FBD8520728BF30C148BFEA
:1001A0000B6070471FB51FBD10B510BD00F033F8D0
:1001B0001146FFF7F7FF00F0A2FC00F051F803B47E
:1001C000FFF7F2FF03BC00F018FC0000094880476D
:1001D00009480047FEE7FEE7FEE7FEE7FEE7FEE729
:1001E000FEE7FEE7FEE7FEE704480549054A064B41
:1001F000704700009D0800083101000848010020F8
:10020000480700204803002048030020704770473B
:10021000704770477047754600F028F8AE460500F5
:100220006946534620F00700854618B020B5FFF711
:10023000DBFFBDE820404FF000064FF000074FF015
:1002400000084FF0000B21F00701AC46ACE8C009F4
:10025000ACE8C009ACE8C009ACE8C0098D467047FD
:100260000446AFF300802046FFF7A9FF004870471F
:10027000E800002000BFFEE770472DE9F04102468C
:1002800000250026002000230024002791F803C049
:100290000CF00F0591F803C00CF0100CBCF1000F2E
:1002A00003D091F802C04CEA050591F800C0BCF1FA
:1002B000000F31D0146800202BE04FF0010C0CFA35
:1002C00000F3B1F800C00CEA03069E4220D183007F
:1002D0004FF00F0C0CFA03F7BC4305FA03FC4CEA91
:1002E000040491F803C0BCF1280F06D14FF0010CB3
:1002F0000CFA00FCC2F814C00AE091F803C0BCF18B
:10030000480F05D14FF0010C0CFA00FCC2F810C0E8
:10031000401C0828D1D31460B1F800C0BCF1FF0F15
:1003200034DD546800202EE000F1080C4FF0010885
:1003300008FA0CF3B1F800C00CEA03069E4221D182
:1003400083004FF00F0C0CFA03F7BC4305FA03FCD3
:100350004CEA040491F803C0BCF1280F05D100F168
:10036000080C08FA0CF8C2F8148091F803C0BCF12C
:10037000480F07D100F1080C4FF0010808FA0CF8FB
:10038000C2F81080401C0828CED35460BDE8F0812C
:10039000416170470161704700BFFEE708B5012168
:1003A000602000F049F944F20100ADF8000010208F
:1003B0008DF8030003208DF8020069460D48FFF711
:1003C0005CFF4AF68020ADF8000010208DF8030095
:1003D00003208DF8020069460748FFF74EFF4FF4EF
:1003E00000410548FFF7D4FF4FF400510248FFF7E2
:1003F000D1FF08BD001401400018014010B50120D4
:100400006B4908606B49C1F89801642000F03EFB1D
:100410000020674908606749C1F89801642000F02E
:1004200035FB0120624908606249C1F898017820D3
:1004300000F02CFB112000F0BFF8C82000F026FBD4
:10044000362000F0B9F8002000F0CCF83A2000F097
:10045000B3F8052000F0C6F8B22000F0ADF80C208B
:1004600000F0C0F80C2000F0BDF8002000F0BAF851
:10047000332000F0B7F8332000F0B4F8B72000F0D4
:100480009BF8352000F0AEF8BB2000F095F82C204A
:1004900000F0A8F8C02000F08FF82C2000F0A2F89F
:1004A000C22000F089F8012000F09CF8C32000F081
:1004B00083F80B2000F096F8C42000F07DF820208F
:1004C00000F090F8C62000F077F80F2000F08AF8CE
:1004D000D02000F071F8A42000F084F8A12000F0F2
:1004E00081F8E02000F068F8D02000F07BF80620CA
:1004F00000F078F8012000F075F80E2000F072F896
:100500000E2000F06FF8082000F06CF8322000F0A8
:1005100069F8442000F066F8402000F063F80820F5
:1005200000F060F8102000F05DF80F2000F05AF89D
:10053000152000F057F8192000F054F8E12000F0E1
:100540003BF8D02000F04EF8062000F04BF80120D8
:1005500000F048F80F2000F045F80E2000F042F8B7
:10056000092000F03FF82F2000F03CF8542000F064
:1005700039F8442000F036F80F2000F033F81D2041
:1005800000F030F81A2000F02DF8162000F02AF8BC
:10059000192000F027F8212000F00EF8292000F0A3
:1005A0000BF8782000F072FA00F02AFA10BD000073
:1005B0009C0123420000224210B504460020074956
:1005C00008602146064800F0BEF800BF022104483A
:1005D00000F0B0F80028F9D010BD00008881214259
:1005E0000038004010B50446012007490860214644
:1005F000064800F0A8F800BF0221044800F09AF86D
:100600000028F9D010BD0000888121420038004048
:1006100000BFFEE77047704729B1064AD26902431E
:10062000044BDA6104E0034AD2698243014BDA6188
:10063000704700000010024029B1064A9269024347
:10064000044B9A6104E0034A92698243014B9A6128
:10065000704700000010024000B587B0012118204B
:10066000FFF7EAFF01218803FFF7D6FF0520ADF869
:10067000180010208DF81B0003208DF81A0006A921
:100680002248FFF7FAFD4020ADF8180006A92048DF
:10069000FFF7F3FD4FF46040ADF8180018208DF817
:1006A0001B0003208DF81A0006A91848FFF7E5FD86
:1006B0004FF460411548FFF76DFE4FF44040ADF830
:1006C00004004FF48270ADF806000020ADF8080079
:1006D0000220ADF80A000120ADF80C004002ADF890
:1006E0000E000020ADF81000ADF812000720ADF8A4
:1006F000140001A9074800F028F80121054800F07E
:100700000DF8FF2000F008F807B000BD000C014014
:1007100000100140003800400146704721B10288B6
:1007200042F04002028004E002884FF6BF731A4094
:10073000028070470246002013890B400BB1012054
:1007400000E0002070478181704710B500220288C8
:1007500002F441520B884C8823438C882343CC8875
:1007600023430C8923434C8923438C892343CC891D
:1007700023431A430280838B4FF2FF742340838309
:100780000B8A038210BD704710B500F001F810BD50
:100790000CB50020019000903348006840F4803090
:1007A0003149086000BF3048006800F40030009014
:1007B0000198401C0190009818B90198B0F5A06FFD
:1007C000F1D12948006800F4003010B101200090F8
:1007D00001E0002000900098012843D123480068E0
:1007E00040F01000214908600846006820F003002E
:1007F00008600846006840F0020008601A48406837
:10080000194948600846406848600846406840F416
:10081000806048600846406820F47C1048600846C4
:10082000406840F4E81048600846006840F0807076
:10083000086000BF0C48006800F000700028F9D084
:100840000948406820F003000749486008464068AE
:1008500040F00200486000BF0348406800F00C0010
:100860000828F9D10CBD0000001002400020024011
:10087000042808D14FF0E021096941F004014FF04C
:10088000E022116107E04FF0E021096921F0040145
:100890004FF0E022116170477047000010B5134817
:1008A000006840F00100114908600846406810499E
:1008B00008400E494860084600680E4908400B4948
:1008C00008600846006820F48020086008464068F8
:1008D00020F4FE0048604FF41F008860FFF754FFCB
:1008E0004FF000600449086010BD00000010024095
:1008F0000000FFF8FFFFF6FE08ED00E010B540F243
:1009000025511D4800F03EF810B31B4800F064F874
:10091000C4B21A48008800F40040C8B917480088DB
:1009200000F4804060B10A2C03D0002013490880F5
:1009300020E01248008840F400401049088019E087
:100940000D2C06D10D48008840F480400B490880EA
:1009500010E00A480088C0F30D0009490C5407480C
:100960000088401C0549088008460088C72801DD2A
:100970000020088010BD0000003801401C0000204D
:100980002000002070B5024600240023002500202E
:1009900040F66A16B14200D100BFC1F3421501F022
:1009A0001F03012606FA03F3012D02D19689334075
:1009B00006E0022D02D1168A334001E0968A3340C8
:1009C0000C12012606FA04F41688344013B10CB157
:1009D000012000E0002070BD01468888C0F30800B7
:1009E000704700BFFEE770B505460C462846FFF786
:1009F000F9FD2046FFF7F6FD70BD014600BF7047C8
:100A000010B52A20FFF7D8FD0020FFF7EBFD0020EE
:100A1000FFF7E8FD0020FFF7E5FDEF20FFF7E2FD1F
:100A20002B20FFF7C9FD0020FFF7DCFD0020FFF7BA
:100A3000D9FD0020FFF7D6FDEF20FFF7D3FD2C20D6
:100A4000FFF7BAFD10BD000010B56FF00400FFF70E
:100A50000FFF0A4800680A49B0FBF1F00949087025
:100A60000846007800EB4001C1EBC0104FF6FF7163
:100A700001EAC0000449088010BD00000000002009
:100A800000127A0014000020160000200146114ACE
:100A900012884A434FF0E0235A6100229A611A46B5
:100AA000126942F001021A6100BF4FF0E0221069A2
:100AB00000F001021AB100F48032002AF5D04FF0A4
:100AC000E022126922F001024FF0E0231A610022B5
:100AD0009A6170471600002070B5044600250BE0AF
:100AE000002605E0E1B22012FFF77DFF701CC6B2C0
:100AF000F02EF7DB681CC5B2F02DF1DB70BD00BF36
:100B000000BFFFF7A1FFFFF749FCFFF7A5FDFFF7C7
:100B100075FCFFF773FC0020FFF7DEFF16E04FF4D3
:100B20007840FFF7D9FF4FF47A70FFF7AFFF4FF42B
:100B3000FC60FFF7D1FF4FF47A70FFF7A7FF1F208B
:100B4000FFF7CAFF4FF47A70FFF7A0FFE7E7000056
:100B5000700B000800000020200000006C0100085D
:100B6000900B0008200000202807000088010008E2
:100B700000A24A040000000000000000010203047B
:100B80000607080900000000000000000000000047
:04000005080001CD21
:00000001FF
