:020000040800F2
:1000000060070020090B0008F3010008F501000853
:10001000F9010008FD0100080102000800000000CD
:1000200000000000000000000000000005020008C1
:100030000702000800000000090200080B02000887
:10004000230B0008230B0008230B0008230B0008D8
:10005000230B0008230B0008230B0008230B0008C8
:10006000230B0008230B0008230B0008230B0008B8
:10007000230B0008230B0008230B0008230B0008A8
:10008000230B0008230B0008230B0008230B000898
:10009000230B0008230B0008230B0008230B000888
:1000A000230B0008230B0008230B0008230B000878
:1000B000230B0008230B0008230B0008230B000868
:1000C000230B0008230B0008230B0008230B000858
:1000D000230B00087F0A0008230B0008230B0008ED
:1000E000230B0008230B0008230B0008230B000838
:1000F000230B0008230B0008230B0008230B000828
:10010000230B0008230B0008230B0008230B000817
:10011000230B0008230B0008230B0008230B000807
:10012000230B0008230B0008230B0008230B0008F7
:1001300000F002F800F03AF80AA090E8000C8244BF
:100140008344AAF10107DA4501D100F02FF8AFF29C
:10015000090EBAE80F0013F0010F18BFFB1A43F0A5
:10016000010318473C1C00005C1C0000103A24BF2F
:1001700078C878C1FAD8520724BF30C830C144BF0C
:1001800004680C607047000000230024002500264E
:10019000103A28BF78C1FBD8520728BF30C148BFEA
:1001A0000B6070471FB51FBD10B510BD01F0C9FD34
:1001B0001146FFF7F7FF00F008F801F0E7FD03B480
:1001C000FFF7F2FF03BC00F0FFFB00F093FB4FF4DE
:1001D000A06000F0B9FC4FF4E13000F004FC00F046
:1001E000C3FA00F039F900F04BF900F02EFB00BF24
:1001F000FEE7704700BFFEE700BFFEE700BFFEE777
:1002000000BFFEE770477047704770470CB500208D
:10021000019000906C48006840F480306A490860A2
:1002200000BF6948006800F4003000900198401C4D
:100230000190009818B90198B0F5A06FF1D162480B
:10024000006800F4003010B10120009001E00020AF
:1002500000900098012843D15C48006840F01000ED
:100260005A4908600846006820F003000860084604
:10027000006840F0020008605348406852494860F6
:100280000846406848600846406840F4806048601E
:100290000846406820F47C1048600846406840F4F6
:1002A000E81048600846006840F08070086000BFB1
:1002B0004548006800F000700028F9D042484068C6
:1002C00020F00300404948600846406840F00200C2
:1002D000486000BF3C48406800F00C000828F9D195
:1002E0000CBD10B5FFF792FF10BD10B53648006881
:1002F00040F001003449086008464068344908402D
:100300003149486008460068324908402E49086073
:100310000846006820F4802008600846406820F401
:10032000FE0048604FF41F008860FFF7DAFF4FF0CF
:1003300000602949086010BD10B50021002000228E
:10034000214B5B6803F00C0121B1042906D0082978
:1003500028D107E0214B224C236027E01F4B204C83
:10036000236023E0184B5B6803F47010164B5B6846
:1003700003F48032022303EB904022B9194B43432C
:10038000174C23600DE0104B5B6803F4003323B17E
:10039000144B4343124C236003E0104B4343104C77
:1003A000236003E00D4B0E4C236000BF00BF064BE3
:1003B0005B68C3F303130C4CE15C094B1B68CB4037
:1003C000074C236010BD00000010024000200240D6
:1003D0000000FFF8FFFFF6FE08ED00E000127A00D3
:1003E0000000002000093D0004000020FE490880B4
:1003F0007047FD49891C0880704708B5FA48801C81
:1004000000880090BDF8000008BD30B50246F64DEA
:100410002A80C1F34033CC0B084645F6FF752840CF
:1004200040EA4435A8B240EAC330EF4DAD1C288005
:1004300030BD00B502461046FFF7D8FFFFF7DDFFDD
:1004400000BDE949891C0880704700BF0100A0F188
:100450000102D0B2FAD1704708B501214FF4FE7005
:1004600001F002FA0420ADF8000010208DF803001E
:1004700003208DF802006946DC4800F039FF08BD12
:1004800010B50020DA490860C82000F070FA012099
:10049000D849C1F88801142000F069FA0021084603
:1004A000FFF7B3FF4FF480710120FFF7AEFF4FF469
:1004B00080710220FFF7A9FF41F230010320FFF70E
:1004C000A4FF40F608010820FFF79FFF0121092043
:1004D000FFF79BFF10210B20FFF797FF00210C2057
:1004E000FFF793FF00210F20FFF78FFF0121072067
:1004F000FFF78BFF11211020FFF787FF4FF40071EA
:100500001120FFF782FF4FF440711220FFF77DFFAB
:1005100040F21E212020FFF778FF40F20221212027
:10052000FFF773FF4FF480712220FFF76EFF4FF447
:1005300000419020FFF769FF41F2B0714FF48070E5
:10054000FFF763FF40F2471140F20110FFF75DFF34
:100550004FF49C714FF48170FFF757FF4FF44051F7
:1005600040F20310FFF751FF002140F20710FFF7A0
:100570004CFF01214FF48870FFF747FF00214FF433
:100580002070FFF742FF002140F28120FFF73DFF7E
:10059000002140F28220FFF738FF41F211014FF4B1
:1005A0004070FFF732FF42F2245140F20130FFF772
:1005B0002CFF42F6207140F20230FFF726FF42F294
:1005C0002F0140F20330FFF720FF42F225314FF4B4
:1005D0004170FFF71AFF41F2101140F20530FFF7AA
:1005E00014FF40F6046140F20630FFF70EFF40F2C0
:1005F0000E4140F20730FFF708FF05214FF442702B
:10060000FFF703FF032140F20930FFF7FEFE40F63B
:10061000047140F20A30FFF7F8FE4FF4706140F2C7
:100620000B30FFF7F2FE0F214FF44370FFF7EDFEA2
:1006300040F20F4140F20D30FFF7E7FE4FF44071FA
:1006400040F20E30FFF7E1FE4FF4A06140F20F30B0
:10065000FFF7DBFE4FF454514FF48060FFF7D5FEF7
:10066000012140F20140FFF7D0FE002140F204409A
:10067000FFF7CBFE002140F20120FFF7C6FE00216C
:100680004FF40070FFF7C1FE00214FF40470FFF734
:10069000BCFEEF2140F21120FFF7B7FE002140F22F
:1006A0001220FFF7B2FE40F28F1140F21320FFF745
:1006B000ACFE00214FF4A060FFF7A7FE002140F23E
:1006C0000150FFF7A2FE002140F20250FFF79DFE0D
:1006D000002140F20350FFF798FE002140F2045041
:1006E000FFF793FE002140F20550FFF78EFE002138
:1006F0004FF4C060FFF789FE002140F20660FFF76B
:1007000084FE00214FF4DE60FFF77FFE45F22041BA
:100710004FF4FE60FFF779FE002140F2DE70FFF734
:1007200074FEDF2140F2F270FFF76FFE40F68E019B
:1007300040F2F370FFF769FE222140F2F470FFF7F8
:1007400064FE012140F2F570FFF75FFE00214FF4D7
:10075000FE60FFF75AFE40F273110720FFF755FEC7
:10076000962000F004F910BD00B597B001210802F1
:1007700001F06DF801214FF4B47001F075F84CF2FE
:100780003370ADF8580018208DF85B0003208DF809
:100790005A0016A9154800F0ABFD4FF68070ADF871
:1007A000580018208DF85B0003208DF85A0016A918
:1007B000114800F09DFD41F20100ADF858001820ED
:1007C0008DF85B0003208DF85A0016A90B4800F045
:1007D0008FFD052000900020019005200290002050
:1007E0000390049005900BE0FE07006C001401409C
:1007F00088812242008022420018014000200140EE
:1008000006900620079000200890099010200A907A
:1008100000200B900D900C900E900F904FF4805094
:1008200010900020119012901390CDF850D0CDF878
:1008300054D007A800F042FA0121062000F0A6FBE0
:10084000322000F094F817B000BD30B500214FF40D
:100850000470FFF7DAFDEF2140F21120FFF7D5FD1C
:10086000002140F21220FFF7D0FD40F28F1140F23C
:100870001320FFF7CAFD002140F20120FFF7C5FD5C
:1008800000214FF40070FFF7C0FD40F20220FFF797
:10089000ADFD00240BE0002505E04FF47840FFF7A4
:1008A000A8FD681C85B2F02DF7DB601C84B2852C96
:1008B000F1DB00240BE0002505E04FF4FC60FFF7BE
:1008C00098FD681C85B2F02DF7DB601C84B2852C86
:1008D000F1DB00240AE0002504E01F20FFF789FD7A
:1008E000681C85B2F02DF8DB601C84B2862CF2DB2C
:1008F00030BD000010B56FF0040000F074F92E4810
:1009000000682E49B0FBF1F02D49087008460078C8
:1009100000EB4001C1EBC0104FF6FF7101EAC000CF
:100920002849088010BD0146254A12784A434FF0F5
:10093000E0235A6100229A611A46126942F00102CC
:100940001A6100BF4FF0E022106900F001021AB1F5
:1009500000F48032002AF5D04FF0E022126922F034
:1009600001024FF0E0231A6100229A6170470146AC
:10097000144A12884A434FF0E0235A6100229A61D8
:100980001A46126942F001021A6100BF4FF0E022DC
:10099000106900F001021AB100F48032002AF5D08B
:1009A0004FF0E022126922F001024FF0E0231A61B9
:1009B00000229A61704700000000002000127A00B7
:1009C0001400002016000020014600BF704700BF41
:1009D000494A128802F04002002AF9D0C2B2464BBE
:1009E0001B1D1A80704710B586B00446012144F2E1
:1009F000040000F039FF4FF40070ADF8140003203C
:100A00008DF8160018208DF8170005A93B4800F056
:100A10006FFC4FF48060ADF8140004208DF81700CF
:100A200005A9364800F064FC25208DF8000003205D
:100A30008DF801008DF8020001208DF80300684652
:100A400000F087F801940020ADF80800ADF80A0026
:100A5000ADF80C00ADF810000C20ADF80E0001A9A7
:100A6000254800F0A8FF012240F22551224801F05C
:100A70003AF80121204801F02AF806B010BD10B55F
:100A800040F225511C4801F013F910B31A4801F047
:100A90008FF8C4B21A48008800F40040C8B918485A
:100AA000008800F4804060B10A2C03D00020144973
:100AB000088020E01248008840F400401049088077
:100AC00019E00D2C06D10E48008840F480400C49F6
:100AD000088010E00A480088C0F30D0009490C5452
:100AE00007480088401C0649088008460088C72837
:100AF00001DD0020088010BD0038014000080140E1
:100B00001C000020340000200948804709480047A5
:100B1000FEE7FEE7FEE7FEE7FEE7FEE7FEE7FEE7AD
:100B2000FEE7FEE704480549054A064B704700000A
:100B3000EB0200083101000860010020600700207E
:100B4000600300206003002031490143314A1160F5
:100B5000704770B5002100230F22C47804B32D4CD8
:100B6000246804F4E064C4F5E064210AC1F10403DC
:100B7000CA40447804FA03F18478144021430901FF
:100B8000254C0678A155047804F01F050124AC40DB
:100B900005786D11AD0005F1E025C5F8004109E0CB
:100BA000047804F01F050124AC401C4D0678761132
:100BB00045F8264070BD1A4A0A400243154B1B1FD8
:100BC0001A60704739B1134A121D12680243114B63
:100BD0001B1D1A6006E00F4A121D126882430D4B5E
:100BE0001B1D1A607047042808D14FF0E0210969E5
:100BF00041F004014FF0E022116107E04FF0E021E5
:100C0000096921F004014FF0E022116170470000F2
:100C10000000FA050CED00E000E400E080E100E0F7
:100C200080FFFF1F30B943F2DB028100A1F1C04118
:100C30000A6005E043F2D2028100A1F1C0410A60DE
:100C40006FF07042411C8900A1F1C0410A6081002F
:100C5000A1F1C041C1F80421704710280AD1182120
:100C60004FF020421166402151664FF0FC319166F1
:100C7000D16610E01821F74A116040214FF0204260
:100C8000C2F884104FF0FC31F24A083211604FF084
:100C90002042C2F88C1070471820EE4920310860BD
:100CA00000200906C1F8A4004FF0FC30E9492831C2
:100CB0000860091D0860091D08607047D0E901122D
:100CC0001143C268114302691143426911438269A9
:100CD0001143C2691143026A1143426A1143826A95
:100CE0001143C26A1143026B114302689200A2F1E0
:100CF000C0421160816808290BD101688900A1F107
:100D0000C041096841F0400201688900A1F1C04179
:100D10000A60416B0968426B526841EA0211426BFA
:100D2000926841EA0221426B928941EA0241426B98
:100D3000128A41EA0251426B127D41EA0261426B22
:100D4000926911430268521C9200A2F1C0421160E4
:100D5000C16AB1F5804F1BD1816B0968826B526803
:100D600041EA0211826B926841EA0221826B128A87
:100D700041EA0251826B127D41EA0261826B926903
:100D8000114302689200A2F1C042C2F8041107E0C8
:100D90006FF0704201688900A1F1C041C1F80421DF
:100DA000704730B5002100220023446844F0080455
:100DB00085682C43C5682C4305692C43456944EA82
:100DC0004524856944EA4531C4692468C5696D686C
:100DD00044EA0524C5692D8944EA0544C5692D7B8B
:100DE00044EA0562046A2468056A6D6844EA0524D9
:100DF000056A2D8944EA0544056A2D7B44EA0563AA
:100E00000468102C05D14FF020442166A266E366E9
:100E100008E0904C21604FF02044C4F888208D4CAD
:100E20000C34236030BD016841F01001426841EA92
:100E30004221826841EA4231864A20321160C1680B
:100E40000968C268526841EA0221C268128941EA0F
:100E50000241C268127B41EA02617E4A2832116077
:100E6000016909680269526841EA0221026912892E
:100E700041EA02410269127B41EA0261754A2C3261
:100E80001160416909684269526841EA0221426978
:100E9000128941EA02414269127B41EA02614FF044
:100EA0002042C2F8B0107047002101600221416069
:100EB00000218160C160016141618161C1610162A4
:100EC0004FF480514162490081620021C162016397
:100ED0000F21426B1160426B5160FF21426B9160A8
:100EE0000F21426BD160426B1161426B5161002155
:100EF000426B91610F21826B1160826B5160FF2107
:100F0000826B91600F21826BD160826B1161826B69
:100F100051610021826B91617047102101600021B5
:100F200041608160C160016141618161FC21C269F0
:100F30001160C2695160C2699160C269D160026A80
:100F40001160026A5160026A9160026AD160704762
:100F50000021016041608160FC21C2681160C268AB
:100F60005160C2689160C268D16002691160026913
:100F70005160026991600269D16042691160426901
:100F80005160426991604269D160704751B18200FD
:100F9000A2F1C042126842F001038200A2F1C042F5
:100FA000136009E08200A2F1C04212682A4B1A4085
:100FB0008300A3F1C0431A60704799B1102808D18B
:100FC0004FF02042126E42F004024FF020431A66A6
:100FD0001DE0204A126842F004024FF02043C3F89B
:100FE000802014E0102809D14FF02042126E1A4BD5
:100FF000DB1E1A404FF020431A6608E0154A1268BB
:10100000154BDB1E1A404FF02043C3F88020704779
:1010100048B110492031096841F004014FF02042E5
:10102000C2F8A01009E00B49203109680A4AD21E13
:1010300011404FF02042C2F8A0107047B9B11028FB
:101040000CD14FF02042126E42F040024FF020438C
:101050001A661FE0800000A0FEFF0F00724A1268AF
:1010600042F040024FF02043C3F8802012E01028E5
:1010700008D14FF02042126E6C4B1A404FF02043C3
:101080001A6607E0684A1268684B1A404FF020431E
:10109000C3F88020704701460020102903D14FF08B
:1010A0002042506F02E0604A14321068704710B559
:1010B000F2B1102807D14FF020435B6E0B434FF085
:1010C0002044636632E0B0F5807F08D1564B1B1D8B
:1010D0001B680B434FF02044C4F8843026E0524B89
:1010E00024331B680B434FF02044C4F8A4301DE0A8
:1010F000102807D14FF020435B6E8B434FF0204404
:10110000636613E0B0F5807F08D1474B1B1D1B6859
:101110008B434FF02044C4F8843007E0424B243323
:101120001B688B434FF02044C4F8A43010BD10B5A9
:10113000024600200023102A03D14FF02044636EA2
:1011400009E0B2F5807F03D1374C241D236802E00B
:10115000354C2434236803EA01040CB1012000E07B
:10116000002010BD102807D14FF02042526E8A4354
:101170004FF020435A6613E0B0F5807F08D12A4A29
:10118000121D12688A434FF02043C3F8842007E001
:10119000254A243212688A434FF02043C3F8A42022
:1011A000704770B502460020002300240025102A55
:1011B00003D14FF02046736E09E0B2F5807F03D172
:1011C000194E361D336802E0174E2436336803EAA1
:1011D000010403EAD10514B10DB1012000E00020A3
:1011E00070BD102808D14FF02042526E22EAD10281
:1011F0004FF020435A6615E0B0F5807F09D10A4AC6
:10120000121D126822EAD1024FF02043C3F8842055
:1012100008E0054A2432126822EAD1024FF0204346
:10122000C3F8A42070470000800000A0BFFF0F009B
:1012300010B50446CC48844208D10121042000F0B6
:101240002DFB0021042000F029FB46E0C748844222
:1012500008D10121082000F021FB0021082000F026
:101260001DFB3AE0C248844208D10121102000F061
:1012700015FB0021102000F011FB2EE0BD48844238
:1012800008D10121202000F009FB0021202000F0DE
:1012900005FB22E0B848844208D10121402000F03B
:1012A000FDFA0021402000F0F9FA16E0B34884422C
:1012B00008D10121802000F0F1FA0021802000F007
:1012C000EDFA0AE0AE48844207D10121801500F012
:1012D000E5FA0021A01500F0E1FA10BD10B50121DA
:1012E000084600F0DBFA0021012000F0D7FA10BD1B
:1012F0002DE9F041024600250026002000230024AD
:10130000002791F803C00CF00F0591F803C00CF012
:10131000100CBCF1000F03D091F802C04CEA050597
:1013200091F800C0BCF1000F31D0146800202BE010
:101330004FF0010C0CFA00F3B1F800C00CEA030600
:101340009E4220D183004FF00F0C0CFA03F7BC43F0
:1013500005FA03FC4CEA040491F803C0BCF1280F21
:1013600006D14FF0010C0CFA00FCC2F814C00AE0E0
:1013700091F803C0BCF1480F05D14FF0010C0CFAF5
:1013800000FCC2F810C0401C0828D1D31460B1F88A
:1013900000C0BCF1FF0F34DD546800202EE000F1E6
:1013A000080C4FF0010808FA0CF3B1F800C00CEA81
:1013B00003069E4221D183004FF00F0C0CFA03F775
:1013C000BC4305FA03FC4CEA040491F803C0BCF1E9
:1013D000280F05D100F1080C08FA0CF8C2F81480A7
:1013E00091F803C0BCF1480F07D100F1080C4FF091
:1013F000010808FA0CF8C2F81080401C0828CED367
:101400005460BDE8F0814FF6FF71018002218170C8
:101410000421C17070470246002093680B400BB155
:10142000012000E0002070470146886880B27047C4
:1014300002460020D3680B400BB1012000E00020E1
:1014400070470146C86880B27047016170474161CA
:1014500070470AB1016100E041617047C1607047A7
:101460004FF480320A4382618161826182698269BC
:10147000704702460020434B18684FF680731840AF
:1014800040EA021008433F4B186070473E49C8616C
:101490007047F0B50A46002300240021002500F023
:1014A0000046B6F1004F02D1364EF16901E0354EEB
:1014B0007168C0F3034583B200F44016B6F5401FCF
:1014C00008D121F070612F4E766826F070662D4F9E
:1014D0007E6012E000F48016B6F5801F06D1032668
:1014E00006FA05F4A14341F0706106E0460D3601AD
:1014F00003FA06F6B14341F0706122B1460D3601A0
:1015000003FA06F6314300F00046B6F1004F02D16F
:101510001C4EF16101E01B4E7160F0BD30B5002240
:101520008B071C0F0F2303FA04F2164B08338C10A1
:1015300053F824309343134C08348D1044F825306D
:1015400023468C1053F824308C07240F00FA04F43F
:1015500023430C4C08348D1044F8253030BD0A4923
:10156000DC3108607047000000080140000C0140B9
:10157000001001400014014000180140001C01400F
:10158000002001400000014000002042DF480068C8
:1015900040F00100DD49086008464068DC49084029
:1015A000DA49486008460068DA490840D7490860C7
:1015B0000846006820F4802008600846406820F44F
:1015C000FE0048604FF41F0088607047CF490968EB
:1015D00021F48031CD4A11601146096821F480213F
:1015E0001160B0F5803F03D0B0F5802F0ED106E03A
:1015F000C649096841F48031C44A116007E0C34913
:10160000096841F4A021C14A116000E000BF00BF99
:10161000704710B501460022002300204A11012A1C
:1016200002D1BA4C236806E0022A02D1B74C236AE1
:1016300001E0B64C636A01F01F02012494401C4093
:101640000CB1012000E0002010BD38B50020009052
:101650000024002500BF3120FFF7DBFF054600987E
:10166000401C00900098B0F5A06F01D0002DF2D082
:101670003120FFF7CEFF08B1012400E0002420460E
:1016800038BD01460020A14A106820F0F80040EA69
:10169000C10010607047A0490860704702460020F2
:1016A0009A4B586820F47C1042EA01031843974B88
:1016B0005860704798490866704701460020934A71
:1016C000506820F003000843506070478F4840681E
:1016D00000F00C007047014600208C4A506820F052
:1016E000F00008435060704701460020874A506868
:1016F00020F4E06008435060704701460020834AB0
:10170000506820F4605040EAC1005060704729B131
:101710007E4A527A02437D4B5A7204E07B4A527AE7
:1017200082437A4B5A7270477B49D83108607047C0
:1017300001460020754A506820F44040084350603C
:1017400070470021714A20321170704A82F82010CF
:10175000012802D004280AD104E001216B4A20327A
:10176000117005E00521694A2032117000E000BFC8
:1017700000BF70476949086070476449096A0143BE
:10178000624A11627047654944390860704730B554
:1017900000210022002400235C4D6D6805F00C013F
:1017A00021B1042905D0082923D105E05C4D05604D
:1017B00022E05B4D05601FE0544D6D6805F470122A
:1017C000524D6D6805F48034022505EB92421CB938
:1017D000544D554305600BE04C4D6D6805F40035E4
:1017E0001DB1504D5543056002E04D4D5543056018
:1017F00002E04B4D056000BF00BF444D6D6805F031
:10180000F0010909484D6B5C0568DD4045603F4DBE
:101810006D6805F4E061090A434D6B5C4568DD4085
:1018200085603A4D6D6805F46051C90A3E4D6B5CA8
:101830004568DD40C560354D6D6805F44041890B54
:101840003A4D6B5CC568B5FBF3F5056130BD29B158
:101850002E4A526902432D4B5A6104E02B4A5269C9
:1018600082432A4B5A61704729B1284A9269024340
:10187000264B9A6104E0254A92698243234B9A6180
:10188000704729B1214AD2690243204BDA6104E052
:101890001E4AD26982431D4BDA61704729B11B4A47
:1018A000D2680243194BDA6004E0184AD2688243D6
:1018B000164BDA60704729B1144A12690243134B80
:1018C0001A6104E0114A12698243104B1A61704791
:1018D00012494039086070470F49C86470470B4986
:1018E000C87170470948406A40F0807007494862F3
:1018F000704701460020054A92680A400AB101205B
:1019000000E00020704701498872704700100240D3
:101910000000FFF8FFFFF6FE000042428004424252
:1019200000127A0000093D001E0000202E00002059
:1019300010B50446FB48844209D101218803FFF712
:10194000ADFF00214FF48040FFF7A8FF32E0F648DA
:10195000844209D101214804FFF7ADFF00214FF473
:101960000030FFF7A8FF25E0F048844209D10121AB
:101970008804FFF7A0FF00214FF48020FFF79BFFB2
:1019800018E0EB48844209D10121C804FFF793FF16
:1019900000214FF40020FFF78EFF0BE0E548844262
:1019A00008D101210805FFF786FF00214FF48010C0
:1019B000FFF781FF10BD2DE9F04786B005460E46C2
:1019C0000024A24600BFA1460027B08900B100BF95
:1019D0002F462C8A4CF6FF700440F08804432C827A
:1019E000AC894EF6F3100440B08831890843718900
:1019F00008430443AC81AC8A4FF6FF400440B089F1
:101A00000443AC8201A8FFF7C2FEC648874202D158
:101A1000DDF810A001E0DDF80CA0A88900F400407A
:101A200040B10AEBCA0000EB0A1031684900B0FB74
:101A3000F1F807E00AEBCA0000EB0A1031688900F0
:101A4000B0FBF1F86420B8FBF0F004012009642138
:101A500001FB1089A88900F4004040B1322000EB5E
:101A6000C900B0FBF1F000F00700044308E03220A9
:101A700000EB09106421B0FBF1F000F00F0004430B
:101A80002C8106B0BDE8F0874FF4165101600021AB
:101A90008180C18001810C214181002181817047B9
:101AA00010B502460020108A4FF2FF0318400B8841
:101AB0004C8823438C882343CC88234318431082CB
:101AC00010BD0021018041808180C180704721B11B
:101AD000828942F40052828104E082894DF6FF73CC
:101AE0001A4082817047F0B5034600240026002585
:101AF000002040F66A17B94200D100BF1846C1F372
:101B0000421401F01F06012707FA06F5012C01D146
:101B10000C3004E0022C01D1103000E014301AB176
:101B200007682F43076002E00768AF430760F0BD16
:101B30001AB1838A0B43838202E0838A8B438382B8
:101B40007047028A4FF6F0731A400282028A0A43F3
:101B50000282704782894FF2FF731A408281828924
:101B60000A438281704721B1828942F00202828158
:101B700004E082894FF6FD731A4082817047028A21
:101B80004FF6DF731A400282028A0A4302827047CC
:101B900021B1028A42F48042028204E0028A4BF6BA
:101BA000FF731A4002827047C1F3080282807047B7
:101BB00001468888C0F308007047818941F001011F
:101BC00081817047028BD2B20283028B42EA0122EA
:101BD00002837047028B02F47F420283028B0A4326
:101BE0000283704721B1828A42F02002828204E09F
:101BF000828A4FF6DF731A408282704721B1828A4F
:101C000042F01002828204E0828A4FF6EF731A409B
:101C10008282704721B1828A42F00802828204E007
:101C2000828A4FF6F7731A408282704721B1828907
:101C300042F40042828103E08289C2F30E02828173
:101C4000704721B1828A42F40062828204E0828A73
:101C50004FF2FF731A4082827047828A4FF6FB73FD
:101C60001A408282828A0A438282704721B1828A24
:101C700042F00202828204E0828A4FF6FD731A402B
:101C80008282704702460020B1F5007F00D100BF7C
:101C900013880B400BB1012000E00020704701F4D5
:101CA0000072B2F5007F00D100BFCA4302807047C6
:101CB00070B50246002400230025002040F66A1675
:101CC000B14200D100BFC1F3421501F01F0301264C
:101CD00006FA03F3012D02D19689334006E0022D66
:101CE00002D1168A334001E0968A33400C12012655
:101CF00006FA04F41688344013B10CB1012000E058
:101D0000002070BD10B50022002340F66A14A142E5
:101D100000D100BF0A1201249440A3B2DC43048026
:101D200010BD000000380140004400400048004061
:101D3000004C0040005000407047704770477047AB
:101D40007047754600F028F8AE46050069465346D0
:101D500020F00700854618B020B5FEF7E3FEBDE889
:101D600020404FF000064FF000074FF000084FF002
:101D7000000B21F00701AC46ACE8C009ACE8C00993
:101D8000ACE8C009ACE8C0098D4670470446AFF323
:101D900000802046FEF713FA00487047FC00002040
:101DA000C01D000800000020340000006C01000885
:101DB000F41D0008340000202C07000088010008F2
:101DC00000A24A0400000000000000000102030419
:101DD00006070809000000000000000000000000E5
:101DE00000000102030401020304060708090204BB
:041DF00006080000E1
:0400000508000131BD
:00000001FF
