:020000040800F2
:100000006806002059010008F906000823040008CA
:1000100000000000000000000000000000000000E0
:10002000000000000000000000000000230A00089B
:100030000000000000000000FB060008990B00080B
:1000400089010008000000008901000889010008FA
:100050008901000889010008890100088901000858
:1000600000000000890100088901000889010008DA
:1000700089010008890100088901000800000000CA
:10008000890100080000000000000000890100084C
:100090008901000889010008890100088901000818
:1000A0008901000889010008890100088901000808
:1000B0008901000800F002F800F03EF80CA030C8FA
:1000C000083824182D18A246671EAB4654465D46D4
:1000D000AC4201D100F030F87E460F3E0FCCB64660
:1000E0000126334200D0FB1AA246AB4633431847E1
:1000F000F80C0000180D0000103A02D378C878C13F
:10010000FAD8520701D330C830C101D504680C6059
:10011000704700000023002400250026103A01D378
:1001200078C1FBD8520700D330C100D50B607047AF
:100130001FB51FBD10B510BD00F0F8F81146FFF750
:10014000F7FF00F03BFE00F010F903B4FFF7F2FFF9
:1001500003BC00F015F900000F4880F308880F4831
:100160000168090E0E4A914205D10E480E49016000
:100170000E480F4901600F4880470F480047FEE7CF
:10018000FEE7FEE7FEE7FEE7FEE700000B480C494E
:100190000C4A0D4B70470000680600200400000068
:1001A0001F00000018100240010000000000014084
:1001B000000000009D0B0008B5000008680000204A
:1001C000680600206802002068020020002203095F
:1001D0008B422CD3030A8B4211D300239C464EE062
:1001E00003460B433CD4002243088B4231D303091E
:1001F0008B421CD3030A8B4201D394463FE0C309D0
:100200008B4201D3CB01C01A524183098B4201D3E7
:100210008B01C01A524143098B4201D34B01C01AD2
:10022000524103098B4201D30B01C01A5241C3084A
:100230008B4201D3CB00C01A524183088B4201D3B9
:100240008B00C01A524143088B4201D34B00C01AA5
:100250005241411A00D201465241104670475DE0BA
:10026000CA0F00D04942031000D34042534000223D
:100270009C4603098B422DD3030A8B4212D3FC22E6
:10028000890112BA030A8B420CD3890192118B4265
:1002900008D3890192118B4204D389013AD092117B
:1002A00000E08909C3098B4201D3CB01C01A524136
:1002B00083098B4201D38B01C01A524143098B42FF
:1002C00001D34B01C01A524103098B4201D30B01E8
:1002D000C01A5241C3088B4201D3CB00C01A52410D
:1002E00083088B4201D38B00C01A5241D9D24308F4
:1002F0008B4201D34B00C01A5241411A00D2014631
:10030000634652415B10104601D34042002B00D59A
:100310004942704763465B1000D3404201B500205C
:10032000C046C04602BD704770477047754600F032
:1003300023F8AE46050069465346C008C00085460E
:1003400018B020B5FFF722FF60BC00274908B64669
:100350000026C0C5C0C5C0C5C0C5C0C5C0C5C0C5D4
:10036000C0C5403D49008D4670470446C046C04662
:100370002046FFF7EAFE0000004870470800002012
:1003800001491820ABBEFEE7260002007047F0B519
:100390000A4600210023002400BF3DE001258D40D6
:1003A0002B4615681D402C469C4234D11579012DF1
:1003B00002D01579022D16D185684F000326BE4064
:1003C000B543856055794E00B540866835438560F4
:1003D000858801268E40B5438580858896798E4034
:1003E000B6B23543858005684F000326BE40B5434D
:1003F000056015794E00B540066835430560C5684F
:100400004F000326BE40B543C560D5794E00B540C8
:10041000C6683543C560491C1029BFD3F0BD816152
:10042000704700BFFEE700001CB5012123204004F7
:1004300000F064F90D480090012168460171002127
:10044000817101214171C17169460920C006FFF720
:100450009EFF0320009069460548FFF798FF0320A0
:10046000009069460348FFF792FF1CBDFF1F000084
:10047000000400480014004810B500F04FF900F0E7
:1004800011FA10BD0922D206526908239A430923A2
:10049000DB065A612B4A526952085200294B5A61B5
:1004A000294A1278032A16D10922D206526920233A
:1004B0009A430923DB065A611A46526980239A43FC
:1004C0000923DB065A611A46526920239A432032D7
:1004D0000923DB065A61002129E080220240002A1C
:1004E00009D00922D206526980239A438032092317
:1004F000DB065A6107E00922D206526980239A433B
:100500000923DB065A610922D206526920239A4345
:100510000923DB065A611A46526920239A43203286
:100520000923DB065A614206100E4A1CD1B2082983
:10053000D3DB044A526952085200521C014B5A61E3
:10054000704700000004004804000020194A526966
:1005500052085200174B5A61174A5269520852000A
:10056000154B5A61134A526902239A43921C114B4C
:100570005A610922D206118AFF2212020A4002435E
:1005800011460923DB0699820A4A526902239A43DB
:10059000084B5A611A46526902239A43921C054B32
:1005A0005A61054A526952085200521C024B5A6164
:1005B0007047000000140048000400480922D206D9
:1005C000526908239A4308320923DB065A612C4AF0
:1005D0005269520852002A4B5A612A4A1278032A59
:1005E00017D10922D206526920239A430923DB0638
:1005F0005A611A46526980239A4380320923DB06E6
:100600005A611A46526920239A4320320923DB0695
:100610005A61002129E080220240002A09D00922E3
:10062000D206526980239A4380320923DB065A613D
:1006300007E00922D206526980239A430923DB0688
:100640005A610922D206526920239A430923DB0604
:100650005A611A46526920239A4320320923DB0645
:100660005A614206100E4A1CD1B20829D3DB044A53
:10067000526952085200521C014B5A6170470000E7
:100680000004004804000020194A52695208520030
:10069000521C174B5A61174A526952085200154BA7
:1006A0005A61134A526902239A43921C104B5A61B1
:1006B0000922D206118AFF2212020A400243114681
:1006C0000923DB0699820A4A526902239A43084B9E
:1006D0005A611A46526902239A43921C044B5A618A
:1006E000044A526952085200521C024B5A61704728
:1006F000001400480004004870477047002905D0E6
:10070000054A52690243044B5A6104E0024A5269A5
:100710008243014B5A6170470010024010B5FF2020
:100720002D3000F0C3FA1120FFF7ACFEFF202D3072
:1007300000F0BCFA3620FFF7A5FE0020FFF73EFFD1
:100740003A20FFF79FFE0520FFF738FFB220FFF7A2
:1007500099FE0C20FFF732FF0C20FFF72FFF00203F
:10076000FFF72CFF3320FFF729FF3320FFF726FF89
:10077000B720FFF787FE3520FFF720FFBB20FFF7EC
:1007800081FE2C20FFF71AFFC020FFF77BFE2C20F4
:10079000FFF714FFC220FFF775FE0120FFF70EFFE1
:1007A000C320FFF76FFE0B20FFF708FFC420FFF701
:1007B00069FE2020FFF702FFC620FFF763FE0F202F
:1007C000FFF7FCFED020FFF75DFEA420FFF7F6FE4A
:1007D000A120FFF7F3FEE020FFF754FED020FFF743
:1007E000EDFE0620FFF7EAFE0120FFF7E7FE0E20F0
:1007F000FFF7E4FE0E20FFF7E1FE0820FFF7DEFE24
:100800003220FFF7DBFE4420FFF7D8FE4020FFF741
:10081000D5FE0820FFF7D2FE1020FFF7CFFE0F20F5
:10082000FFF7CCFE1520FFF7C9FE1920FFF7C6FE23
:10083000E120FFF727FED020FFF7C0FE0620FFF7DC
:10084000BDFE0120FFF7BAFE0F20FFF7B7FE0E2016
:10085000FFF7B4FE0920FFF7B1FE2F20FFF7AEFE31
:100860005420FFF7ABFE4420FFF7A8FE0F20FFF750
:10087000A5FE1D20FFF7A2FE1A20FFF79FFE1620FF
:10088000FFF79CFE1920FFF799FE3A20FFF7FAFDCB
:100890000520FFF793FE2920FFF7F4FDC82000F0A4
:1008A00005FA10BD10B5C82000F000FA1120FFF7BE
:1008B0004DFEC82000F0FAF93620FFF747FE002071
:1008C000FFF7E2FE3A20FFF741FE0520FFF7DCFECE
:1008D000B220FFF73BFE0C20FFF7D6FE0C20FFF7FF
:1008E000D3FE0020FFF7D0FE3320FFF7CDFE3320EC
:1008F000FFF7CAFEB720FFF729FE3520FFF7C4FE39
:10090000BB20FFF723FE2C20FFF7BEFEC020FFF721
:100910001DFE2C20FFF7B8FEC220FFF717FE0120B6
:10092000FFF7B2FEC320FFF711FE0B20FFF7ACFE6E
:10093000C420FFF70BFE2020FFF7A6FEC620FFF71E
:1009400005FE0F20FFF7A0FED020FFF7FFFDA4203B
:10095000FFF79AFEA120FFF797FEE020FFF7F6FDD4
:10096000D020FFF791FE0620FFF78EFE0120FFF753
:100970008BFE0E20FFF788FE0E20FFF785FE082075
:10098000FFF782FE3220FFF77FFE4420FFF77CFE58
:100990004020FFF779FE0820FFF776FE1020FFF7D2
:1009A00073FE0F20FFF770FE1520FFF76DFE192074
:1009B000FFF76AFEE120FFF7C9FDD020FFF764FED4
:1009C0000620FFF761FE0120FFF75EFE0F20FFF714
:1009D0005BFE0E20FFF758FE0920FFF755FE2F2083
:1009E000FFF752FE5420FFF74FFE4420FFF74CFE66
:1009F0000F20FFF749FE1D20FFF746FE1A20FFF7E4
:100A000043FE1620FFF740FE1920FFF73DFE212090
:100A1000FFF79CFD2920FFF799FD782000F046F9AB
:100A200010BD70470CB50020019000904E48006842
:100A30000121090408434C49086000BF4A48006886
:100A400001214904084000900198401C0190009841
:100A5000002803D1454901988842EFD142480068F7
:100A6000012149040840002802D00120009001E043
:100A700000200090009801283AD111203C490860DC
:100A80003948406838494860084640684860084628
:100A900040687F21C903884333494860084640685D
:100AA00011210904084330494860084600680121C3
:100AB000090608432C49086000BF2B480068012143
:100AC000490608400028F8D0274840688008800080
:100AD0002549486008464068022108432249486089
:100AE00000BF214840680C2108400828F9D139E0AE
:100AF00011201F4908601C4840681B49486008468F
:100B000040684860084640687F21C9038843164909
:100B10004860084640680521C904084312494860F6
:100B2000084600680121090608430F49086000BF14
:100B30000D4800680121490608400028F8D00A48FD
:100B400040688008800008494860084640680221E3
:100B500008430549486000BF034840680C2108402D
:100B60000828F9D10CBD000000100240FFE1000090
:100B700000200240042806D10649096904221143D5
:100B8000044A116105E00349096904229143014ABD
:100B90001161704700E000E07047000010B51B488D
:100BA000006801210843194908600846406818494F
:100BB000084016494860084600681649084013492D
:100BC0000860084600680121890488430F490860CD
:100BD000084640683F21090488430C49486008469C
:100BE000C06A00090001C8620846006BFF21543149
:100BF0008843064908630846406B40084000486344
:100C000000208860FFF70EFF10BD000000100240BA
:100C10000CB8FF08FFFFF6FE70B505460C462846E7
:100C2000FFF7CCFC2046FFF7C9FC70BD10B52A20A9
:100C3000FFF728FC0020FFF7C1FC0020FFF7BEFCF7
:100C40000020FFF7BBFCEF20FFF7B8FC2B20FFF7DD
:100C500019FC0020FFF7B2FC0020FFF7AFFC0120D9
:100C6000FFF7ACFC3F20FFF7A9FC2C20FFF70AFCA4
:100C700010BD000010B504460420C043FFF77AFF02
:100C8000E117490F0919C91049B2064A11701146F6
:100C9000002008567D21C900484300B2024908805F
:100CA00010BD0000000000200200002070B50646C4
:100CB000872189003046FFF793FAC4B28721890063
:100CC0003046FFF78DFA0D4605E08720800000F0E2
:100CD0000BF8601EC4B2002CF7D1002D02D02846BC
:100CE00000F002F870BD00000146124A0023D35EF6
:100CF0000A465A43104B5A6100229A611A461269F9
:100D000001231A430C4B1A6100BF0B4A1069C2073A
:100D1000D20F002A04D0012212040240002AF4D08B
:100D2000054A126952085200034B1A6100229A6167
:100D3000704700000200002000E000E070B5FFF7FF
:100D400075FF002519E0002413E0502C04DC00217D
:100D5000F820FFF761FF0AE0A02C04DCE021072067
:100D6000FFF75AFF03E01F210020FFF755FF601C2B
:100D7000C4B2F02CE9DB681CC5B2782DE3DB00259A
:100D800019E0002413E0502C04DCFF210846FFF793
:100D900043FF0AE0A02C04DC00210846FFF73CFFDB
:100DA00003E000218420FFF737FF601CC4B2F02C61
:100DB000E9DB681CC5B2782DE3DB70BD00BF00BF66
:100DC00000BF0820FFF756FFFFF72EFB0221054862
:100DD000FFF725FBFFF750FBFFF74EFBFFF7AEFFDA
:100DE00000BFFEE700040048080E000800000020D5
:100DF00008000000F8000008100E0008080000209D
:100E0000600600001401000800000000040000005B
:04000005080000B53A
:00000001FF
