:020000040800F2
:10000000C00700203D010008391D0008B50D00089B
:1000100000000000000000000000000000000000E0
:100020000000000000000000000000003520000873
:100030000000000000000000951D0008F9320008D3
:100040006D010008000000006D0100086D0100084E
:100050006D0100086D0100086D0100086D010008C8
:10006000000000006D0100086D0100086D0100082E
:100070006D0100086D0100086D010008000000001E
:100080007933000800000000000000006D01000846
:100090006D0100086D0100086D0100086D01000888
:1000A0006D0100086D0100086D0100086D01000878
:1000B0006D01000800F002F800F030F80CA030C824
:1000C000083824182D18A246671EAB4654465D46D4
:1000D000AC4201D100F022F87E460F3E0FCCB6466E
:1000E0000126334200D0FB1AA246AB4633431847E1
:1000F000DC4A0000FC4A0000002300240025002602
:10010000103A01D378C1FBD8520700D330C100D5D3
:100110000B6070471FB51FBD10B510BD00F0F8F89B
:100120001146FFF7F7FF03F02BFC00F010F903B4C2
:10013000FFF7F2FF03BC00F015F900000F4880F351
:1001400008880F480168090E0E4A914205D10E48F1
:100150000E4901600E480F4901600F4880470F4863
:100160000047FEE7FEE7FEE7FEE7FEE7FEE70000EA
:100170000B480C490C4A0D4B70470000C00700208B
:10018000040000001F0000001810024001000000E1
:100190000000014000000000FD320008B50000082A
:1001A000C0010020C0070020C0030020C0030020C1
:1001B000002203098B422CD3030A8B4211D3002364
:1001C0009C464EE003460B433CD4002243088B423E
:1001D00031D303098B421CD3030A8B4201D39446CB
:1001E0003FE0C3098B4201D3CB01C01A52418309BE
:1001F0008B4201D38B01C01A524143098B4201D378
:100200004B01C01A524103098B4201D30B01C01AA2
:100210005241C3088B4201D3CB00C01A524183081C
:100220008B4201D38B00C01A524143088B4201D349
:100230004B00C01A5241411A00D2014652411046A9
:1002400070475DE0CA0F00D04942031000D340421E
:10025000534000229C4603098B422DD3030A8B4254
:1002600012D3FC22890112BA030A8B420CD38901F2
:1002700092118B4208D3890192118B4204D38901D8
:100280003AD0921100E08909C3098B4201D3CB0116
:10029000C01A524183098B4201D38B01C01A5241CB
:1002A00043098B4201D34B01C01A524103098B42CF
:1002B00001D30B01C01A5241C3088B4201D3CB00BA
:1002C000C01A524183088B4201D38B00C01A52419D
:1002D000D9D243088B4201D34B00C01A5241411A74
:1002E00000D20146634652415B10104601D34042A2
:1002F000002B00D54942704763465B1000D3404253
:1003000001B50020C046C04602BD70477047704727
:10031000754600F023F8AE46050069465346C0080E
:10032000C000854618B020B5FFF722FF60BC00274B
:100330004908B6460026C0C5C0C5C0C5C0C5C0C5B1
:10034000C0C5C0C5C0C5403D49008D467047044684
:10035000C046C0462046FFF7EAFE0000004870474E
:100360005C01002001491820ABBEFEE72600020018
:10037000704770B58C180578401C6B075B0F01D176
:100380000378401C2A1106D10278401C03E006784D
:10039000401C0E70491C5B1EF9D12B0705D40023AD
:1003A000521E0DD40B70491CFAE70378401CCB1A7F
:1003B000921C03E01D780D70491C5B1C521EF9D580
:1003C000A142D8D3002070BDF8B504460E461546AC
:1003D0001248056001201023442231460090204637
:1003E00000F0C6FF01201023362231460090E018AD
:1003F00000F0BEFF01201023382231460090204635
:10040000203000F0B5FF012010234122314600903A
:100410002046303000F020FFF8BD0000080000202A
:10042000F8B504460E461546124805600120102313
:10043000442231460090204600F09AFF012010230C
:10044000362231460090E01800F092FF0120102380
:100450003822314600902046203000F089FF0120EC
:1004600010234222314600902046303000F0F4FE46
:10047000F8BD0000080000207CB505460E46144675
:100480000648046006A010210B463022009101901E
:100490003146284600F0CCFF7CBD0000080000205B
:1004A00041747461636B00003EB504460D46002044
:1004B0000121032212230092019102904022214641
:1004C00003F0CEF81F20C002012103221223009264
:1004D0000191029040222946002003F0C1F83EBD60
:1004E000F8B504460F4615461E4639462046FFF726
:1004F000DBFF1F2221460020A84700223946104674
:10050000B047F8BD10B51F484078801F030002F0C7
:10051000E5FF05040E18222C360007201949487003
:10052000194B1A4A12210020FFF7DAFF28E00820B1
:1005300014494870164B144A24211220FFF7D0FFAB
:100540001EE009200F494870124B114A3621242021
:10055000FFF7C6FF14E00A200A4948700E4B0D4A07
:1005600048213620FFF7BCFF0AE006200549487005
:10057000064B094A00214820FFF7B2FF00E000BF08
:1005800000BF10BDD600002039230008991D0008C7
:10059000E91D000879040008191E000810B51F485D
:1005A0004078801F030002F099FF05040E18222CEA
:1005B00036000A2019494870194B1A4A4821002070
:1005C000FFF78EFF28E0062014494870154B164AA5
:1005D00000211220FFF784FF1EE007200F4948701A
:1005E000114B124A12212420FFF77AFF14E0082051
:1005F0000A4948700D4B0E4A24213620FFF770FF40
:100600000AE0092005494870094B054A362148206F
:10061000FFF766FF00E000BF00BF10BDD60000205E
:10062000191E0008991D000839230008E91D00085B
:1006300079040008F8B504460E46154612480560D0
:1006400001201023542231460090204600F090FEF5
:1006500001201023562231460090E01800F088FE59
:10066000012010235822314600902046203000F00F
:100670007FFE012010235A22314600902046303060
:1006800000F076FEF8BD000008000020F8B5044632
:100690000E461546124805600120102332223146CD
:1006A0000090204600F064FE012010230A2231460B
:1006B0000090E01800F05CFE01201023302231464B
:1006C00000902046203000F053FE012010234E22DF
:1006D000314600902046303000F04AFEF8BD000060
:1006E00008000020F8B504460E461546124805607D
:1006F00001201023082231460090204600F038FEE9
:10070000012010230A2231460090E01800F030FE4C
:10071000012010233A22314600902046203000F07C
:1007200027FE012010233C22314600902046303025
:1007300000F01EFEF8BD00000800002010B51C48A7
:100740000078401C1A4908700846007807280BDD1D
:10075000184840781F2807D017480078401C1649D1
:10076000087001201549087013480078012802D14B
:1007700001F0FAFD13E010480078022802D101F0E0
:100780004FFE0CE00C480078032802D101F0E0FE97
:1007900005E009480078042801D101F071FF044800
:1007A0000078072802DD07200149087010BD00000D
:1007B000D8000020D6000020D4000020D500002062
:1007C00010B51C480078401E1A4908700846007889
:1007D00000280BD118484078162807D01748007811
:1007E000401E16490870012015490870134800780A
:1007F000042802D102F0D6FC13E010480078032848
:1008000002D102F039FC0CE00C480078022802D139
:1008100002F09CFB05E009480078012801D102F0B4
:10082000F5FA04480078012802DA0120014908702D
:1008300010BD0000D8000020D6000020D400002009
:10084000D5000020F8B504460E4615460948056057
:1008500001201023082231460090204600F088FD38
:10086000012010230A2231460090E01800F080FD9C
:10087000F8BD000008000020F8B504460E461546F5
:1008800012480560012010230822314600902046BE
:1008900000F06EFD012010230A2231460090E0187E
:1008A00000F066FD012010233622314600902046DC
:1008B000203000F05DFD01201023382231460090E9
:1008C0002046303000F054FDF8BD00000800002044
:1008D00010B518480078401C164908700846007882
:1008E00007280BDD14484078152807D013480078F6
:1008F000401C124908700120114908700F48007807
:10090000012802D101F05CFF0CE00C4800780228BD
:1009100002D101F0B1FF05E008480078032801D1B9
:1009200002F042F803480078072802DD0720014959
:10093000087010BDD8000020D6000020D200002092
:10094000D300002010B518480078401E16490870E2
:100950000846007800280BD1144840780D2807D0AD
:1009600013480078401E1249087001201149087090
:100970000F480078032802D102F0ECF90CE00C4893
:100980000078022802D102F04FF905E0084800780B
:10099000012801D102F0A8F803480078012802DA02
:1009A00001200149087010BDD8000020D6000020A9
:1009B000D2000020D3000020F8B504460E461546AC
:1009C000094805600120102304223146009020468A
:1009D00000F0CEFC01201023062231460090E018E2
:1009E00000F0C6FCF8BD000008000020F8B5054680
:1009F0000C4600262F78F80008494018005D00904A
:100A0000780107494018A1004658002E04D0B0478D
:100A10002846009900F006F8F8BD0000AC4B00082D
:100A2000DC000020032903D102784272017005E046
:100A3000042902D1427A027000E001707047000080
:100A400010B50F4840780B2802D00C2814D109E0CB
:100A50000C200B4948700B4B0B4A12210020FFF76A
:100A60003FFD0AE00B2006494870074B054A00216C
:100A70001220FFF735FD00E000BF00BF10BD0000F1
:100A8000D60000206D0C0008C50C000810B50F48FA
:100A900040780B2802D00C2814D109E00C200B4917
:100AA00048700B4B0B4A12210020FFF719FD0AE09A
:100AB0000B2006494870074B054A00211220FFF71A
:100AC0000FFD00E000BF00BF10BD0000D6000020F9
:100AD0006D0C0008C50C0008F8B504460E46154616
:100AE000124805600120102348223146009020461C
:100AF00000F03EFC012010234A2231460090E0180D
:100B000000F036FC012010232A22314600902046B6
:100B1000203000F02DFC01201023412231460090AE
:100B20002046303000F098FBF8BD0000080000209F
:100B3000F8B504460E4615461248056001201023FC
:100B4000482231460090204600F012FC012010237C
:100B50004A2231460090E01800F00AFC01201023E0
:100B60002A22314600902046203000F001FC01206E
:100B700010234222314600902046303000F06CFBBA
:100B8000F8BD000008000020F8B504460E461546E2
:100B9000124805600120102318223146009020469B
:100BA00000F0E6FB012010231A2231460090E018E5
:100BB00000F0DEFB012010231C223146009020466D
:100BC000203000F0D5FB0120102341223146009057
:100BD0002046303000F040FBF8BD00000800002047
:100BE000F8B504460E46154612480560012010234C
:100BF000182231460090204600F0BAFB0120102355
:100C00001A2231460090E01800F0B2FB01201023B8
:100C10001C22314600902046203000F0A9FB012024
:100C200010234222314600902046303000F014FB61
:100C3000F8BD000008000020F8B504460E46154631
:100C400009480560012010230C22314600902046FF
:100C500000F08EFB012010230E2231460090E01898
:100C600000F086FBF8BD000008000020F8B504463F
:100C70000E46154612480560012010230C2231460D
:100C80000090204600F074FB012010230E22314614
:100C90000090E01800F06CFB012010235022314638
:100CA00000902046203000F063FB012010235222E8
:100CB000314600902046303000F05AFBF8BD00006D
:100CC00008000020F8B504460E4615460D4805609C
:100CD000012010230C2231460090204600F048FBF2
:100CE000012010230E2231460090E01800F040FB56
:100CF000012010232A22314600902046203000F0A7
:100D000037FBF8BD08000020F0B50A46002100239B
:100D1000002400BF3DE001258D402B4615681D4095
:100D20002C469C4234D11579012D02D01579022D23
:100D300016D185684F000326BE40B54385605579BE
:100D40004E00B540866835438560858801268E4013
:100D5000B5438580858896798E40B6B235438580C7
:100D600005684F000326BE40B543056015794E0067
:100D7000B540066835430560C5684F000326BE4090
:100D8000B543C560D5794E00B540C6683543C560EA
:100D9000491C1029BFD3F0BD02460020138A0B4026
:100DA000002B01D0012000E0002070470185704732
:100DB0008161704700BFFEE7F8B504460E46154650
:100DC0000D48056001201023142231460090204672
:100DD00000F0CEFA01201023402231460090E018A6
:100DE00000F0C6FA0120102342223146009020462E
:100DF000203000F0BDFAF8BD08000020002101708D
:100E000070470000F8B504460E46154612480560C6
:100E1000012010231A4631460090204600F0A8FA1F
:100E200001201023122231460090E01800F0A0FAB1
:100E3000012010231422314600902046203000F07B
:100E400097FA0120102316223146009020463030B8
:100E500000F08EFAF8BD0000080000201CB51B4809
:100E6000406901214904084318494861084640691E
:100E7000012189040843154948610120C0030090FD
:100E80000021684601710121C17169460920C0062F
:100E9000FFF73AFF9820009069460D48FFF734FFAE
:100EA00060200090012168460171032141710121F8
:100EB000C17169460648FFF727FF012080020090B4
:100EC00069460920C006FFF71FFF1CBD0010024045
:100ED0000004004810B5002420212D48FFF768FFCA
:100EE00040212B48FFF764FF00BF4DE0002C02D0EB
:100EF000012C12D108E040212548FFF757FF20219F
:100F00002348FFF755FF09E020212148FFF74EFF56
:100F100040211F48FFF74CFF00E000BF00BF012148
:100F2000C9030920C006FFF737FF00280BD00821AE
:100F30001748FFF731FF002805D010211448FFF7AC
:100F40002BFF00281ED10121C9030920C006FFF78D
:100F500023FF002802D10F48005D10BD08210C4876
:100F6000FFF71AFF002803D10A48801C005DF4E750
:100F700010210748FFF710FF002803D10548001D86
:100F8000005DEAE7601CC4B2032CAFDB0020E4E79D
:100F900000040048CC00002070B504460D46EBB2BA
:100FA000E2B2E9B2E0B200F05FFB0248006802F092
:100FB0008BFA70BD08000020F8B504460D461646B1
:100FC000EBB2E2B2E9B2E0B200F04EFB304602F022
:100FD0007BFAF8BDFEB504460D4616461F46FBB229
:100FE000F2B2E9B2E0B2009000F03EFB02950DE0F3
:100FF000019405E0089802F067FA0198401C0190FE
:101000000198B042F6D90298401C02900298B8426A
:10101000EED9FEBD1CB501210320400400F0D4FE32
:101020000B48009001216846017100218171032164
:1010300041710121C17169460920C006FFF764FEB4
:101040000320009069460348FFF75EFE1CBD0000C8
:10105000FF1F00000004004810B5FFF7DBFF01216F
:101060007C48FFF7A3FE112000F016FA782002F06A
:101070005FFAB12000F010FA052000F0BBFA3A2028
:1010800000F0B8FA3A2000F0B5FAB22000F004FA05
:10109000052000F0AFFA3A2000F0ACFA3A2000F058
:1010A000A9FAB32000F0F8F9052000F0A3FA3A20DD
:1010B00000F0A0FA3A2000F09DFA052000F09AFA1C
:1010C0003A2000F097FA3A2000F094FAB42000F0A9
:1010D000E3F9032000F08EFAC02000F0DDF9622071
:1010E00000F088FA022000F085FA042000F082FA6D
:1010F000C12000F0D1F9C02000F07CFAC22000F03D
:10110000CBF90D2000F076FA002000F073FAC3202E
:1011100000F0C2F98D2000F06DFA6A2000F06AFA42
:10112000C42000F0B9F98D2000F064FAEE2000F040
:1011300061FAC52000F0B0F9122000F05BFA03203C
:1011400000F058FA362000F055FAC82000F052FAA4
:10115000E02000F0A1F9032000F04CFA1B2000F081
:1011600049FA122000F046FA112000F043FA3F201D
:1011700000F040FA3A2000F03DFA322000F03AFA4E
:10118000342000F037FA2F2000F034FA2B2000F042
:1011900031FA302000F02EFA3A2000F02BFA00202D
:1011A00000F028FA012000F025FA022000F022FACF
:1011B000052000F01FFAE12000F06EF9032000F096
:1011C00019FA1B2000F016FA122000F013FA112071
:1011D00000F010FA322000F00DFA2F2000F00AFA89
:1011E0002A2000F007FA2F2000F004FA2E2000F049
:1011F00001FA2C2000F0FEF9352000F0FBF93F2029
:1012000000F0F8F9002000F0F5F9002000F0F2F904
:10121000012000F0EFF9052000F0ECF9FC2000F0CF
:101220003BF98C2000F0E6F93A2000F035F9052072
:1012300000F0E0F9362000F02FF9682000F0DAF92C
:10124000132000F029F9292000F026F9142002F0DB
:101250006FF910BD00040048FFB585B006460D4685
:101260001C460295122C02D11020019017E0204656
:10127000E217520F1218D210E3175B0F1B18DB1086
:10128000DB000094E31A01D0012300E00023D21810
:101290002146E30F5B185B105A43D2B201920798C4
:1012A0002038C0B20790002754E00C2C07D10C2145
:1012B000079848432A494018C05D04900AE0102C62
:1012C00006D10798000127494018C05D049001E04D
:1012D00009B0F0BD0020039036E08021049808405A
:1012E000002806D02048294602683046FFF764FEF1
:1012F00008E00E98002805D11C48294602683046AF
:10130000FFF75AFE04984006000E04906D1CA02DB5
:1013100000D3DDE7122C09D10298281A10280FD12A
:10132000029D761C802E00D3D2E710E00298281A86
:10133000A04205D1029D761C802E00D3C8E706E0AE
:101340000398401CC0B2039003980828C5DB00BF77
:10135000781CC7B201988742A7DB00BFB8E700003E
:10136000F83900086C3E0008080000200400002046
:10137000FFB585B006460C461746002004900025B0
:10138000039002942020019000BF45E00F2D08DD5E
:10139000781C00012349411828461038085C049045
:1013A00004E038011F494018405D0490002003907C
:1013B0002CE0802104980840002806D01A482146D5
:1013C00002683046FFF7F8FD08E00E98002805D1C6
:1013D0001648214602683046FFF7EEFD04984006A5
:1013E000000E0490641C7F2C01D909B0F0BD029856
:1013F000211A0898814205D1029C761C3F2E00D903
:10140000F3E706E00398401CC0B203900398082855
:10141000CFDB00BF681CC5B201988542B6DB00BFB8
:10142000E3E70000AC4500080800002004000020AD
:10143000FFB583B004460E460D9F0C9DE0B20290AE
:101440000598001905900698801906901AE00598ED
:10145000844201D3029C76190698864200D317E095
:10146000012000903A782B4631462046FFF7F4FEE3
:10147000122D01D1083404E02846E90F091849105B
:101480000C197F1C38787E2802DC38782028DEDAB8
:1014900000BF07B0F0BD0000F8B5054600242F4698
:1014A000002607E06006040EF807C00F04437F1013
:1014B000701CC6B2032EF5DB2846F8210840044311
:1014C00002211148FFF772FCFF2101310920C006FB
:1014D000FFF76EFC0920C006808AFF210902084040
:1014E0000921C90688820846808A20438882FF2114
:1014F00001310920C006FFF759FCFF210131092005
:10150000C006FFF755FCF8BD00040048F3B583B0F2
:1015100007460025002602970498019000240AE05F
:101520006806050E0298C007C00F054302984010D8
:101530000290601CC4B2032CF2DB00240AE07006A7
:10154000060E0198C007C00F064301984010019095
:10155000601CC4B2032CF2DB3846F8210840054376
:1015600004980840064302212148FFF721FCFF218F
:1015700001310920C006FFF71BFC0920C006808A44
:10158000FF21090208400921C90688820846808A8D
:1015900028438882FF2101310920C006FFF706FC9D
:1015A000FF2101310920C006FFF702FCFF210131B4
:1015B0000920C006FFF7FCFB0920C006808AFF2136
:1015C000090208400921C90688820846808A3043FA
:1015D0008882FF2101310920C006FFF7E7FBFF21C8
:1015E00001310920C006FFF7E3FB05B0F0BD0000A4
:1015F00000040048F8B5054600242F46002607E001
:101600006006040EF807C00F04437F10701CC6B2BA
:10161000032EF5DB2846F821084004430221114837
:10162000FFF7C6FBFF2101310920C006FFF7C0FB11
:101630000920C006808AFF21090208400921C90645
:1016400088820846808A20438882FF210131092050
:10165000C006FFF7ABFBFF2101310920C006FFF7F1
:10166000A7FBF8BD00040048F8B504460D46164631
:101670001F462A20FFF710FF0020FFF7BBFF611C69
:10168000C8B2FFF7B7FF0020FFF7B4FF711CC8B264
:10169000FFF7B0FF2B20FFF7FFFE0020FFF7AAFFA8
:1016A000A91CC8B2FFF7A6FF0020FFF7A3FFB91CD3
:1016B000C8B2FFF79FFF2C20FFF7EEFEF8BD000039
:1016C0000EB50620154948700120154908701F20E5
:1016D000C0020121032212230092019102904022B4
:1016E0000021084601F0BCFF00221146104600F020
:1016F00053FB1F221221002000F01EFE1F22242176
:10170000002000F071FB1F2236210020FEF7B4FEFE
:101710001F224821002000F07FFB0EBDD6000020D4
:10172000D80000200EB516201B49487001201B4927
:10173000087001F043FE1F20C00201210322122382
:1017400000920191029040220021084601F088FF9A
:10175000002211461046FEF737FE1F2212210020FC
:1017600000F0B2F81F2224210020FFF7B5F91F2254
:101770003621002001F02CFE1F2248210020FFF717
:1017800003FA1F225A210020FEF74AFE1F226C2175
:10179000002000F0C5F80EBDD6000020D8000020C3
:1017A0000EB50D201B49487001201B49087001F03F
:1017B00005FE1F20C0020121032212230092019185
:1017C000029040220021084601F04AFF0022114603
:1017D000104600F031FC1F221221002000F044FCD2
:1017E0001F222421002000F057FC1F223621002058
:1017F00000F06AFC1F224821002000F07DFC1F221F
:101800005A21002000F090FC1F226C21002000F0E3
:10181000A3FC0EBDD6000020D80000200EB50B2082
:101820000C4948701F20C00201210322122300929C
:101830000191029040220021084601F011FF002290
:1018400011461046FFF73EFA1F2212210020FFF733
:101850000DFA0EBDD60000200EB501201849087003
:101860000020184948701F20C002012103221223C2
:1018700000920191029040220021084601F0F0FE02
:10188000002211461046FEF701FF1F221221002000
:1018900001F0EEFD1F2224210020FEF7EDFF1F22A4
:1018A00036210020FEF71EFF1F224821002000F0F5
:1018B00095FB1F225A210020FFF77EFA0EBD000083
:1018C000D8000020D6000020F8B504460E46154684
:1018D0001248056001201023462231460090204620
:1018E000FFF746FD01201023362231460090E01814
:1018F000FFF73EFD0120102338223146009020469C
:101900002030FFF735FD01201023412231460090A1
:1019100020463030FFF7A0FCF8BD00000800002092
:10192000F8B504460E4615461248056001201023FE
:101930004622314600902046FFF71AFD0120102371
:10194000362231460090E018FFF712FD01201023E7
:1019500038223146009020462030FFF709FD012053
:10196000102342223146009020463030FFF774FCAD
:10197000F8BD00000800002010B5002001F020FE96
:101980000E480078030001F0A9FD0705080B0E11B1
:1019900014151600FFF760FF0EE0FFF701FF0BE0E4
:1019A000FFF7C0FE08E0FFF739FF05E0FFF788FE0C
:1019B00002E001E000E000BF00BF10BDD600002043
:1019C0000EB5002001F0FCFD1F220021084600F0AA
:1019D000EBFA1F2212210020FEF7EEFF1F22242126
:1019E0000020FEF72FFF1F2236210020FFF724F9E9
:1019F0001F224821002000F0A1F91F225A210020B7
:101A0000FEF718FE1F226C210020FFF7FBF9494862
:101A10000078030001F062FD0705182B3E64517742
:101A20008A001F20C002012103221223009201918B
:101A3000029040220021084601F012FE00221146C9
:101A4000104600F0B1FA72E01F20C002012103220B
:101A5000122300920191029040221946002001F0C9
:101A6000FFFD002212211046FEF7A6FF5FE01F20B7
:101A7000C002012103221223009201910290402210
:101A80002421002001F0ECFD002224211046FEF765
:101A9000D9FE4CE01F20C002012103221223009234
:101AA0000191029040223621002001F0D9FD002250
:101AB00036211046FFF7C0F839E01F20C00201218F
:101AC000032212230092019102904022482100201B
:101AD00001F0C6FD00224821104600F02FF926E053
:101AE0001F20C002012103221223009201910290C3
:101AF00040225A21002001F0B3FD00225A21104655
:101B0000FEF798FD13E01F20C002012103221223DB
:101B100000920191029040226C21002001F0A0FD72
:101B200000226C211046FFF76DF900E000BF00BFF6
:101B30000EBD0000D600002010B529480078030033
:101B400001F0CCFC07050F1923372D414B00012074
:101B500023490870234B244A12210020FEF7C0FCC1
:101B60003CE002201E490870204B1E4A242112200E
:101B7000FEF7B6FC32E00320194908701C4B1B4AE3
:101B800036212420FEF7ACFC28E00520144908701B
:101B9000184B174A48213620FEF7A2FC1EE004200D
:101BA0000F490870144B134A5A214820FEF798FC3D
:101BB00014E006200A490870104B0F4A6C215A2085
:101BC000FEF78EFC0AE0002005490870064B0B4A20
:101BD00000216C20FEF784FC00E000BF00BF10BDB8
:101BE000D6000020B9090008A91F00084508000810
:101BF000390C00083D1D000835060008050E0008D8
:101C000010B529480078030001F068FC07050F199A
:101C100023372D414B00062023490870234B244ACB
:101C20006C210020FEF75CFC3CE000201E4908709F
:101C30001F4B204A00211220FEF752FC32E0012007
:101C4000194908701B4B1C4A12212420FEF748FC3E
:101C500028E0022014490870174B184A2421362026
:101C6000FEF73EFC1EE003200F490870134B144A98
:101C700036214820FEF734FC14E005200A4908709C
:101C80000F4B104A48215A20FEF72AFC0AE0042094
:101C9000054908700B4B054A5A216C20FEF720FCC1
:101CA00000E000BF00BF10BDD6000020050E0008F8
:101CB000A91F0008B909000845080008390C0008E8
:101CC0003D1D0008350600080EB5002019490870B2
:101CD0001F20C002012103221223009201910290D1
:101CE00040220021084601F0BBFC002211461046AC
:101CF00000F05AF91F2212210020FEF75DFE1F227C
:101D000024210020FEF79EFD1F2236210020FEF731
:101D100093FF1F224821002000F010F81F225A21B3
:101D20000020FEF787FC1F226C210020FFF76AF8D5
:101D30000EBD0000D600002070470000F8B5044634
:101D40000E46154612480560012010232422314614
:101D500000902046FFF70CFB012010230A22314699
:101D60000090E018FFF704FB0120102326223146E3
:101D7000009020462030FFF7FBFA01201023282294
:101D80003146009020463030FFF7F2FAF8BD0000EF
:101D900008000020704700007CB505460E4614463A
:101DA0000648046006A010210B46382200910190DD
:101DB00031462846FFF73CFB7CBD000008000020B0
:101DC0005072654761696E00002905D0054A526965
:101DD0000243044B5A6104E0024A52698243014BB8
:101DE0005A617047001002407CB505460E46144605
:101DF0000648046006A010210B462822009101909D
:101E000031462846FFF714FB7CBD00000800002087
:101E1000526174696F0000007CB505460E46144699
:101E20000648046006A010210B463822009101905C
:101E300031462846FFF7FCFA7CBD00000800002070
:101E400052656C656173650010B5244840780300E5
:101E500001F044FB06040E18222C364001201F49D5
:101E600048701F4B1F4A12210020FEF739FB32E059
:101E700002201A4948701C4B194A24211220FEF7EF
:101E80002FFB28E0032015494870184B164A3621CD
:101E90002420FEF725FB1EE0042010494870144B57
:101EA000124A48213620FEF71BFB14E005200B499F
:101EB0004870104B0E4A5A214820FEF711FB0AE0E9
:101EC000002006494870074B0A4A00215A20FEF7B5
:101ED00007FB00E000BF00BF10BD0000D6000020DF
:101EE000713400088D06000879080008E50600082E
:101EF000DD1F0008B90D000810B524484078030024
:101F000001F0ECFA06040E18222C364005201F4979
:101F100048701F4B1F4A5A210020FEF7E1FA32E0B9
:101F200000201A4948701B4B1B4A00211220FEF763
:101F3000D7FA28E0012015494870174B174A12219B
:101F40002420FEF7CDFA1EE0022010494870134B02
:101F5000134A24213620FEF7C3FA14E003200B496C
:101F600048700F4B0F4A36214820FEF7B9FA0AE0B5
:101F70000420064948700B4B054A48215A20FEF7B9
:101F8000AFFA00E000BF00BF10BD0000D600002087
:101F9000B90D00088D0600087134000879080008A2
:101FA000E5060008DD1F0008F8B504460E46154694
:101FB0000948056001201023002231460090204688
:101FC000FFF7D6F901201023022231460090E018D5
:101FD000FFF7CEF9F8BD000008000020F8B5044670
:101FE0000E46154612480560012010230022314696
:101FF00000902046FFF7BCF9012010230222314651
:102000000090E018FFF7B4F9012010233822314680
:10201000009020462030FFF7ABF9012010233E222C
:102020003146009020463030FFF7A2F9F8BD00009D
:1020300008000020704700007CB505460E46144697
:102040000648046006A010210B4620220091019052
:1020500031462846FFF7ECF97CBD0000080000205F
:1020600053656731000000007CB505460E461446F6
:102070000648046006A010210B4620220091019022
:1020800031462846FFF7D4F97CBD00000800002047
:1020900053656732000000007CB505460E461446C5
:1020A0000648046006A010210B46202200910190F2
:1020B00031462846FFF7BCF97CBD0000080000202F
:1020C00053656733000000007CB505460E46144694
:1020D0000648046006A010210B46202200910190C2
:1020E00031462846FFF7A4F97CBD00000800002017
:1020F00053656734000000007CB505460E46144663
:102100000648046006A010210B4620220091019091
:1021100031462846FFF78CF97CBD000008000020FE
:1021200053656735000000007CB505460E46144631
:102130000648046006A010210B4620220091019061
:1021400031462846FFF774F97CBD000008000020E6
:1021500053656736000000007CB505460E46144600
:102160000648046006A010210B4620220091019031
:1021700031462846FFF75CF97CBD000008000020CE
:1021800053656737000000007CB505460E461446CF
:102190000648046006A010210B4620220091019001
:1021A00031462846FFF744F97CBD000008000020B6
:1021B00053656738000000007CB505460E4614469E
:1021C0000648046006A010210B46202200910190D1
:1021D00031462846FFF72CF97CBD0000080000209E
:1021E00053656739000000000CB500200190009095
:1021F0004E4800680121090408434C49086000BFAB
:102200004A48006801214904084000900198401C98
:1022100001900098002803D1454901988842EFD1E8
:1022200042480068012149040840002802D00120EA
:10223000009001E000200090009801283AD1112080
:102240003C49086039484068384948600846406859
:102250004860084640687F21C90388433349486085
:10226000084640681121090408433049486008467F
:1022700000680121090608432C49086000BF2B486B
:1022800000680121490608400028F8D02748406826
:1022900080088000254948600846406802210843BC
:1022A0002249486000BF214840680C2108400828A6
:1022B000F9D139E011201F4908601C4840681B49CA
:1022C0004860084640684860084640687F21C90366
:1022D000884316494860084640680521C9040843F8
:1022E00012494860084600680121090608430F4961
:1022F000086000BF0D480068012149060840002819
:10230000F8D00A48406880088000084948600846BC
:102310004068022108430549486000BF03484068FF
:102320000C2108400828F9D10CBD00000010024023
:10233000FFE10000002002407CB505460E46144631
:102340000648046006A010210B4628220091019047
:1023500031462846FFF76CF87CBD000008000020DD
:1023600053686F6C6400000010B524480078801E2C
:10237000030001F0B3F806040E18222C3640172093
:102380001F4948701F4B204A12210020FEF7A8F871
:1023900032E018201A4948701C4B1A4A2421122096
:1023A000FEF79EF828E0192015494870184B174A87
:1023B00036212420FEF794F81EE01A2010494870B8
:1023C000144B134A48213620FEF78AF814E01B20EC
:1023D0000B494870104B0F4A5A214820FEF780F8ED
:1023E0000AE01C20064948700C4B0B4A6C215A200D
:1023F000FEF776F800E000BF00BF10BDD800002057
:10240000D6000020C9180008C9030008D90A00082E
:10241000D1330008890B00082104000821190008A5
:102420000EB542480078082836D1002001F0C8F8DF
:102430001D203F4948701F20C002012103221223A2
:1024400000920191029040226C21002001F008F9D5
:1024500000226C211046FEF76BFB1F225A21002040
:10246000FFF75EFA1F2248210020FDF7D9FF1F2247
:1024700036210020FEF788FB1F222421002000F0D7
:10248000A7FF1F2212210020FEF726FB1F2200219A
:102490000846FFF719FA47E024480078801E030039
:1024A00001F01CF806040E18222C36401820204992
:1024B0004870204B204A12210020FEF711F832E02C
:1024C00019201B4948701D4B1A4A24211220FEF77F
:1024D00007F828E01A2016494870194B174A362188
:1024E0002420FDF7FDFF1EE01B2011494870154B0D
:1024F000134A48213620FDF7F3FF14E01C200C4955
:102500004870114B0F4A5A214820FDF7E9FF0AE0B5
:102510001D20074948700D4B0B4A6C215A20FDF7CE
:10252000DFFF00E000BF00BF0EBD0000D8000020AC
:10253000D6000020D90A0008C9180008D1330008C5
:10254000890B00082104000821190008310B00083C
:102550000EB542480078082836D1002001F030F846
:102560001E203F4948701F20C00201210322122370
:1025700000920191029040226C21002001F070F83D
:1025800000226C21104600F04BFF1F225A21002030
:10259000FEF7CEFA1F2248210020FFF7C1F91F22C3
:1025A00036210020FDF73CFF1F2224210020FEF7EA
:1025B000EBFA1F221221002000F00AFF1F22002147
:1025C0000846FEF789FA47E024480078801E030099
:1025D00000F084FF06040E18222C364019202049F2
:1025E0004870204B204A12210020FDF779FF32E08D
:1025F0001A201B4948701D4B1A4A24211220FDF74E
:102600006FFF28E01B2016494870194B174A3621E6
:102610002420FDF765FF1EE01C2011494870154B72
:10262000134A48213620FDF75BFF14E01D200C49BA
:102630004870114B0F4A5A214820FDF751FF0AE01C
:102640001E20074948700D4B0B4A6C215A20FDF79C
:1026500047FF00E000BF00BF0EBD0000D800002013
:10266000D6000020D1330008D90A0008890B0008E1
:102670002104000821190008310B0008213400084A
:102680000EB54548007808283CD144480078012818
:1026900038D1002000F094FF1F2041494870C0024B
:1026A00001210322122300920191029040226C2109
:1026B000002000F0D5FF00226C211046FEF790FAB2
:1026C0001F225A21002000F0ABFE1F2248210020CB
:1026D000FEF72EFA1F2236210020FFF721F91F22D4
:1026E00024210020FDF79CFE1F2212210020FEF76E
:1026F0004BFA1F220021084600F06AFE00202749FD
:10270000087047E024480078801E030000F0E6FED1
:1027100006040E18222C36401A2021494870214BFD
:10272000214A12210020FDF7DBFE32E01B201C496C
:1027300048701E4B1B4A24211220FDF7D1FE28E0D1
:102740001C20174948701A4B184A36212420FDF7DF
:10275000C7FE1EE01D2012494870164B144A48213E
:102760003620FDF7BDFE14E01E200D494870124BC7
:10277000104A5A214820FDF7B3FE0AE01F200849FD
:1027800048700E4B0C4A6C215A20FDF7A9FE00E060
:1027900000BF00BF0EBD0000D8000020D500002003
:1027A000D6000020890B0008D1330008210400085E
:1027B00021190008310B000821340008E10B000842
:1027C00010B524480078801E030000F087FE060440
:1027D0000E18222C36400E201F4948701F4B204AED
:1027E00012210020FDF77CFE32E00F201A494870CC
:1027F0001C4B1A4A24211220FDF772FE28E01020FB
:1028000015494870184B174A36212420FDF768FEF9
:102810001EE0112010494870144B134A48213620FD
:10282000FDF75EFE14E012200B494870104B0F4A72
:102830005A214820FDF754FE0AE01320064948704B
:102840000C4B0B4A6C215A20FDF74AFE00E000BFFA
:1028500000BF10BDD8000020D6000020692000086D
:102860003920000899200008C9200008F920000834
:1028700029210008592100080EB54248007808288F
:1028800036D1002000F09CFE14203F4948701F20E4
:10289000C0020121032212230092019102904022E2
:1028A0006C21002000F0DCFE00226C211046FFF7B6
:1028B0006BFC1F225A210020FFF74EFC1F224821EB
:1028C0000020FFF731FC1F2236210020FFF714FC07
:1028D0001F2224210020FFF7F7FB1F2212210020D6
:1028E000FFF7DAFB1F2200210846FFF7BDFB47E098
:1028F00024480078801E030000F0F0FD06040E1846
:10290000222C36400F2020494870204B204A1221AB
:102910000020FDF7E5FD32E010201B4948701D4BFB
:102920001A4A24211220FDF7DBFD28E01120164968
:102930004870194B174A36212420FDF7D1FD1EE0BF
:10294000122011494870154B134A48213620FDF7D3
:10295000C7FD14E013200C494870114B0F4A5A214F
:102960004820FDF7BDFD0AE01420074948700D4BD3
:102970000B4A6C215A20FDF7B3FD00E000BF00BFF9
:102980000EBD0000D8000020D600002099200008CD
:1029900069200008C9200008F92000082921000842
:1029A00059210008892100080EB5454800780828FB
:1029B0003DD144480078012839D1002000F000FEC4
:1029C0001520414948701F20C00201210322122313
:1029D00000920191029040226C21002000F040FE04
:1029E00000226C211046FFF7E7FB1F225A2100202E
:1029F000FFF7CAFB1F2248210020FFF7ADFB1F2273
:102A000036210020FFF790FB1F2224210020FFF732
:102A100073FB1F2212210020FFF756FB1F2200210B
:102A20000846FFF739FB00202649087047E0244894
:102A30000078801E030000F051FD06040E18222CC1
:102A40003640102020494870204B214A1221002096
:102A5000FDF746FD32E011201B4948701D4B1B4A13
:102A600024211220FDF73CFD28E012201649487071
:102A7000194B184A36212420FDF732FD1EE01320A1
:102A800011494870154B144A48213620FDF728FD9E
:102A900014E014200C494870114B104A5A21482068
:102AA000FDF71EFD0AE01520074948700D4B0C4A42
:102AB0006C215A20FDF714FD00E000BF00BF0EBDE1
:102AC000D8000020D3000020D6000020C920000834
:102AD00099200008F9200008292100085921000840
:102AE00089210008B92100080EB545480078002862
:102AF0003DD144480078012839D1002000F060FD24
:102B00000D20414948701F20C002012103221223D9
:102B100000920191029040220021084600F0A0FDA1
:102B2000002211461046FFF787FA1F2212210020CB
:102B3000FFF79AFA1F2224210020FFF7ADFA1F2287
:102B400036210020FFF7C0FA1F2248210020FFF79E
:102B5000D3FA1F225A210020FFF7E6FA1F226C2128
:102B60000020FFF7F9FA00202649087047E02448C2
:102B70000078030000F0B2FC0741372D23190F0540
:102B80004100122020494870204B214A5A216C20D4
:102B9000FDF7A6FC32E011201B4948701D4B1B4A73
:102BA00048215A20FDF79CFC28E010201649487067
:102BB000194B184A36214820FDF792FC1EE00F20E1
:102BC00011494870154B144A24213620FDF788FC22
:102BD00014E00E200C494870114B104A1221242099
:102BE000FDF77EFC0AE00D20074948700D4B0C4AAA
:102BF00000211220FDF774FC00E000BF00BF0EBDF5
:102C0000D8000020D3000020D60000202921000891
:102C100059210008F9200008C9200008992000085F
:102C200069200008392000080EB5414800780028C6
:102C300035D100F0C5FC0E203E4948701F20C0026F
:102C400001210322122300920191029040220021CF
:102C5000084600F005FD002211461046FFF704FA71
:102C60001F2212210020FFF717FA1F222421002023
:102C7000FFF72AFA1F2236210020FFF73DFA1F2214
:102C800048210020FFF750FA1F225A210020FFF7A9
:102C900063FA1F226C210020FFF776FA47E02448F0
:102CA0000078030000F01AFC0741372D23190F05A7
:102CB000410013201F4948701F4B204A5A216C20A5
:102CC000FDF70EFC32E012201A4948701C4B1A4ADC
:102CD00048215A20FDF704FC28E0112015494870CE
:102CE000184B174A36214820FDF7FAFB1EE010204A
:102CF00010494870144B134A24213620FDF7F0FB8D
:102D000014E00F200B494870104B0F4A1221242069
:102D1000FDF7E6FB0AE00E20064948700C4B0B4A13
:102D200000211220FDF7DCFB00E000BF00BF0EBD5C
:102D3000D8000020D6000020592100088921000871
:102D400029210008F9200008C9200008992000085E
:102D50006920000810B524480078030000F0BEFB8D
:102D60000741372D23190F05410014201F494870D2
:102D70001F4B204A5A216C20FDF7B2FB32E0132092
:102D80001A4948701C4B1A4A48215A20FDF7A8FBE3
:102D900028E0122015494870184B174A3621482060
:102DA000FDF79EFB1EE0112010494870144B134A9A
:102DB00024213620FDF794FB14E010200B494870C5
:102DC000104B0F4A12212420FDF78AFB0AE00F2046
:102DD000064948700C4B0B4A00211220FDF780FB7E
:102DE00000E000BF00BF10BDD8000020D6000020CA
:102DF00089210008B921000859210008292100086B
:102E0000F9200008C9200008992000080EB545489F
:102E1000007800283DD144480078012839D10020AD
:102E200000F0CEFB1620414948701F20C00201214E
:102E300003221223009201910290402200210846B1
:102E400000F00EFC002211461046FDF7BDFA1F22CD
:102E500012210020FEF738FD1F2224210020FDF75B
:102E60003BFE1F223621002000F0B2FA1F2248212B
:102E70000020FDF789FE1F225A210020FDF7D0FA1D
:102E80001F226C210020FEF74BFD00202649087010
:102E900047E024480078030000F020FB0741372D6D
:102EA00023190F0541001B2020494870204B214A5F
:102EB0005A216C20FDF714FB32E01A201B494870A0
:102EC0001D4B1B4A48215A20FDF70AFB28E0192018
:102ED00016494870194B184A36214820FDF700FB67
:102EE0001EE0182011494870154B144A2421362041
:102EF000FDF7F6FA14E017200C494870114B104A00
:102F000012212420FDF7ECFA0AE016200749487048
:102F10000D4B0C4A00211220FDF7E2FA00E000BF41
:102F200000BF0EBDD8000020D5000020D600002034
:102F30002104000821190008890B0008D13300087A
:102F4000D90A0008C9180008C90300080EB541488D
:102F50000078002835D100F033FB17203E49487037
:102F60001F20C0020121032212230092019102902E
:102F700040220021084600F073FB00221146104653
:102F8000FEF7A2FC1F2212210020FDF7A5FD1F2243
:102F90002421002000F01CFA1F2236210020FDF71A
:102FA000F3FD1F2248210020FDF73AFA1F225A2183
:102FB0000020FEF7B5FC1F226C210020FDF7B8FDB4
:102FC00047E024480078030000F088FA0741372DD5
:102FD00023190F0541001C201F4948701F4B204A30
:102FE0005A216C20FDF77CFA32E01B201A49487008
:102FF0001C4B1A4A48215A20FDF772FA28E01A2081
:1030000015494870184B174A36214820FDF768FAD1
:103010001EE0192010494870144B134A2421362011
:10302000FDF75EFA14E018200B494870104B0F4A68
:1030300012212420FDF754FA0AE0172006494870AF
:103040000C4B0B4A00211220FDF74AFA00E000BFAA
:1030500000BF0EBDD8000020D600002021190008B6
:10306000310B000821040008890B0008D133000847
:10307000D90A0008C91800080EB541480078002890
:1030800035D100F09DFA18203E4948701F20C0023B
:10309000012103221223009201910290402200217B
:1030A000084600F0DDFA002211461046FDF714FD37
:1030B0001F221221002000F08BF91F222421002062
:1030C000FDF762FD1F2236210020FDF7A9F91F221E
:1030D00048210020FEF724FC1F225A210020FDF782
:1030E00027FD1F226C21002000F09AF947E02448B8
:1030F0000078030000F0F2F90741372D23190F057E
:1031000041001D201F4948701F4B204A5A216C2046
:10311000FDF7E6F932E01C201A4948701C4B1A4AA8
:1031200048215A20FDF7DCF928E01B20154948709A
:10313000184B174A36214820FDF7D2F91EE01A2015
:1031400010494870144B134A24213620FDF7C8F962
:1031500014E019200B494870104B0F4A122124200B
:10316000FDF7BEF90AE01820064948700C4B0B4ADF
:1031700000211220FDF7B4F900E000BF00BF0EBD32
:10318000D8000020D6000020310B000821340008B0
:103190002119000821040008890B0008D133000818
:1031A000D90A000810B524480078030000F096F909
:1031B0000741372D23190F0541001E201F49487074
:1031C0001F4B204A5A216C20FDF78AF932E01D205E
:1031D0001A4948701C4B1A4A48215A20FDF780F9B9
:1031E00028E01C2015494870184B174A3621482002
:1031F000FDF776F91EE01B2010494870144B134A66
:1032000024213620FDF76CF914E01A200B49487090
:10321000104B0F4A12212420FDF762F90AE0192011
:10322000064948700C4B0B4A00211220FDF758F953
:1032300000E000BF00BF10BDD8000020D600002075
:1032400021340008E10B0008310B000821190008A7
:1032500021040008890B0008D133000810B50D487F
:103260000078030000F03AF90504070A0D10130076
:10327000FEF7EAFD0CE0FDF72BFB09E0FDF75EFA37
:1032800006E0FDF7DDFB03E0FDF73CF900E000BFE1
:1032900000BF10BDD600002010B50D480078030017
:1032A00000F01CF90504070A0D101300FEF724FEB8
:1032B0000CE0FDF747FB09E0FDF782FA06E0FDF7B9
:1032C000E5FB03E0FDF76AF900E000BF00BF10BDB9
:1032D000D6000020042806D10649096904221143BA
:1032E000044A116105E00349096904229143014A36
:1032F0001161704700E000E07047000010B51B4806
:1033000000680121084319490860084640681849C7
:1033100008401649486008460068164908401349A5
:103320000860084600680121890488430F49086045
:10333000084640683F21090488430C494860084614
:10334000C06A00090001C8620846006BFF215431C1
:103350008843064908630846406B400840004863BC
:1033600000208860FEF740FF10BD00000010024002
:103370000CB8FF08FFFFF6FE10B50121034800F06E
:103380000AF80121014800F003F810BD00040040D4
:10339000CA430282704730B5024600200023002451
:1033A000158A0D402B4695890D402C46002B03D0E5
:1033B000002C01D0012000E0002030BD0120024996
:1033C0000870024908707047D2000020D400002025
:1033D0007CB504460E4615460E48056001201023B4
:1033E0003022314600902046FDF7C2FF0120102315
:1033F0004E2231460090E018FDF7BAFF06A01021DA
:103400000B462022009101903146A018FEF710F8DB
:103410007CBD0000080000204F75744100000000D2
:103420007CB504460E4615460E4805600120102363
:103430003022314600902046FDF79AFF01201023EC
:103440004E2231460090E018FDF792FF06A01021B1
:103450000B462022009101903146A018FDF7E8FFAD
:103460007CBD0000080000204F7574420000000081
:10347000F8B504460E461546124805600120102393
:103480003422314600902046FDF772FF01201023C0
:103490000A2231460090E018FDF76AFF0120102350
:1034A00030223146009020462030FDF761FF012098
:1034B00010234E223146009020463030FDF758FF51
:1034C000F8BD00000800002010B504462104080ED5
:1034D000FEF790F8E0B2FEF78DF810BD30B47446F8
:1034E000641E2578641CAB4204D3635D5B00E31863
:1034F00030BC18471D46F8E710B504460420C04309
:10350000FFF7E8FEE117490F0919C91049B2064A49
:1035100011701146002008567D21C900484300B2B1
:103520000249088010BD00000000002002000020B9
:1035300070B50646872189003046FCF743FEC4B2C9
:10354000872189003046FCF73DFE0D4605E08720C7
:10355000800000F00BF8601EC4B2002CF7D1002DE3
:1035600002D0284600F002F870BD00000146124A61
:103570000023D35E0A465A43104B5A6100229A61D7
:103580001A46126901231A430C4B1A6100BF0B4AF9
:103590001069C207D20F002A04D00122120402408F
:1035A000002AF4D0054A126952085200034B1A61EE
:1035B00000229A61704700000200002000E000E055
:1035C00070B504467F233F2200210846FEF74CF8E1
:1035D00000250AE0002605E0E1B22204100EFDF706
:1035E00095FF761C402EF7D36D1C802DF2D370BD55
:1035F000FFB585B00024109D109D680003210F1AAF
:103600002AE01298002810D026460BE00F99119856
:1036100001AA52C204900E98009005A80FC800F0AD
:1036200003F9761CAE42F1DD0AE00F99119801AA68
:1036300032C204900E98009005A80FC800F0F4F86C
:10364000641C002F03DAA000801DC71904E0601B72
:1036500080000A30C7196D1EAC42D2DD09B0F0BD42
:10366000FFB587B007460E46109C00250A98C00794
:10367000C00F002802D00A98451C00E00A9D11984E
:10368000002845D012986B08610000900998421AF2
:1036900038193146069000F05DF912986B08610008
:1036A00000900998421A6808801906903819059008
:1036B000069900F04FF9129800906808031B311921
:1036C0002246384600F046F9129800906808031B1D
:1036D000680881192246384600F03CF9129800909B
:1036E0006808031B311909983818001B22460690F8
:1036F00000F030F9129800906808031B68088119DF
:1037000009983818001B2246069000F023F938E08B
:1037100061000998421A381906903146129B00F050
:10372000FDF861000998421A7019401E0690381978
:103730000590129B069900F0F1F86808021B3119F8
:103740003846129B00F0F8F86808021B68088119D7
:103750003846129B00F0F0F86808021B31190998EE
:103760003818401E0690129B00F0E6F86808021B0D
:103770006808811909983818401E0690129B00F0BD
:10378000DBF8321912991198029401920391049076
:10379000381933193A19314600903846FFF728FF97
:1037A0007019001B401E129A119902940392049101
:1037B0000190381900907019431E3A197019011BB5
:1037C0003846FFF715FF32191299119802940192A9
:1037D0000391049009983818001B401E331900907B
:1037E00009983A183818001B31460690FFF700FF79
:1037F0007019001B401E129A1199029403920491B1
:10380000019009983818001B401E00907019431E43
:1038100009983A187019011B09983818001B06906E
:10382000FFF7E6FE0BB0F0BDFFB583B00EADE0CD07
:103830000C9C0D98801B611902970091019003A8C0
:103840000FC800F049F80D98401BA119029700918C
:10385000019003A80FC800F03FF80D984019A11976
:1038600002970091019003A80FC800F035F80D9859
:103870008019611902970091019003A80FC800F008
:103880002BF80D988019611B02970091019003A8F5
:103890000FC800F021F80D984019A11B0297009164
:1038A000019003A80FC800F017F80D98401BA11B4A
:1038B00002970091019003A80FC800F00DF80D9831
:1038C000801B611B02970091019003A80FC800F0B4
:1038D00003F807B0F0BD0000FFB581B006460F4603
:1038E0000B9D0A9C0398844213D8B44211D30498C8
:1038F00085420ED8BD420CD30748006800900649A7
:103900000C98086029462046FDF746FB02490098BE
:10391000086005B0F0BD000008000020F8B50446BE
:103920000D4616461F46A019421E2B462946204624
:103930000097FDF74FFBF8BDF8B504460D46164657
:103940001F46A819431E2246294620460097FDF728
:1039500041FBF8BDF8B506460F4614461D46002C3F
:1039600001D0002D00D1F8BD069800907819431EB3
:103970003019421E39463046FDF72CFB00BFF2E7F6
:103980000EB53020FFF7B8FDFDF768FAFDF764FBD0
:10399000012149020920C006FDF70AFA0020FFF7BD
:1039A0000FFEFEF791F96846FDF728FA23E0FDF7D0
:1039B00091FA04462300FFF791FD080507090B0D56
:1039C0000F11131500BF0EE000BF0CE000BF0AE0AE
:1039D00000BF08E000BF06E000BF04E000BF02E057
:1039E00000BF00E000BF00BF21466846FCF7FEFFB5
:1039F0005020FFF79DFDDAE7000000000000000006
:103A000000000000000000003F4000000000000037
:103A100000003000400030004000000009000BC0F2
:103A20003D000BC03D00090018C024407FE022404B
:103A300031800000180024C01B000D80324001803E
:103A400003801C4027401C8007400040100060009D
:103A500000000000000000000000000000001F80C7
:103A6000204040200000402020401F800000000037
:103A7000090006001F800600090000000400040081
:103A80003F800400040000000010006000000000FF
:103A90000000000004000400040004000400000012
:103AA000000000400000000000000000002001C0F5
:103AB00006003800400000001F80204020402040C9
:103AC0001F800000000010403FC0004000000000C8
:103AD00018C021402240244018400000108020409F
:103AE000244024401B80000002000D0011003FC054
:103AF000014000003C8024402440244023800000FA
:103B00001F80244024403440038000003000200007
:103B100027C03800200000001B802440244024409F
:103B20001B8000001C0022C0224022401F80000099
:103B3000000000000840000000000000000000003D
:103B40000460000000000000000004000A001100F2
:103B50002080404009000900090009000900000018
:103B600000004040208011000A00040018002000DE
:103B700023402400180000001F80204027402940D7
:103B80001F400000004007C039000F0001C0004086
:103B900020403FC0244024401B8000001F80204064
:103BA000204020403080000020403FC02040204086
:103BB0001F80000020403FC024402E4030C0000045
:103BC00020403FC024402E00300000000F00108035
:103BD000204022403380020020403FC00400040007
:103BE0003FC02040204020403FC0204020400000F7
:103BF0000060202020203FC02000200020403FC047
:103C000024400B0030C0204020403FC020400040F6
:103C1000004000C03FC03C0003C03C003FC000006B
:103C200020403FC00C4023003FC020001F802040A8
:103C3000204020401F80000020403FC0244024003E
:103C4000180000001F802140214020E01FA000003C
:103C500020403FC02440260019C0004018C0244026
:103C60002440224031800000300020403FC02040EE
:103C70003000000020003F80004000403F802000D6
:103C800020003E0001C0070038002000380007C0B7
:103C90003C0007C038000000204039C0060039C091
:103CA000204000002000384007C0384020000000BD
:103CB000304021C02640384020C0000000000000F5
:103CC0007FE0402040200000000070000C000380D6
:103CD000004000000000402040207FE00000000085
:103CE0000000200040002000000000000010001034
:103CF0000010001000100010000000004000000044
:103D000000000000000002800540054003C00040A4
:103D100020003FC0044004400380000000000380F6
:103D2000044004400640000000000380044024409A
:103D30003FC00040000003800540054003400000F4
:103D4000000004401FC0244024402000000002E086
:103D5000055005500650042020403FC00440040098
:103D600003C000400000044027C0004000000000E5
:103D700000100010041027E00000000020403FC0A9
:103D80000140070004C00440204020403FC00040E4
:103D90000040000007C0040007C0040003C000008A
:103DA000044007C00440040003C00040000003803A
:103DB0000440044003800000041007F00450044055
:103DC00003800000000003800440045007F000104E
:103DD000044007C002400400040000000000064048
:103DE0000540054004C00000000004001F8004409E
:103DF00000400000040007800040044007C000406D
:103E00000400070004C0018006000400060001C091
:103E1000070001C006000000044006C0010006C003
:103E2000044000000410071004E0018006000400B4
:103E30000000044005C006400440000000000000EF
:103E400004007BE040200000000000000000FFF0C4
:103E500000000000000040207BE0040000000000A3
:103E600040008000400020002000400000000000D2
:103E70000000000000000000000000000000000042
:103E800000001FCC000C0000000000000000080033
:103E9000300060000800300060000000022003FCD9
:103EA0001E20022003FC1E200220000000000E182D
:103EB00011043FFF10840C78000000000F001084F4
:103EC0000F3800C0077818840078000000780F844D
:103ED00010C411240E9800E4008400080800680053
:103EE0007000000000000000000000000000000062
:103EF000000007E018182004400200000000400203
:103F00002004181807E000000000000002400240F2
:103F100001800FF00180024002400000008000801C
:103F200000800FF800800080008000000001000D7C
:103F3000000E0000000000000000000000000080F3
:103F40000080008000800080008000800000000C65
:103F5000000C00000000000000000000000000064F
:103F6000001800600180060018002000000007F023
:103F7000080810041004080807F0000000000804F6
:103F800008041FFC000400040000000000000E0CE8
:103F900010141024104411840E0C000000000C18A2
:103FA00010041104110412880C700000000000E0DD
:103FB0000320042408241FFC0024000000001F9894
:103FC000108411041104108810700000000007F024
:103FD00008881104110418880070000000001C00FB
:103FE000100010FC13001C001000000000000E3830
:103FF00011441084108411440E38000000000700A2
:10400000088C10441044088807F0000000000000ED
:104010000000030C030C0000000000000000000082
:104020000001010600000000000000000000008008
:1040300001400220041008081004000002200220A1
:1040400002200220022002200220000000001004B2
:1040500008080410022001400080000000000E004B
:104060001200100C106C10800F00000003E00C1800
:1040700013E4142417C4082807D000000004003CEF
:1040800003C41C40074000E4001C000410041FFC93
:104090001104110411040E880070000003E00C18D4
:1040A00010041004100410081C10000010041FFC61
:1040B000100410041004080807F0000010041FFC8E
:1040C0001104110417C410040818000010041FFC88
:1040D0001104110017C010000800000003E00C18C4
:1040E0001004100410441C780040000010041FFC51
:1040F00010840080008010841FFC10040000100455
:1041000010041FFC10041004000000000003000154
:10411000100110011FFE10001000000010041FFC11
:10412000110403801464181C1004000010041FFC08
:104130001004000400040004000C000010041FFC24
:104140001F0000FC1F001FFC1004000010041FFCD7
:104150000C04030000E010181FFC100007F0080812
:10416000100410041004080807F0000010041FFCDD
:1041700010841080108010800F00000007F00818D5
:1041800010241024101C080A07F2000010041FFC61
:104190001104110011C011300E0C000400000E1C9F
:1041A00011041084108410441C3800001800100002
:1041B00010041FFC100410001800000010001FF86D
:1041C00010040004000410041FF8100010001E006A
:1041D00011E0001C007013801C0010001FC0103C78
:1041E00000E01F0000E0103C1FC000001004180C8D
:1041F000163401C001C01634180C100410001C0045
:10420000130400FC13041C00100000000804101C20
:104210001064108413041C04101800000000000037
:1042200000007FFE4002400240020000000030001B
:104230000C0003800060001C00030000000040022E
:10424000400240027FFE000000000000000000006D
:10425000200040004000400020000000000100015C
:104260000001000100010001000100010000400008
:104270004000200000000000000000000000009846
:10428000012401440144014400FC000410001FFC0F
:104290000088010401040088007000000000007024
:1042A000008801040104010400880000000000707F
:1042B00000880104010411081FFC0004000000F83C
:1042C000014401440144014400C80000000001040D
:1042D00001040FFC1104110411001800000000D6A5
:1042E00001290129012901C90106000010041FFC50
:1042F000008401000100010400FC0004000001042E
:10430000190419FC00040004000000000000000370
:1043100000010101190119FE0000000010041FFC3A
:104320000024004001B4010C01040000000010044E
:1043300010041FFC0004000400000000010401FC44
:104340000104010001FC0104010000FC010401FC66
:10435000008401000100010400FC0004000000F8DA
:10436000010401040104010400F80000010101FF3F
:104370000085010401040088007000000000007046
:10438000008801040104010501FF0001010401048A
:1043900001FC00840104010001800000000000CC49
:1043A00001240124012401240198000000000100DF
:1043B000010007F80104010400000000010001F8F9
:1043C000000400040004010801FC00040100018055
:1043D0000170000C001001600180010001F0010C6F
:1043E000003001C00030010C01F0010000000104A8
:1043F000018C00740170018C010400000101018135
:104400000171000E001801600180010000000184AC
:10441000010C013401440184010C00000000000083
:104420000000000001003EFC4002400200000000CD
:1044300000000000FFFF000000000000000040023C
:1044400040023EFC0100000000000000000060008F
:104450008000800040004000200020000000001884
:104460002442424242424242241800000000000816
:104470000E08080808080808083E00000000003C74
:104480004242422020100804427E00000000003C0E
:104490004242201820404042221C00000000002020
:1044A0003028242422227E20207800000000007E74
:1044B0000202021A26404042221C0000000000387E
:1044C0002402021A26424242241800000000007E04
:1044D0002222101008080808080800000000003C0C
:1044E0004242422418244242423C0000000000188C
:1044F0002442424264584040241C00000000002234
:10450000251515152A5854545422000000000000A7
:104510000000007F9292929292B70000000000008B
:104520000000007C42023C40423E0000000000606F
:10453000404040784442424264D800000000001FDE
:104540002222221E22424242221F0000000000E7D7
:10455000424242427E42424242E7000000000000E6
:104560000000007E22100808447E000000000000C9
:1045700000000000FE00000000000000000000003D
:10458000000000384402020244380000000000002D
:10459000080808087F08080808000000000000005C
:1045A000000018180000000018180000082006205D
:1045B000407E318000007F7F491149124912490035
:1045C000497E490949117F110027000000003FF092
:1045D000202020203FF000001FFF100033F0D210F9
:1045E000121013F210011FFE000000000408040C5A
:1045F0000408FFF004100410040008083208D190E9
:104600001022104110021FFC000000000880110061
:1046100023FFC40010082FE9C92A4FFC592A6FE96B
:1046200000080202220123FE220000000000000018
:104630007FFE400440044FE44824482448244FE4CB
:10464000400440047FFE0000000000002001280616
:104650002BF82A402A402A402A40FBC02A402A4000
:104660002A402A402BC0280020000000241024608B
:1046700025807FFFC48044600000089110912922AA
:10468000E65224CC294830500060000002093E71F7
:104690000202FEF21204127802014FF24804581886
:1046A0006BE0480848044FF2400100001190169852
:1046B000F89013FF10A0080013FF2A484A498BFF07
:1046C000480029FA10010BFE08000000000100025A
:1046D00000040008003080C047003800070000C018
:1046E0000030000C00020001000100002000207FCB
:1046F000204020402F5E2952A95269522952295246
:104700002F5E20402041207F200000000201420255
:1047100033FC0002000147FF4491549154914FFD36
:1047200054916495449307FD000100000820062081
:10473000407E318100061FF81201120E1200FF1E8A
:1047400054C154B150835390180E00000820062025
:10475000403E30C0030100061FF8110111C21134A0
:10476000FF081114116215811801000001100110D9
:10477000792F492949494949798F07000180794FA3
:104780004D494B294929791F011000000080008004
:1047900010821086108A109210E2FF82108210821E
:1047A000108A108610830080008000000002200222
:1047B00020022FFE295229522952F95229522952F8
:1047C00029522FFE200220020002000008200620AD
:1047D000407E318000012202267C2A00B200627FE6
:1047E00022002A00267E2301200700003FF020201F
:1047F00020203FF2002207A4F4A894B097A0907F55
:1048000097B094A8F4A407A20022000000001FFFA4
:1048100080006000000000004000400040004000B8
:104820004000400240017FFE0000000000001FFF2A
:104830008000440805C8455045D244047FE8443010
:1048400055C84C1C40017FFF0000000000800100A3
:1048500006001FFFE002200227FE25522552FD52CE
:104860002552255227FE20020002000011021204E8
:1048700014889050502014D0120C110101020E0423
:10488000F1C8103010CC1F021001000000220022DD
:1048900000247FA44928493049207FFF492049301E
:1048A00049287FA400240022002200000200020008
:1048B000220022FF2A922692A292629222922692AD
:1048C0002A9222FF220002000200000001000100E3
:1048D000410041004100410041007FFF4100410093
:1048E00041004100410001000100000008200620B5
:1048F000407E318000227F12490A49FE4902490266
:1049000049FE490A7F1200220002000020012122F4
:1049100023142D1831E40004000227F22012201283
:104920007FF24212C21242120002000000003FFC5D
:104930002108210821083FFC0000080008800860C9
:1049400008020801FFFE0800080000000408040C2B
:10495000FFF8041004101F8090BF54AA12AA1FAAC7
:1049600012AA54AA90BF1F800000000010021082FB
:10497000117E92425442107E104210421042107E2C
:1049800054429242117E10821002000000001FFF6C
:104990008000600000000FF84888488848884FF879
:1049A0004000400240017FFE000000000080010046
:1049B00006001FFFE00000003FFF2102210421004C
:1049C0007F824171C10C4102011F00000200020000
:1049D0000200FFF8041004210442200420183FE0E4
:1049E0002002200120023FFC000000004202520190
:1049F0004BFE56006280030000014FF24804581835
:104A00006BE0480848044FF2400100000002100229
:104A1000108210821082108290825FFE10821082BB
:104A20001082108210821002000200000002000CAE
:104A30003FF124012402270224C4242844104428DE
:104A40004444C582460200010001000002000C003F
:104A5000F1FE10041408181002013AF92A822A847F
:104A6000FEB82A842A823AF9020000000000003EC3
:104A70003E020202020202020202FFFE02020202E1
:104A8000020202023F02003F000000000400040195
:104A900004017DF555555555555555FF55555555F9
:104AA00055557DF504010401040000000100410199
:104AB0004102410C7FF041004100410041004100B2
:104AC0007FFF4100410041000100000000810081A2
:104AD000088288826884088808B00FC008B00888F7
:104AE0002884C88208820081008100000208223CDC
:104AF00023C822082228221D0202080C0870FF8009
:104B00000802080108020FFC000000000082209C3F
:104B100021002100223C24022A02F14228322402F0
:104B20002202210E21202090008C00002000221063
:104B30002190281E2620F0C0200027FC2402F40229
:104B40002442242227C22002201E000000007FFFF2
:104B5000400248824A824A824A827FFE4A824A92C0
:104B60004A8A48F240027FFF000000000001000670
:104B70007FF8400241024102410241025FFE4102D0
:104B800041024122411A41024002000004441CE457
:104B9000E7480C480080310023FF2C002400A4FFCC
:104BA00065922692249224FF340000000003030043
:104BB00000010000000303010102000000030302E2
:104BC000020001000003030303040400EC4B00088F
:104BD000000000205C01000072030008C84C0008BF
:104BE0005C01002064060000F80000084123E00793
:104BF000321F501D0208223C23C822082228221DF1
:104C00000202080C0870FF800802080108020FFC6D
:104C10001582209C2112211015223C24022A02F127
:104C200042283224022202210E21202090228C12BE
:104C300020100C22102190281E2620F0C0204011A8
:104C400027FC2402F4022442242227C22002201E30
:104C500038087FFF400248824A021B7FFE06500A46
:104C6000924A8A48F240027FFF12015F067FF840B5
:104C70000241023B5FFE08200822411A4102400225
:104C8000100904441CE4E7480C481380311423FF46
:104C90002C1224280CA4FF65922692249224FF341F
:104CA0003F1F02030405060147294BE113011C14B1
:104CB00008391B140879190214081399321B085D6E
:084CC00004410A15C124013072
:04000005080000B53A
:00000001FF
