:020000040800F2
:100000003807002029020008DD0D000867030008FA
:10001000D90D0008D10200086B1000080000000094
:10002000000000000000000000000000010E0008B9
:10003000D502000800000000DF0D0008190F0008BD
:10004000430200084302000843020008430200087C
:10005000430200084302000843020008430200086C
:10006000430200084302000843020008430200085C
:10007000430200084302000843020008430200084C
:10008000430200084302000843020008430200083C
:10009000430200084302000843020008430200082C
:1000A000430200084302000843020008430200081C
:1000B000430200084302000843020008430200080C
:1000C00043020008430200084302000843020008FC
:1000D00043020008850F000843020008430200089D
:1000E00043020008430200084302000843020008DC
:1000F00043020008430200084302000843020008CC
:1001000043020008430200084302000843020008BB
:1001100043020008430200084302000843020008AB
:10012000430200084302000843020008430200089B
:10013000430200084302000843020008430200088B
:10014000430200084302000843020008430200087B
:10015000430200084302000843020008430200086B
:10016000430200084302000843020008430200085B
:10017000430200084302000843020008430200084B
:10018000430200084302000800F002F800F03CF8C7
:100190000AA090E8000C82448344AAF10107DA45E2
:1001A00001D100F031F8AFF2090EBAE80F0013F0F8
:1001B000010F18BFFB1A43F0010318479C0F000002
:1001C000BC0F0000103A24BF78C878C1FAD8520793
:1001D00024BF30C830C144BF04680C6070470000C1
:1001E0000023002400250026103A28BF78C1FBD840
:1001F000520728BF30C148BF0B6070471FB500F0E1
:10020000A6FF1FBD10B510BD00F033F81146FFF773
:10021000F5FF00F08FFF00F051F803B4FFF7F2FF95
:1002200003BC00F024FF000009488047094800474C
:10023000FEE7FEE7FEE7FEE7FEE7FEE7FEE7FEE796
:10024000FEE7FEE704480549054A064B70470000F3
:100250001D0F000889010008380100203807002020
:1002600038030020380300207047704770477047FC
:100270007047754600F028F8AE46050069465346BB
:1002800020F00700854618B020B5FFF7DBFFBDE87A
:1002900020404FF000064FF000074FF000084FF0ED
:1002A000000B21F00701AC46ACE8C009ACE8C0097E
:1002B000ACE8C009ACE8C0098D4670470446AFF30E
:1002C00000802046FFF7A9FF00487047D4000020B7
:1002D00000BFFEE77047F0B50A4600210023002466
:1002E00000BF3DE0012505FA01F3156805EA0304A6
:1002F0009C4234D105684F000326BE40B5430560DB
:1003000015794E00B5400668354305601579012D15
:1003100002D01579022D16D185684F000326BE4004
:10032000B543856055794E00B54086683543856094
:10033000456801268E40B5434560456896798E40F4
:10034000B6B235434560C5684F000326BE40B5438D
:10035000C560D5794E00B540C6683543C560491CB7
:100360001029BFD3F0BD00BFFEE770B5064641F2CD
:100370002C50864223D100214FF4047000F0DAFCA7
:10038000EF2140F2112000F0D5FC002140F21220B4
:1003900000F0D0FC40F28F1140F2132000F0CAFCB4
:1003A000002140F2012000F0C5FC00214FF4007054
:1003B00000F0C0FC40F2022000F0B0FC44E042F249
:1003C000094086421BD1AF21362000F0B3FC00214A
:1003D000372000F0AFFCDB21382000F0ABFC00211F
:1003E000392000F0A7FC0021202000F0A3FC002110
:1003F000212000F09FFC222000F090FC24E042F23B
:100400006F40864220D12A2000F088FC002000F0B6
:1004100079FC002000F076FC002000F073FCEF2057
:1004200000F070FC2B2000F079FC002000F06AFC4A
:10043000002000F067FC012000F064FC8F2000F039
:1004400061FC2C2000F06AFC00240DE0002507E090
:10045000002000F057FC1F2000F054FC681C85B2FF
:10046000F02DF5DB601C84B2852CEFDB00240EE060
:10047000002508E0F82000F045FC4FF4784000F03B
:1004800041FC681C85B2F02DF4DB601C84B2852C25
:10049000EEDB00240EE0002508E0072000F032FC2F
:1004A0004FF4FC6000F02EFC681C85B2F02DF4DBEC
:1004B000601C84B2862CEEDB70BD00001CB50446C7
:1004C00001211A2000F08CFC4FF680700090012072
:1004D0008DF8040000208DF8060003208DF805003B
:1004E00001208DF807006946FA48FFF7F4FE4FF443
:1004F000E06000906946F848FFF7EDFE4FF40040D9
:1005000000906946F548FFF7E6FE0020F4490860D0
:10051000642000F0CDFD0120F249C1F8BC020A20A0
:1005200000F0C6FD0120F0490860F0490860091D8F
:100530000860052000F0BCFD0020ED49C1F89C02D8
:1005400042F26E4084427DD143F2080140F20270D3
:1005500000F0F0FB362140F2057000F0EBFB41F2B9
:10056000132140F20B7000F0E5FB4FF48071012085
:1005700000F0E0FB4FF48071022000F0DBFB302143
:10058000032000F0D7FB40F20221082000F0D2FB4C
:100590000021092000F0CEFB00210C2000F0CAFB56
:1005A00000210F2000F0C6FB00214FF4807000F006
:1005B000C1FB00214FF4817000F0BCFB002140F230
:1005C000031000F0B7FBC82000F072FD41F290115B
:1005D0004FF4807000F0AEFB40F2272140F2011092
:1005E00000F0A8FB322000F063FD1D214FF4817064
:1005F00000F0A0FB322000F05BFD4FF4005140F210
:10060000031000F097FB012140F2812000F092FBE3
:10061000002140F20B2000F08DFB322000F048FD5D
:1006200000214FF4007000F085FB002140F2012012
:1006300000F080FB00214FF4407000F07BFB40F2A3
:10064000022100E090E040F2013000F073FB40F244
:10065000022140F2023000F06DFB40F2022140F234
:10066000053000F067FB40F2022140F2063000F056
:1006700061FB40F2022140F2073000F05BFB40F2E8
:1006800002214FF4427000F055FB40F2022140F28B
:10069000093000F04FFB40F202214FF4437000F0AC
:1006A00049FB40F2022140F20D3000F043FB0021F3
:1006B0004FF4047000F03EFBEF2140F2112000F0F7
:1006C00039FB002140F2122000F034FB40F28F1180
:1006D00040F2132000F02EFB4FF444514FF48060A1
:1006E00000F028FB012140F2014000F023FB002133
:1006F00040F2044000F01EFB00214FF4A06000F027
:1007000019FB002140F2015000F014FB002140F2DF
:10071000025000F00FFB002140F2035000F00AFBF2
:10072000002140F2045000F005FB002140F205508A
:1007300000F000FB1021084600F0FCFA4FF4C06105
:10074000112000F0F7FA0221202000F0F3FA40F225
:100750007311072000F0EEFA40F2022000F0DEFAFA
:10076000142000F0A5FCCBE241F2C71084427DD1F9
:100770003021152000F0DEFA1021112000F0DAFA05
:1007800043F22861102000F0D5FA0521122000F074
:10079000D1FA4FF46461132000F0CCFA282000F065
:1007A00087FC1521122000F0C5FA282000F080FCFB
:1007B00043F22061102000F0BDFA4FF439511320AC
:1007C00000F0B8FA142000F073FC0721302000F08C
:1007D000B1FA40F20261312000F0ACFA4FF48371BB
:1007E000322000F0A7FA40F20541332000F0A2FACF
:1007F00040F20321342000F09DFA40F202613520DE
:1008000000F098FA0721362000F094FA40F20451E3
:10081000372000F08FFA40F60901382000F08AFAFC
:1008200040F60901392000F085FA142000F040FC60
:100830004FF48071012000F07DFA4FF440710220E6
:1008400000F078FA41F23001032000F073FA40F62C
:100850000801082000F06EFA08210A2000F06AFA68
:100860004FF44451602000F065FA00E042E00121BD
:10087000612000F05FFA5421902000F05BFA40F212
:100880000F11922000F056FA40F20151932000F02F
:1008900051FA09219A2000F04DFA1021A32000F00E
:1008A00049FA0121072000F045FA2121072000F034
:1008B00041FA2321072000F03DFA3321072000F000
:1008C00039FA40F23311072000F034FA142000F016
:1008D000EFFB15E200100240000C02400004024051
:1008E000BC824042008040429C024242A08241427F
:1008F0000000424241F22C5084427DD10021084642
:1009000000F018FA4FF48071012000F013FA4FF450
:100910008071022000F00EFA41F23001032000F055
:1009200009FA40F60801082000F004FA0121092024
:1009300000F000FA10210B2000F0FCF900210C203F
:1009400000F0F8F900210F2000F0F4F90121072050
:1009500000F0F0F91121102000F0ECF94FF40071D3
:10096000112000F0E7F94FF44071122000F0E2F995
:1009700040F21E21202000F0DDF940F2022121206A
:1009800000F0D8F94FF48071222000F0D3F94FF431
:100990000041902000F0CEF941F2B0714FF4807028
:1009A00000F0C8F940F2471140F2011000F0C2F91E
:1009B0004FF49C714FF4817000F0BCF94FF440513A
:1009C00040F2031000F0B6F9002140F2071000F0E9
:1009D000B1F901214FF4887000F0ACF900214FF417
:1009E000207000F0A7F9002140F2812000F0A2F968
:1009F000002140F2822000E0E8E000F09BF941F2A3
:100A000011014FF4407000F095F942F2245140F288
:100A1000013000F08FF942F6207140F2023000F010
:100A200089F942F22F0140F2033000F083F942F2DB
:100A300025314FF4417000F07DF941F2101140F280
:100A4000053000F077F940F6046140F2063000F01E
:100A500071F940F20E4140F2073000F06BF90521C8
:100A60004FF4427000F066F9032140F2093000F0C3
:100A700061F940F6047140F20A3000F05BF94FF47E
:100A8000706140F20B3000F055F90F214FF44370C4
:100A900000F050F940F20F4140F20D3000F04AF9F9
:100AA0004FF4407140F20E3000F044F94FF4A06171
:100AB00040F20F3000F03EF94FF454514FF4806093
:100AC00000F038F9012140F2014000F033F9002133
:100AD00040F2044000F02EF9002140F2012000F025
:100AE00029F900214FF4007000F024F900214FF49F
:100AF000047000F01FF9EF2140F2112000F01AF904
:100B0000002140F2122000F015F940F28F1140F25E
:100B1000132000F00FF900214FF4A06000F00AF953
:100B2000002140F2015000F005F9002140F202508E
:100B300000F000F9002140F2035000F0FBF8002122
:100B400040F2045000F0F6F8002140F2055000F0A9
:100B5000F1F800214FF4C06000F0ECF8002140F201
:100B6000066000F0E7F800214FF4DE6000F0E2F8E4
:100B700045F220414FF4FE6000F0DCF8002140F225
:100B8000DE7000F0D7F8DF2140F2F27000F0D2F80A
:100B900040F68E0140F2F37000F0CCF8222140F2D2
:100BA000F47000F0C7F8012140F2F57000F0C2F8CF
:100BB00000214FF4FE6000F0BDF840F273110720F1
:100BC00000F0B8F8962000F073FA99E042F26F4016
:100BD0008442FAD1E92000F0A1F8202000F092F838
:100BE000112000F09BF8642000F062FA3A2000F037
:100BF00095F8552000F086F8D12000F08FF80020FD
:100C000000F080F8652000F07DF81F2000F07AF8F1
:100C1000D02000F083F8072000F074F8072000F0DF
:100C200071F8802000F06EF8362000F077F8402050
:100C300000F068F8C12000F071F8102000F062F8B0
:100C4000102000F05FF8022000F05CF8022000F0B5
:100C500059F8C02000F062F8002000F053F8352069
:100C600000F050F8002000F04DF8002000F04AF8A5
:100C7000012000F047F8022000F044F8C52000F001
:100C80004DF8012000F03EF8D22000F047F8012096
:100C900000F038F8222000F035F8C82000F03EF8C7
:100CA000012000F02FF8522000F02CF8372000F03F
:100CB00029F8102000F026F80D2000F023F801207C
:100CC00000F020F8042000F01DF8512000F01AF880
:100CD000772000F017F8012000F014F8012000F050
:100CE00011F80D2000F00EF8082000F00BF880201D
:100CF00000F008F8002000F005F8292000F00EF8B8
:100D00001CBD000010B50446012003490860E0B294
:100D100000F01AF810BD0000A882414210B5044648
:100D2000002003490860E0B200F00EF810BD00009A
:100D3000A882414230B505460C462846FFF7EEFF33
:100D40002046FFF7DFFF30BD10B5024600231F4CE1
:100D5000236000212EE042FA01F303F0010008298C
:100D600025D2DFE801F004080C1014181C20174BE2
:100D7000203318601BE0154B1C33186017E0134B31
:100D80001833186013E0114B143318600FE00F4B49
:100D9000103318600BE00D4B0C33186007E00B4B61
:100DA0000833186003E0094B1B1D186000BF00BF2B
:100DB0004B1CD9B20829CEDB0023054C236001234C
:100DC000044CC4F8A432014C236010BD9C02424282
:100DD000A48241420080414200BFFEE77047704755
:100DE00029B1064A12680243044B1A6004E0034A20
:100DF00012688243014B1A6070470000303802408D
:100E0000704700000CB50020019000903448006845
:100E100040F480303249086000BF3148006800F477
:100E2000003000900198401C0190009818B901987A
:100E3000B0F5A04FF1D12A48006800F4003010B19D
:100E40000120009001E0002000900098012846D188
:100E500023484030006840F080502149403108600C
:100E60002048006840F440401E4908601C48083093
:100E700000681B49083108600846006840F40040DB
:100E800008600846006840F4A05008601648091F32
:100E90000860081F006840F08070091F086000BFEC
:100EA0000F48006800F000700028F9D040F205708B
:100EB0000E4908600A480830006820F0030008491D
:100EC000083108600846006840F00200086000BF72
:100ED00003480830006800F00C000828F8D10CBD69
:100EE000003802400070004008544007003C0240B7
:100EF000042808D14FF0E021096941F004014FF0C6
:100F0000E022116107E04FF0E021096921F00401BE
:100F10004FF0E022116170477047000010B515488E
:100F2000006840F47000134908601348006840F0FE
:100F300001001149086000200F49083108600E487F
:100F400000680E4908400C4908600D48091D0860FA
:100F5000081F006820F48020091F0860002006494F
:100F60000C310860FFF74EFF4FF0006001498039F7
:100F7000086010BD88ED00E000380240FFFFF6FE7B
:100F80001030002410B540F225511D4800F03EF805
:100F900010B31B4800F064F8C4B21A48008800F48B
:100FA0000040C8B91748008800F4804060B10A2C9E
:100FB00003D000201349088020E01248008840F444
:100FC00000401049088019E00D2C06D10D4800881A
:100FD00040F480400B49088010E00A480088C0F3C4
:100FE0000D0009490C5407480088401C0549088039
:100FF00008460088C72801DD0020088010BD0000D9
:1010000000100140080000200C00002070B50246CE
:10101000002400230025002040F66A16B14200D1CA
:1010200000BFC1F3421501F01F03012606FA03F3C6
:10103000012D02D19689334006E0022D02D1168A95
:10104000334001E0968A33400C12012606FA04F47C
:101050001688344013B10CB1012000E0002070BDAF
:1010600001468888C0F30800704700BFFEE700BF54
:101070007047000010B504466FF00400FFF738FF1A
:10108000E11704EB5171C1F3C701074A1170104613
:10109000007800EB4001C1EBC0104FF6FF7101EA90
:1010A000C0000249088010BD00000020020000209E
:1010B00070B504464FF4077094FBF0F0C6B24FF4DD
:1010C000077094FBF0F100FB114085B205E04FF48E
:1010D000077000F009F8701EC6B2002EF7D115B1E6
:1010E000284600F001F870BD0146114A12884A43B3
:1010F0004FF0E0235A6100229A611A46126942F0C9
:1011000001021A6100BF4FF0E022106900F00102F5
:101110001AB100F48032002AF5D04FF0E0221269B3
:1011200022F001024FF0E0231A6100229A61704719
:1011300002000020A820FFF79DFF42F26F40FFF75A
:10114000BDF942F26F40FFF710F900BFFEE74FF024
:101150004070E1EE100A704778110008000000208E
:101160000C000000C4010008841100080C000020DD
:101170002C070000E0010008000000000000000053
:04118000000000006B
:040000050800018965
:00000001FF
