:020000040800F2
:1000000048070020CD0100086D0900089903000889
:100010006909000875020008EF0B000800000000E5
:10002000000000000000000000000000910900082E
:1000300079020008000000006F090008A50A000806
:10004000E7010008E7010008E7010008E7010008F0
:10005000E7010008E7010008E7010008E7010008E0
:10006000E7010008E7010008E7010008E7010008D0
:10007000E7010008E7010008E7010008E7010008C0
:10008000E7010008E7010008E7010008E7010008B0
:10009000E7010008E7010008E7010008E7010008A0
:1000A000E7010008E7010008E7010008E701000890
:1000B000E7010008E7010008E7010008E701000880
:1000C000E7010008E7010008E7010008E701000870
:1000D000E7010008090B0008E7010008E701000834
:1000E000E7010008E7010008E7010008E701000850
:1000F000E7010008E7010008E7010008E701000840
:10010000E7010008E7010008E7010008E70100082F
:10011000E7010008E7010008E7010008E70100081F
:10012000E7010008E7010008E7010008E70100080F
:1001300000F002F800F03AF80AA090E8000C8244BF
:100140008344AAF10107DA4501D100F02FF8AFF29C
:10015000090EBAE80F0013F0010F18BFFB1A43F0A5
:1001600001031847380B0000580B0000103A24BF59
:1001700078C878C1FAD8520724BF30C830C144BF0C
:1001800004680C607047000000230024002500264E
:10019000103A28BF78C1FBD8520728BF30C148BFEA
:1001A0000B6070471FB51FBD10B510BD00F033F8D0
:1001B0001146FFF7F7FF00F067FD00F051F803B4B8
:1001C000FFF7F2FF03BC00F014FD00000948804770
:1001D00009480047FEE7FEE7FEE7FEE7FEE7FEE729
:1001E000FEE7FEE7FEE7FEE704480549054A064B41
:1001F00070470000A90A00083101000848010020EA
:10020000480700204803002048030020704770473B
:10021000704770477047754600F028F8AE460500F5
:100220006946534620F00700854618B020B5FFF711
:10023000DBFFBDE820404FF000064FF000074FF015
:1002400000084FF0000B21F00701AC46ACE8C009F4
:10025000ACE8C009ACE8C009ACE8C0098D467047FD
:100260000446AFF300802046FFF7A9FF004870471F
:10027000E800002000BFFEE770472DE9F04102468C
:1002800000250026002000230024002791F803C049
:100290000CF00F0591F803C00CF0100CBCF1000F2E
:1002A00003D091F802C04CEA050591F800C0BCF1FA
:1002B000000F31D0146800202BE04FF0010C0CFA35
:1002C00000F3B1F800C00CEA03069E4220D183007F
:1002D0004FF00F0C0CFA03F7BC4305FA03FC4CEA91
:1002E000040491F803C0BCF1280F06D14FF0010CB3
:1002F0000CFA00FCC2F814C00AE091F803C0BCF18B
:10030000480F05D14FF0010C0CFA00FCC2F810C0E8
:10031000401C0828D1D31460B1F800C0BCF1FF0F15
:1003200034DD546800202EE000F1080C4FF0010885
:1003300008FA0CF3B1F800C00CEA03069E4221D182
:1003400083004FF00F0C0CFA03F7BC4305FA03FCD3
:100350004CEA040491F803C0BCF1280F05D100F168
:10036000080C08FA0CF8C2F8148091F803C0BCF12C
:10037000480F07D100F1080C4FF0010808FA0CF8FB
:10038000C2F81080401C0828CED35460BDE8F0812C
:10039000416170470161704700BFFEE730B5002141
:1003A0004FF4047000F0CAF8EF2140F2112000F081
:1003B000C5F8002140F2122000F0C0F840F28F1181
:1003C00040F2132000F0BAF8002140F2012000F0C2
:1003D000B5F800214FF4007000F0B0F840F20220B0
:1003E00000F09EF801201B49086000201A49C1F85E
:1003F000A80100240AE0002504E01F2000F082F894
:10040000681C85B2F02DF8DB601C84B2852CF2DB11
:1004100000240BE0002505E04FF4FC6000F072F8CA
:10042000681C85B2F02DF7DB601C84B2852CF1DBF3
:1004300000240BE0002505E04FF4784000F062F85E
:10044000681C85B2F02DF7DB601C84B2862CF1DBD2
:1004500030BD0000AC0123420000234208B5012159
:100460004FF4FE7000F084FA4EF23370ADF80000E5
:1004700010208DF8030003208DF8020069461C4807
:10048000FFF7FBFE4FF68070ADF800006946194893
:10049000FFF7F3FE4FF47040ADF8000069461648D0
:1004A000FFF7EBFE4FF480511348FFF773FF4FF453
:1004B00000411148FFF76EFF4FF400510E48FFF75F
:1004C00067FF3020ADF8000069460C48FFF7D5FE05
:1004D00010210A48FFF75CFF0220ADF800006946D2
:1004E0000748FFF7CAFE02210548FFF751FF08BD84
:1004F0000014014000180140000C014000100140B0
:100500000008014010B50446012004490860E1B22A
:10051000C4F3072000F01CF810BD0000AC0123421A
:1005200010B50446002004490860E1B2C4F3072076
:1005300000F00EF810BD0000AC01234230B50546B6
:100540000C462846FFF7ECFF2046FFF7DBFF30BDE7
:1005500030B503460A4600243A4D2C6001243A4D3A
:10056000C5F8A04100212CE043FA01F404F0010099
:10057000082923D2DFE801F004080C1014171B1E11
:10058000304C0C34206019E02E4C0834206015E00B
:100590002C4C1434206011E02A4C103420600DE003
:1005A0002A4C20600AE0294C241F206006E0284CD9
:1005B000206003E0254C241D206000BF00BF4C1CC0
:1005C000E1B20829D0DB00212EE042FA01F404F068
:1005D0000100082925D2DFE801F004080C101418E6
:1005E0001C201A4C143C20601BE0184C103C20606E
:1005F00017E0164C1434206013E0144C10342060C3
:100600000FE0124C243C20600BE0104C18342060AA
:1006100007E00C4C0C3C206003E00C4C203C2060BC
:1006200000BF00BF4C1CE1B20829CEDB0024054D01
:10063000083D2C600124044DC5F8A041014D2C60FB
:1006400030BD0000A801234200002342A4812242C1
:100650009401224210B50020BF490860C82000F074
:10066000EDFA0120BD49C1F8B801142000F0E6FA06
:100670000120BB490860091F0860091F08600520A8
:1006800000F0DCFA0020B749C1F8A80100210846B3
:10069000FFF754FF4FF480710120FFF74FFF4FF435
:1006A00080710220FFF74AFF41F230010320FFF77B
:1006B00045FF40F608010820FFF740FF012109200F
:1006C000FFF73CFF10210B20FFF738FF00210C2023
:1006D000FFF734FF00210F20FFF730FF0121072033
:1006E000FFF72CFF11211020FFF728FF4FF40071B6
:1006F0001120FFF723FF4FF440711220FFF71EFF78
:1007000040F21E212020FFF719FF40F20221212094
:10071000FFF714FF4FF480712220FFF70FFF4FF413
:1007200000419020FFF70AFF41F2B0714FF4807052
:10073000FFF704FF40F2471140F20110FFF7FEFE01
:100740004FF49C714FF48170FFF7F8FE4FF4405165
:1007500040F20310FFF7F2FE002140F20710FFF70E
:10076000EDFE01214FF48870FFF7E8FE00214FF401
:100770002070FFF7E3FE002140F28120FFF7DEFE4C
:10078000002140F28220FFF7D9FE41F211014FF41F
:100790004070FFF7D3FE42F2245140F20130FFF7E0
:1007A000CDFE42F6207140F20230FFF7C7FE42F262
:1007B0002F0140F20330FFF7C1FE42F225314FF422
:1007C0004170FFF7BBFE41F2101140F20530FFF718
:1007D000B5FE40F6046140F20630FFF7AFFE40F28E
:1007E0000E4140F20730FFF7A9FE05214FF4427099
:1007F000FFF7A4FE032140F20930FFF79FFE40F609
:10080000047140F20A30FFF799FE4FF4706140F234
:100810000B30FFF793FE0F214FF44370FFF78EFE6E
:1008200040F20F4140F20D30FFF788FE4FF4407167
:1008300040F20E30FFF782FE4FF4A06140F20F301D
:10084000FFF77CFE4FF454514FF48060FFF776FEC3
:10085000012140F20140FFF771FE002140F2044007
:10086000FFF76CFE002140F20120FFF767FE002138
:100870004FF40070FFF762FE00214FF40470FFF7A1
:100880005DFEEF2140F21120FFF758FE002140F2FB
:100890001220FFF753FE40F28F1140F21320FFF7B2
:1008A0004DFE00214FF4A060FFF748FE002140F20A
:1008B0000150FFF743FE002140F20250FFF73EFED9
:1008C000002140F20350FFF739FE002140F20450AE
:1008D000FFF734FE002140F20550FFF72FFE002104
:1008E0004FF4C060FFF72AFE002140F20660FFF7D8
:1008F00025FE00214FF4DE60FFF720FE45F2204187
:100900004FF4FE60FFF71AFE002140F2DE70FFF7A1
:1009100015FEDF2140F2F270FFF710FE40F68E0167
:1009200040F2F370FFF70AFE222140F2F470FFF765
:1009300005FE012140F2F570FFF700FE00214FF4A3
:10094000FE60FFF7FBFD40F273110720FFF7F6FD95
:10095000962000F073F910BDB88121420080214239
:10096000A80123420000234200BFFEE77047704702
:1009700029B1064A92690243044B9A6104E0034A92
:1009800092698243014B9A61704700000010024057
:10099000704710B500F002F810BD00000CB5002043
:1009A000019000903348006840F48030314908607D
:1009B00000BF3048006800F4003000900198401CEF
:1009C0000190009818B90198B0F5A06FF1D12948AD
:1009D000006800F4003010B10120009001E0002018
:1009E00000900098012843D12348006840F010008F
:1009F000214908600846006820F0030008600846A6
:100A0000006840F0020008601A48406819494860D0
:100A10000846406848600846406840F48060486086
:100A20000846406820F47C1048600846406840F45E
:100A3000E81048600846006840F08070086000BF19
:100A40000C48006800F000700028F9D009484068A0
:100A500020F00300074948600846406840F0020063
:100A6000486000BF0348406800F00C000828F9D136
:100A70000CBD00000010024000200240042808D1F4
:100A80004FF0E021096941F004014FF0E0221161CB
:100A900007E04FF0E021096921F004014FF0E02266
:100AA000116170477047000010B51348006840F0AE
:100AB00001001149086008464068104908400E4985
:100AC0004860084600680E4908400B49086008461F
:100AD000006820F4802008600846406820F4FE008A
:100AE00048604FF41F008860FFF753FF4FF000602D
:100AF0000449086010BD0000001002400000FFF82B
:100B0000FFFFF6FE08ED00E010B540F225511D484C
:100B100000F03EF810B31B4800F064F8C4B21A4865
:100B2000008800F40040C8B91748008800F48040ED
:100B300060B10A2C03D000201349088020E012483D
:100B4000008840F400401049088019E00D2C06D1BF
:100B50000D48008840F480400B49088010E00A48A6
:100B60000088C0F30D0009490C5407480088401C58
:100B70000549088008460088C72801DD0020088054
:100B800010BD0000003801401C00002020000020A3
:100B900070B50246002400230025002040F66A16A6
:100BA000B14200D100BFC1F3421501F01F0301267D
:100BB00006FA03F3012D02D19689334006E0022D97
:100BC00002D1168A334001E0968A33400C12012686
:100BD00006FA04F41688344013B10CB1012000E089
:100BE000002070BD01468888C0F30800704700BF30
:100BF000FEE7014600BF704710B56FF00400FFF735
:100C00003DFF0A4800680A49B0FBF1F00949087045
:100C10000846007800EB4001C1EBC0104FF6FF71B1
:100C200001EAC0000449088010BD00000000002057
:100C300000127A0014000020160000200146114A1C
:100C400012884A434FF0E0235A6100229A611A4603
:100C5000126942F001021A6100BF4FF0E0221069F0
:100C600000F001021AB100F48032002AF5D04FF0F2
:100C7000E022126922F001024FF0E0231A61002203
:100C80009A61704716000020FFF7B6FFFFF7E6FBFA
:100C9000FFF7E0FCFFF782FB00BFFEE7BC0C00089B
:100CA00000000020200000006C010008DC0C00089F
:100CB00020000020280700008801000800A24A0444
:100CC00000000000000000000102030406070809FC
:0C0CD00000000000000000000000000018
:04000005080001CD21
:00000001FF
