:020000040800F2
:1000000048070020CD010008910800089903000866
:100010008D08000875020008130B0008000000009E
:10002000000000000000000000000000B50800080B
:10003000790200080000000093080008C9090008C0
:10004000E7010008E7010008E7010008E7010008F0
:10005000E7010008E7010008E7010008E7010008E0
:10006000E7010008E7010008E7010008E7010008D0
:10007000E7010008E7010008E7010008E7010008C0
:10008000E7010008E7010008E7010008E7010008B0
:10009000E7010008E7010008E7010008E7010008A0
:1000A000E7010008E7010008E7010008E701000890
:1000B000E7010008E7010008E7010008E701000880
:1000C000E7010008E7010008E7010008E701000870
:1000D000E70100082D0A0008E7010008E701000811
:1000E000E7010008E7010008E7010008E701000850
:1000F000E7010008E7010008E7010008E701000840
:10010000E7010008E7010008E7010008E70100082F
:10011000E7010008E7010008E7010008E70100081F
:10012000E7010008E7010008E7010008E70100080F
:1001300000F002F800F03AF80AA090E8000C8244BF
:100140008344AAF10107DA4501D100F02FF8AFF29C
:10015000090EBAE80F0013F0010F18BFFB1A43F0A5
:10016000010318475C0A00007C0A0000103A24BF13
:1001700078C878C1FAD8520724BF30C830C144BF0C
:1001800004680C607047000000230024002500264E
:10019000103A28BF78C1FBD8520728BF30C148BFEA
:1001A0000B6070471FB51FBD10B510BD00F033F8D0
:1001B0001146FFF7F7FF00F0F9FC00F051F803B427
:1001C000FFF7F2FF03BC00F0A6FC000009488047DF
:1001D00009480047FEE7FEE7FEE7FEE7FEE7FEE729
:1001E000FEE7FEE7FEE7FEE704480549054A064B41
:1001F00070470000CD0900083101000848010020C7
:10020000480700204803002048030020704770473B
:10021000704770477047754600F028F8AE460500F5
:100220006946534620F00700854618B020B5FFF711
:10023000DBFFBDE820404FF000064FF000074FF015
:1002400000084FF0000B21F00701AC46ACE8C009F4
:10025000ACE8C009ACE8C009ACE8C0098D467047FD
:100260000446AFF300802046FFF7A9FF004870471F
:10027000E800002000BFFEE770472DE9F04102468C
:1002800000250026002000230024002791F803C049
:100290000CF00F0591F803C00CF0100CBCF1000F2E
:1002A00003D091F802C04CEA050591F800C0BCF1FA
:1002B000000F31D0146800202BE04FF0010C0CFA35
:1002C00000F3B1F800C00CEA03069E4220D183007F
:1002D0004FF00F0C0CFA03F7BC4305FA03FC4CEA91
:1002E000040491F803C0BCF1280F06D14FF0010CB3
:1002F0000CFA00FCC2F814C00AE091F803C0BCF18B
:10030000480F05D14FF0010C0CFA00FCC2F810C0E8
:10031000401C0828D1D31460B1F800C0BCF1FF0F15
:1003200034DD546800202EE000F1080C4FF0010885
:1003300008FA0CF3B1F800C00CEA03069E4221D182
:1003400083004FF00F0C0CFA03F7BC4305FA03FCD3
:100350004CEA040491F803C0BCF1280F05D100F168
:10036000080C08FA0CF8C2F8148091F803C0BCF12C
:10037000480F07D100F1080C4FF0010808FA0CF8FB
:10038000C2F81080401C0828CED35460BDE8F0812C
:10039000416170470161704700BFFEE730B5002141
:1003A000502000F0C3F8EF21512000F0BFF80021E9
:1003B000522000F0BBF840F28F11532000F0B6F845
:1003C0000021202000F0B2F80021212000F0AEF83A
:1003D000222000F09DF801201A49086000201A49E7
:1003E000C1F8A80100240AE0002504E01F2000F065
:1003F00081F8681C85B2F02DF8DB601C84B2852C76
:10040000F2DB00240BE0002505E04FF4FC6000F077
:1004100071F8681C85B2F02DF7DB601C84B2852C66
:10042000F1DB00240BE0002505E04FF4784000F0FC
:1004300061F8681C85B2F02DF7DB601C84B2862C55
:10044000F1DB30BDAC0123420000234208B501219D
:100450004FF4FE7000F01EFA4EF23370ADF800005B
:1004600010208DF8030003208DF8020069461C4817
:10047000FFF703FF4FF68070ADF80000694619489A
:10048000FFF7FBFE4FF47040ADF8000069461648D8
:10049000FFF7F3FE4FF480511348FFF77BFF4FF453
:1004A00000411148FFF776FF4FF400510E48FFF767
:1004B0006FFF3020ADF8000069460C48FFF7DDFE05
:1004C00010210A48FFF764FF0220ADF800006946DA
:1004D0000748FFF7D2FE02210548FFF759FF08BD84
:1004E0000014014000180140000C014000100140C0
:1004F0000008014010B50446012004490860E1B23B
:10050000C4F3072000F01CF810BD0000AC0123422A
:1005100010B50446002004490860E1B2C4F3072086
:1005200000F00EF810BD0000AC01234230B50546C6
:100530000C462846FFF7ECFF2046FFF7DBFF30BDF7
:1005400030B503460A4600243A4D2C6001243A4D4A
:10055000C5F8A04100212CE043FA01F404F00100A9
:10056000082923D2DFE801F004080C1014171B1E21
:10057000304C0C34206019E02E4C0834206015E01B
:100580002C4C1434206011E02A4C103420600DE013
:100590002A4C20600AE0294C241F206006E0284CE9
:1005A000206003E0254C241D206000BF00BF4C1CD0
:1005B000E1B20829D0DB00212EE042FA01F404F078
:1005C0000100082925D2DFE801F004080C101418F6
:1005D0001C201A4C143C20601BE0184C103C20607E
:1005E00017E0164C1434206013E0144C10342060D3
:1005F0000FE0124C243C20600BE0104C18342060BB
:1006000007E00C4C0C3C206003E00C4C203C2060CC
:1006100000BF00BF4C1CE1B20829CEDB0024054D11
:10062000083D2C600124044DC5F8A041014D2C600B
:1006300030BD0000A801234200002342A4812242D1
:100640009401224210B500208C490860C82000F0B7
:1006500087FA01208A49C1F8B801142000F080FA15
:10066000012088490860091F0860091F08600520EB
:1006700000F076FA00208449C1F8A8010121FFF7B3
:1006800055FF02212B20FFF751FF142000F068FADC
:1006900000210720FFF74AFF00211220FFF746FF45
:1006A000142000F05DFA4FF454516020FFF73EFF34
:1006B000142000F055FA40F205410820FFF736FFFC
:1006C0004FF4C0619120FFF731FF4FF4E0619220B9
:1006D000FFF72CFF40F247719820FFF727FF00211A
:1006E0000120FFF723FF02213020FFF71FFF40F218
:1006F00006613120FFF71AFF40F207613220FFF751
:1007000015FF01213520FFF711FF40F611113620AA
:10071000FFF70CFF40F205613720FFF707FF40F2BB
:1007200004513820FFF702FF40F207713920FFF72C
:10073000FDFE40F201113C20FFF7F8FE41F61621C4
:100740003D20FFF7F3FE45F6C0211020FFF7EEFE37
:1007500040F247211120FFF7E9FE142000F000FAD3
:1007600041F21A111220FFF7E1FE41F2033113208A
:10077000FFF7DCFE16212920FFF7D8FE142000F039
:10078000EFF900210120FFF7D1FE4FF4E0610220D4
:10079000FFF7CCFE41F230010320FFF7C7FE012135
:1007A0006120FFF7C3FE142000F0DAF91821902031
:1007B000FFF7BCFE00219220FFF7B8FE0021802049
:1007C000FFF7B4FE00218120FFF7B0FE40F28F1149
:1007D0008220FFF7ABFE00218320FFF7A7FE002158
:1007E0008420FFF7A3FE40F28F118520FFF79EFEC5
:1007F00000215020FFF79AFEEF215120FFF796FECF
:1008000000215220FFF792FE40F28F115320FFF794
:100810008DFE45F6C0511020FFF788FE012107200C
:10082000FFF784FE322000F09BF921210720FFF71B
:100830007DFE322000F094F923210720FFF776FE99
:10084000322000F08DF933210720FFF76FFE3220B0
:1008500000F086F940F233110720FFF767FE3220DF
:1008600000F07EF900212020FFF760FE002121200A
:10087000FFF75CFE2220FFF74BFE10BDB88121423E
:1008800000802142A80123420000234200BFFEE76E
:100890007047704729B1064A92690243044B9A6136
:1008A00004E0034A92698243014B9A617047000059
:1008B00000100240704710B500F002F810BD0000B3
:1008C0000CB50020019000903348006840F480305F
:1008D0003149086000BF3048006800F400300090E3
:1008E0000198401C0190009818B90198B0F5A06FCC
:1008F000F1D12948006800F4003010B101200090C7
:1009000001E0002000900098012843D123480068AE
:1009100040F01000214908600846006820F00300FC
:1009200008600846006840F0020008601A48406805
:10093000194948600846406848600846406840F4E5
:10094000806048600846406820F47C104860084693
:10095000406840F4E81048600846006840F0807045
:10096000086000BF0C48006800F000700028F9D053
:100970000948406820F0030007494860084640687D
:1009800040F00200486000BF0348406800F00C00DF
:100990000828F9D10CBD00000010024000200240E0
:1009A000042808D14FF0E021096941F004014FF01B
:1009B000E022116107E04FF0E021096921F0040114
:1009C0004FF0E022116170477047000010B51348E6
:1009D000006840F00100114908600846406810496D
:1009E00008400E494860084600680E4908400B4917
:1009F00008600846006820F48020086008464068C7
:100A000020F4FE0048604FF41F008860FFF753FF9A
:100A10004FF000600449086010BD00000010024063
:100A20000000FFF8FFFFF6FE08ED00E010B540F211
:100A300025511D4800F03EF810B31B4800F064F843
:100A4000C4B21A48008800F40040C8B917480088AA
:100A500000F4804060B10A2C03D0002013490880C4
:100A600020E01248008840F400401049088019E056
:100A70000D2C06D10D48008840F480400B490880B9
:100A800010E00A480088C0F30D0009490C540748DB
:100A90000088401C0549088008460088C72801DDF9
:100AA0000020088010BD0000003801401C0000201C
:100AB0002000002070B502460024002300250020FD
:100AC00040F66A16B14200D100BFC1F3421501F0F1
:100AD0001F03012606FA03F3012D02D19689334044
:100AE00006E0022D02D1168A334001E0968A334097
:100AF0000C12012606FA04F41688344013B10CB126
:100B0000012000E0002070BD01468888C0F3080085
:100B1000704700BFFEE7014600BF704710B56FF099
:100B20000400FFF73DFF0A4800680A49B0FBF1F0F6
:100B3000094908700846007800EB4001C1EBC0107D
:100B40004FF6FF7101EAC0000449088010BD0000A3
:100B50000000002000127A0014000020160000207F
:100B60000146114A12884A434FF0E0235A6100229D
:100B70009A611A46126942F001021A6100BF4FF0F1
:100B8000E022106900F001021AB100F48032002A5C
:100B9000F5D04FF0E022126922F001024FF0E0237D
:100BA0001A6100229A61704716000020FFF7B6FF15
:100BB000FFF74CFCFFF746FDFFF7F0FB00BFFEE739
:100BC000E00B000800000020200000006C0100087D
:100BD000000C000820000020280700008801000801
:100BE00000A24A040000000000000000010203040B
:100BF00006070809000000000000000000000000D7
:04000005080001CD21
:00000001FF
