:020000040800F2
:1000000038070020290200083107000867030008AC
:100010002D070008D1020008BF09000800000000F9
:10002000000000000000000000000000550700086C
:10003000D502000800000000330700086D08000822
:10004000430200084302000843020008430200087C
:10005000430200084302000843020008430200086C
:10006000430200084302000843020008430200085C
:10007000430200084302000843020008430200084C
:10008000430200084302000843020008430200083C
:10009000430200084302000843020008430200082C
:1000A000430200084302000843020008430200081C
:1000B000430200084302000843020008430200080C
:1000C00043020008430200084302000843020008FC
:1000D00043020008D9080008430200084302000850
:1000E00043020008430200084302000843020008DC
:1000F00043020008430200084302000843020008CC
:1001000043020008430200084302000843020008BB
:1001100043020008430200084302000843020008AB
:10012000430200084302000843020008430200089B
:10013000430200084302000843020008430200088B
:10014000430200084302000843020008430200087B
:10015000430200084302000843020008430200086B
:10016000430200084302000843020008430200085B
:10017000430200084302000843020008430200084B
:10018000430200084302000800F002F800F03CF8C7
:100190000AA090E8000C82448344AAF10107DA45E2
:1001A00001D100F031F8AFF2090EBAE80F0013F0F8
:1001B000010F18BFFB1A43F001031847E8080000BD
:1001C00008090000103A24BF78C878C1FAD852074D
:1001D00024BF30C830C144BF04680C6070470000C1
:1001E0000023002400250026103A28BF78C1FBD840
:1001F000520728BF30C148BF0B6070471FB500F0E1
:100200004CFC1FBD10B510BD00F033F81146FFF7D0
:10021000F5FF00F039FC00F051F803B4FFF7F2FFEE
:1002200003BC00F0CEFB00000948804709480047A6
:10023000FEE7FEE7FEE7FEE7FEE7FEE7FEE7FEE796
:10024000FEE7FEE704480549054A064B70470000F3
:1002500071080008890100083801002038070020D3
:1002600038030020380300207047704770477047FC
:100270007047754600F028F8AE46050069465346BB
:1002800020F00700854618B020B5FFF7DBFFBDE87A
:1002900020404FF000064FF000074FF000084FF0ED
:1002A000000B21F00701AC46ACE8C009ACE8C0097E
:1002B000ACE8C009ACE8C0098D4670470446AFF30E
:1002C00000802046FFF7A9FF00487047D4000020B7
:1002D00000BFFEE77047F0B50A4600210023002466
:1002E00000BF3DE0012505FA01F3156805EA0304A6
:1002F0009C4234D105684F000326BE40B5430560DB
:1003000015794E00B5400668354305601579012D15
:1003100002D01579022D16D185684F000326BE4004
:10032000B543856055794E00B54086683543856094
:10033000456801268E40B5434560456896798E40F4
:10034000B6B235434560C5684F000326BE40B5438D
:10035000C560D5794E00B540C6683543C560491CB7
:100360001029BFD3F0BD00BFFEE7000030B501206B
:100370001A49086000201A49C1F89C0200240AE0CA
:10038000002504E01F2000F02FF9681C85B2F02D35
:10039000F8DB601C84B2852CF2DB00240BE0002526
:1003A00005E04FF4784000F01FF9681C85B2F02D8D
:1003B000F7DB601C84B2852CF1DB00240BE0002508
:1003C00005E04FF4FC6000F00FF9681C85B2F02DD9
:1003D000F7DB601C84B2862CF1DB30BDA882414281
:1003E000000042421CB501211A2000F0A3F94FF68B
:1003F0008070009001208DF8040000208DF8060028
:1004000003208DF8050001208DF8070069466E482D
:10041000FFF761FF4FF4E060009069466B48FFF71B
:100420005AFF4FF40040009069466948FFF753FFB8
:10043000002068490860142000F0E4FA01206649B1
:10044000C1F8BC020A2000F0DDFA0120634908600F
:1004500063490860091D0860052000F0D3FA0020F8
:100460006049C1F89C0247F25001152000F0D8F80D
:100470004FF48971112000F0D3F843F26861102025
:1004800000F0CEF80221122000F0CAF840F62B51FD
:10049000132000F0C5F8282000F0B4FA1221084615
:1004A00000F0BEF8282000F0ADFA43F260611020A1
:1004B00000F0B6F842F62B51132000F0B1F81420EA
:1004C00000F0A0FA0721302000F0AAF840F2025113
:1004D000312000F0A5F840F20731322000F0A0F8FA
:1004E00040F20531332000F09BF80421342000F065
:1004F00097F840F20141352000F092F807213620AC
:1005000000F08EF840F20361372000F089F840F6E1
:100510001E61382000F084F840F61E61392000F09A
:100520007FF8142000F06EFA4FF48071012000F083
:1005300077F84FF44071022000F072F841F2300178
:10054000032000F06DF840F20621082000F068F862
:1005500008210A2000F064F84FF44451602000F0B4
:100560005FF80121612000F05BF84621902000F047
:1005700057F840F20F11922000F052F840F201714A
:10058000932000F04DF807219A2000F049F810213F
:10059000A32000F045F80121072000F041F82121B7
:1005A000072000F03DF82321072000F039F833211F
:1005B000072000F035F840F23311072000F030F842
:1005C000142000F01FFA1CBD00100240000C024075
:1005D00000040240BC824042008040429C024242F1
:1005E000A08241420000424210B504460120044965
:1005F0000860E1B2C4F3072000F01CF810BD000051
:10060000A882414210B50446002004490860E1B2C6
:10061000C4F3072000F00EF810BD0000A88241428C
:1006200030B505460C462846FFF7ECFF2046FFF79D
:10063000DBFF30BD2DE9F04102460B4600200021D2
:1006400000270CE04FF6FF7C0CEA400002F0010CA2
:100650004CEA0000521007F1010C1FFA8CF7072F2B
:10066000F0DD00240CE04FF6FF7C0CEA410103F0C2
:10067000010C4CEA01015B1004F1010C1FFA8CF42F
:10068000072CF0DD4FF6FF7C0CEA00200CEA01217C
:100690004FF0000CDFF88880C8F89CC24FF0010CC6
:1006A000DFF88080C8F8A4C2DFF87CC0DCF810C096
:1006B0000CF47F46DFF870C0ACF81A60ACF8180094
:1006C0004FF0000CC8F8A4C24FF0010CC8F8A4C247
:1006D000DFF84C80C8F89CC24FF0000CC8F89CC2F0
:1006E0004FF0010CDFF83C80C8F8A4C2DFF838C036
:1006F000DCF810C00CF47F45DFF82CC0ACF81A50C1
:10070000ACF818104FF0000CC8F8A4C24FF0010C60
:10071000C8F8A4C2DFF80880C8F89CC2BDE8F08120
:1007200000004242008041420010024000BFFEE74C
:100730007047704729B1064A12680243044B1A6099
:1007400004E0034A12688243014B1A6070470000BC
:1007500030380240704700000CB500200190009036
:100760003448006840F480303249086000BF3148A6
:10077000006800F4003000900198401C019000983F
:1007800018B90198B0F5A04FF1D12A48006800F4DB
:10079000003010B10120009001E00020009000988E
:1007A000012846D123484030006840F0805021495C
:1007B000403108602048006840F440401E4908600D
:1007C0001C48083000681B4908310860084600686A
:1007D00040F4004008600846006840F4A0500860FB
:1007E0001648091F0860081F006840F08070091F44
:1007F000086000BF0F48006800F000700028F9D0C2
:1008000040F205700E4908600A480830006820F080
:1008100003000849083108600846006840F00200FB
:10082000086000BF03480830006800F00C0008288A
:10083000F8D10CBD00380240007000400854400759
:10084000003C0240042808D14FF0E021096941F042
:1008500004014FF0E022116107E04FF0E021096947
:1008600021F004014FF0E022116170477047000051
:1008700010B51548006840F470001349086013482B
:10088000006840F001001149086000200F4908315C
:1008900008600E4800680E4908400C4908600D4881
:1008A000091D0860081F006820F48020091F0860E7
:1008B000002006490C310860FFF74EFF4FF0006042
:1008C00001498039086010BD88ED00E00038024021
:1008D000FFFFF6FE1030002410B540F225511D48F0
:1008E00000F03EF810B31B4800F064F8C4B21A4898
:1008F000008800F40040C8B91748008800F4804020
:1009000060B10A2C03D000201349088020E012486F
:10091000008840F400401049088019E00D2C06D1F1
:100920000D48008840F480400B49088010E00A48D8
:100930000088C0F30D0009490C5407480088401C8A
:100940000549088008460088C72801DD0020088086
:1009500010BD000000100140080000200C00002025
:1009600070B50246002400230025002040F66A16D8
:10097000B14200D100BFC1F3421501F01F030126AF
:1009800006FA03F3012D02D19689334006E0022DC9
:1009900002D1168A334001E0968A33400C120126B8
:1009A00006FA04F41688344013B10CB1012000E0BB
:1009B000002070BD01468888C0F30800704700BF62
:1009C000FEE700BF7047000010B504466FF004005A
:1009D000FFF738FFE11704EB5171C1F3C701074A74
:1009E00011701046007800EB4001C1EBC0104FF6CB
:1009F000FF7101EAC0000249088010BD000000201C
:100A00000200002070B504464FF4077094FBF0F02C
:100A1000C6B24FF4077094FBF0F100FB114085B2B1
:100A200005E04FF4077000F009F8701EC6B2002E02
:100A3000F7D115B1284600F001F870BD0146114A02
:100A400012884A434FF0E0235A6100229A611A4605
:100A5000126942F001021A6100BF4FF0E0221069F2
:100A600000F001021AB100F48032002AF5D04FF0F4
:100A7000E022126922F001024FF0E0231A61002205
:100A80009A61704702000020A820FFF79DFFFFF742
:100A9000A9FCFFF76BFC00BFFEE74FF04070E1EEF2
:100AA000100A7047C40A0008000000200C00000073
:100AB000C4010008D00A00080C0000202C07000028
:100AC000E00100080000000000000000000000003D
:040000050800018965
:00000001FF
