:020000040800F2
:1000000038070020290200089D090008670300083E
:1000100099090008D10200082B0C0008000000001C
:10002000000000000000000000000000C1090008FE
:10003000D5020008000000009F090008D90A000846
:10004000430200084302000843020008430200087C
:10005000430200084302000843020008430200086C
:10006000430200084302000843020008430200085C
:10007000430200084302000843020008430200084C
:10008000430200084302000843020008430200083C
:10009000430200084302000843020008430200082C
:1000A000430200084302000843020008430200081C
:1000B000430200084302000843020008430200080C
:1000C00043020008430200084302000843020008FC
:1000D00043020008450B00084302000843020008E1
:1000E00043020008430200084302000843020008DC
:1000F00043020008430200084302000843020008CC
:1001000043020008430200084302000843020008BB
:1001100043020008430200084302000843020008AB
:10012000430200084302000843020008430200089B
:10013000430200084302000843020008430200088B
:10014000430200084302000843020008430200087B
:10015000430200084302000843020008430200086B
:10016000430200084302000843020008430200085B
:10017000430200084302000843020008430200084B
:10018000430200084302000800F002F800F03CF8C7
:100190000AA090E8000C82448344AAF10107DA45E2
:1001A00001D100F031F8AFF2090EBAE80F0013F0F8
:1001B000010F18BFFB1A43F001031847A40B0000FE
:1001C000C40B0000103A24BF78C878C1FAD852078F
:1001D00024BF30C830C144BF04680C6070470000C1
:1001E0000023002400250026103A28BF78C1FBD840
:1001F000520728BF30C148BF0B6070471FB500F0E1
:10020000AAFD1FBD10B510BD00F033F81146FFF771
:10021000F5FF00F095FD00F051F803B4FFF7F2FF91
:1002200003BC00F004FD000009488047094800476E
:10023000FEE7FEE7FEE7FEE7FEE7FEE7FEE7FEE796
:10024000FEE7FEE704480549054A064B70470000F3
:10025000DD0A000889010008380100203807002065
:1002600038030020380300207047704770477047FC
:100270007047754600F028F8AE46050069465346BB
:1002800020F00700854618B020B5FFF7DBFFBDE87A
:1002900020404FF000064FF000074FF000084FF0ED
:1002A000000B21F00701AC46ACE8C009ACE8C0097E
:1002B000ACE8C009ACE8C0098D4670470446AFF30E
:1002C00000802046FFF7A9FF00487047D8000020B3
:1002D00000BFFEE77047F0B50A4600210023002466
:1002E00000BF3DE0012505FA01F3156805EA0304A6
:1002F0009C4234D105684F000326BE40B5430560DB
:1003000015794E00B5400668354305601579012D15
:1003100002D01579022D16D185684F000326BE4004
:10032000B543856055794E00B54086683543856094
:10033000456801268E40B5434560456896798E40F4
:10034000B6B235434560C5684F000326BE40B5438D
:10035000C560D5794E00B540C6683543C560491CB7
:100360001029BFD3F0BD00BFFEE7000030B500216B
:100370004FF4047000F0B2FAEF2140F2112000F0C7
:10038000ADFA002140F2122000F0A8FA40F28F11DD
:1003900040F2132000F0A2FA002140F2012000F008
:1003A0009DFA00214FF4007000F098FA40F202200C
:1003B00000F086FA01201B49086000201A49C1F8A4
:1003C0009C0200240AE0002504E01F2000F06AFAE5
:1003D000681C85B2F02DF8DB601C84B2852CF2DB42
:1003E00000240BE0002505E04FF4784000F05AFAB5
:1003F000681C85B2F02DF7DB601C84B2852CF1DB24
:1004000000240BE0002505E04FF4FC6000F04AFA00
:10041000681C85B2F02DF7DB601C84B2862CF1DB02
:1004200030BD0000A8824142000042421CB50121BB
:100430001A2000F0B5FA4FF47F40009000208DF8AC
:10044000040003208DF8050002208DF8070069469E
:100450000148FFF740FF1CBD001002401CB5012100
:100460001A2000F09DFA4FF68070009001208DF860
:10047000040000208DF8060003208DF805000120FF
:100480008DF807006946C948FFF725FF4FF4E06083
:1004900000906946C648FFF71EFF4FF400400090E9
:1004A0006946C448FFF717FF0020C349086064206D
:1004B00000F0DEFB0120C149C1F8BC020A2000F0B7
:1004C000D7FB0120BE490860BE490860091D0860CD
:1004D000052000F0CDFB0020BB49C1F89C020021A3
:1004E000084600F0FBF94FF48071012000F0F6F9A6
:1004F0004FF48071022000F0F1F941F23001032045
:1005000000F0ECF940F60801082000F0E7F90121BD
:10051000092000F0E3F910210B2000F0DFF90021A1
:100520000C2000F0DBF900210F2000F0D7F90121A9
:10053000072000F0D3F91121102000F0CFF94FF47B
:100540000071112000F0CAF94FF44071122000F040
:10055000C5F940F21E21202000F0C0F940F202212E
:10056000212000F0BBF94FF48071222000F0B6F991
:100570004FF40041902000F0B1F941F2B0714FF416
:10058000807000F0ABF940F2471140F2011000F02A
:10059000A5F94FF49C714FF4817000F09FF94FF46E
:1005A000405140F2031000F099F9002140F2071089
:1005B00000F094F901214FF4887000F08FF90021C8
:1005C0004FF4207000F08AF9002140F2812000F001
:1005D00085F9002140F2822000F080F941F21101FA
:1005E0004FF4407000F07AF942F2245140F20130A9
:1005F00000F074F942F6207140F2023000F06EF91A
:1006000042F22F0140F2033000F068F942F2253146
:100610004FF4417000F062F941F2101140F20530E0
:1006200000F05CF940F6046140F2063000F056F943
:1006300040F20E4140F2073000F050F905214FF42E
:10064000427000F04BF9032140F2093000F046F906
:1006500040F6047140F20A3000F040F94FF4706146
:1006600040F20B3000F03AF90F214FF4437000F0E4
:1006700035F940F20F4140F20D3000F02FF94FF400
:10068000407140F20E3000F029F94FF4A06140F2C1
:100690000F3000F023F94FF454514FF4806000F014
:1006A0001DF9012140F2014000F018F9002140F24B
:1006B000044000F013F9002140F2012000F00EF98F
:1006C00000214FF4007000F009F900214FF404708C
:1006D00000F004F9EF2140F2112000F0FFF80021B2
:1006E00040F2122000F0FAF840F28F1140F213208D
:1006F00000F0F4F800214FF4A06000F0EFF80021C2
:1007000040F2015000F0EAF8002140F2025000F0FF
:10071000E5F8002140F2035000F0E0F8002140F23B
:10072000045000F0DBF8002140F2055000F0D6F84C
:1007300000214FF4C06000F0D1F8002140F20660C3
:1007400000F0CCF800214FF4DE6000F0C7F845F26D
:1007500020414FF4FE6000F0C1F8002140F2DE704D
:1007600000F0BCF8DF2140F2F27000F0B7F840F67C
:100770008E0140F2F37000F0B1F8222140F2F470E3
:1007800000F0ACF8012140F2F57000F0A7F800216C
:100790004FF4FE6000F0A2F840F27311072000F061
:1007A0009DF8962000F064FA1CBD00000010024085
:1007B000000C024000040240BC82404200804042E3
:1007C0009C024242A0824142000042421CB50121EB
:1007D0001A2000F0E5F84FF47F40009001208DF8DA
:1007E000040000208DF8060003208DF8050001208C
:1007F0008DF8070069460248FFF76DFD1CBD00003B
:100800000010024010B50020214908602149C1F8BC
:10081000A8020120204908600020204948611E49A3
:10082000086001200860091D0860FFF7FFFD002037
:100830001949091F0860052000F036FA17480069B9
:100840001749088001201349C1F8A0021448008804
:1008500000F47F44012000F027FA00200E49091F10
:100860000860052000F020FA0C4800690C49088057
:1008700001200849C1F8A0020948008844EA202460
:1008800007480480FFF7A2FF01200149086010BD5E
:100890009C02424200804142A48241420010024038
:1008A0000000002010B50446012004490860E1B2B0
:1008B000C4F3072000F01CF810BD0000A8824142DC
:1008C00010B50446002004490860E1B2C4F30720D3
:1008D00000F00EF810BD0000A882414230B5054678
:1008E0000C462846FFF7ECFF2046FFF7DBFF30BD44
:1008F000F0B502460B4600200021002509E04FF626
:10090000FF7606EA400002F00106304352106E1CEA
:10091000B5B2072DF3DD002409E04FF6FF7606EAB5
:10092000410103F0010631435B10661CB4B2072C91
:10093000F3DD4FF6FF7606EA002006EA01210026E5
:10094000104F3E600126104FC7F8A4620026C7F87A
:10095000A4620E4E706101260D4F3E60094F3E604D
:1009600000263E6001260A4F3E600026064FC7F86B
:10097000A462064E71610126054F3E60054FC7F81F
:100980009C62F0BD9C024242008041420010024045
:10099000A48241420000424200BFFEE77047704718
:1009A00029B1064A12680243044B1A6004E0034A64
:1009B00012688243014B1A607047000030380240D1
:1009C000704700000CB5002001900090344800688A
:1009D00040F480303249086000BF3148006800F4BC
:1009E000003000900198401C0190009818B90198BF
:1009F000B0F5A04FF1D12A48006800F4003010B1E2
:100A00000120009001E0002000900098012846D1CC
:100A100023484030006840F0805021494031086050
:100A20002048006840F440401E4908601C480830D7
:100A300000681B49083108600846006840F400401F
:100A400008600846006840F4A05008601648091F76
:100A50000860081F006840F08070091F086000BF30
:100A60000F48006800F000700028F9D040F20570CF
:100A70000E4908600A480830006820F00300084961
:100A8000083108600846006840F00200086000BFB6
:100A900003480830006800F00C000828F8D10CBDAD
:100AA000003802400070004008544007003C0240FB
:100AB000042808D14FF0E021096941F004014FF00A
:100AC000E022116107E04FF0E021096921F0040103
:100AD0004FF0E022116170477047000010B51548D3
:100AE000006840F47000134908601348006840F043
:100AF00001001149086000200F49083108600E48C4
:100B000000680E4908400C4908600D48091D08603E
:100B1000081F006820F48020091F08600020064993
:100B20000C310860FFF74EFF4FF00060014980393B
:100B3000086010BD88ED00E000380240FFFFF6FEBF
:100B40001030002410B540F225511D4800F03EF849
:100B500010B31B4800F064F8C4B21A48008800F4CF
:100B60000040C8B91748008800F4804060B10A2CE2
:100B700003D000201349088020E01248008840F488
:100B800000401049088019E00D2C06D10D4800885E
:100B900040F480400B49088010E00A480088C0F308
:100BA0000D0009490C5407480088401C054908807D
:100BB00008460088C72801DD0020088010BD00001D
:100BC000001001400C0000201000002070B502460B
:100BD000002400230025002040F66A16B14200D10F
:100BE00000BFC1F3421501F01F03012606FA03F30B
:100BF000012D02D19689334006E0022D02D1168ADA
:100C0000334001E0968A33400C12012606FA04F4C0
:100C10001688344013B10CB1012000E0002070BDF3
:100C200001468888C0F30800704700BFFEE700BF98
:100C30007047000010B504466FF00400FFF738FF5E
:100C4000E11704EB5171C1F3C701074A1170104657
:100C5000007800EB4001C1EBC0104FF6FF7101EAD4
:100C6000C0000249088010BD0200002004000020DE
:100C700070B504464FF4077094FBF0F0C6B24FF421
:100C8000077094FBF0F100FB114085B205E04FF4D2
:100C9000077000F02FF8701EC6B2002EF7D115B104
:100CA000284600F027F870BD0146114A12784A43E1
:100CB0004FF0E0235A6100229A611A46126942F00D
:100CC00001021A6100BF4FF0E022106900F001023A
:100CD0001AB100F48032002AF5D04FF0E0221269F8
:100CE00022F001024FF0E0231A6100229A6170475E
:100CF000020000200146114A12884A434FF0E023C7
:100D00005A6100229A611A46126942F001021A6180
:100D100000BF4FF0E022106900F001021AB100F4A8
:100D20008032002AF5D04FF0E022126922F0010251
:100D30004FF0E0231A6100229A61704704000020FE
:100D4000A820FFF777FFFFF789FBFFF75BFDFFF7B1
:100D50000DFB00BFFEE74FF04070E1EE100A704758
:100D6000800D00080000002010000000C4010008F1
:100D7000900D00081000002028070000E001000886
:100D80000000000000000000000000000000000063
:040000050800018965
:00000001FF
