:020000040800F2
:100000003807002029020008790C0008670300085F
:10001000750C0008D1020008070F0008000000005E
:100020000000000000000000000000009D0C00081F
:10003000D5020008000000007B0C0008B50D000888
:10004000430200084302000843020008430200087C
:10005000430200084302000843020008430200086C
:10006000430200084302000843020008430200085C
:10007000430200084302000843020008430200084C
:10008000430200084302000843020008430200083C
:10009000430200084302000843020008430200082C
:1000A000430200084302000843020008430200081C
:1000B000430200084302000843020008430200080C
:1000C00043020008430200084302000843020008FC
:1000D00043020008210E0008430200084302000802
:1000E00043020008430200084302000843020008DC
:1000F00043020008430200084302000843020008CC
:1001000043020008430200084302000843020008BB
:1001100043020008430200084302000843020008AB
:10012000430200084302000843020008430200089B
:10013000430200084302000843020008430200088B
:10014000430200084302000843020008430200087B
:10015000430200084302000843020008430200086B
:10016000430200084302000843020008430200085B
:10017000430200084302000843020008430200084B
:10018000430200084302000800F002F800F03CF8C7
:100190000AA090E8000C82448344AAF10107DA45E2
:1001A00001D100F031F8AFF2090EBAE80F0013F0F8
:1001B000010F18BFFB1A43F001031847380E000067
:1001C000580E0000103A24BF78C878C1FAD85207F8
:1001D00024BF30C830C144BF04680C6070470000C1
:1001E0000023002400250026103A28BF78C1FBD840
:1001F000520728BF30C148BF0B6070471FB500F0E1
:10020000F4FE1FBD10B510BD00F033F81146FFF726
:10021000F5FF00F0DDFE00F051F803B4FFF7F2FF48
:1002200003BC00F072FE00000948804709480047FF
:10023000FEE7FEE7FEE7FEE7FEE7FEE7FEE7FEE796
:10024000FEE7FEE704480549054A064B70470000F3
:10025000B90D000889010008380100203807002086
:1002600038030020380300207047704770477047FC
:100270007047754600F028F8AE46050069465346BB
:1002800020F00700854618B020B5FFF7DBFFBDE87A
:1002900020404FF000064FF000074FF000084FF0ED
:1002A000000B21F00701AC46ACE8C009ACE8C0097E
:1002B000ACE8C009ACE8C0098D4670470446AFF30E
:1002C00000802046FFF7A9FF00487047D4000020B7
:1002D00000BFFEE77047F0B50A4600210023002466
:1002E00000BF3DE0012505FA01F3156805EA0304A6
:1002F0009C4234D105684F000326BE40B5430560DB
:1003000015794E00B5400668354305601579012D15
:1003100002D01579022D16D185684F000326BE4004
:10032000B543856055794E00B54086683543856094
:10033000456801268E40B5434560456896798E40F4
:10034000B6B235434560C5684F000326BE40B5438D
:10035000C560D5794E00B540C6683543C560491CB7
:100360001029BFD3F0BD00BFFEE7000070B5064600
:1003700041F22C50864223D100214FF4047000F04A
:100380001BFCEF2140F2112000F016FC002140F28E
:10039000122000F011FC40F28F1140F2132000F007
:1003A0000BFC002140F2012000F006FC00214FF47C
:1003B000007000F001FC40F2022000F0EFFB1EE0B4
:1003C00042F2094086421AD1AF21362000F0F4FBF8
:1003D0000021372000F0F0FBDB21382000F0ECFB9F
:1003E0000021392000F0E8FB0021202000F0E4FB90
:1003F0000021212000F0E0FB222000F0CFFB0120B3
:100400001A49086000201A49C1F89C0200240AE039
:10041000002504E01F2000F0B3FB681C85B2F02D1E
:10042000F8DB601C84B2852CF2DB00240BE0002595
:1004300005E04FF4784000F0A3FB681C85B2F02D76
:10044000F7DB601C84B2852CF1DB00240BE0002577
:1004500005E04FF4FC6000F093FB681C85B2F02DC2
:10046000F7DB601C84B2862CF1DB70BDA8824142B0
:10047000000042421CB5044601211A2000F0FEFB98
:100480004FF68070009001208DF8040000208DF858
:10049000060003208DF8050001208DF8070069464D
:1004A000FA48FFF718FF4FF4E06000906946F848FB
:1004B000FFF711FF4FF4004000906946F548FFF741
:1004C0000AFF0020F4490860642000F03FFD01208D
:1004D000F249C1F8BC020A2000F038FD0120F049C1
:1004E0000860F0490860091D0860052000F02EFD35
:1004F0000020ED49C1F89C0242F26E4084427DD159
:1005000043F2080140F2027000F056FB362140F23F
:10051000057000F051FB41F2132140F20B7000F026
:100520004BFB4FF48071012000F046FB4FF48071CB
:10053000022000F041FB3021032000F03DFB40F29F
:100540000221082000F038FB0021092000F034FBD4
:1005500000210C2000F030FB00210F2000F02CFBCC
:1005600000214FF4807000F027FB00214FF48170D0
:1005700000F022FB002140F2031000F01DFBC82018
:1005800000F0E4FC41F290114FF4807000F014FB95
:1005900040F2272140F2011000F00EFB322000F063
:1005A000D5FC1D214FF4817000F006FB322000F0D5
:1005B000CDFC4FF4005140F2031000F0FDFA012190
:1005C00040F2812000F0F8FA002140F20B2000F008
:1005D000F3FA322000F0BAFC00214FF4007000F072
:1005E000EBFA002140F2012000F0E6FA00214FF47E
:1005F000407000F0E1FA40F2022100E090E040F2A9
:10060000013000F0D9FA40F2022140F2023000F04D
:10061000D3FA40F2022140F2053000F0CDFA40F268
:10062000022140F2063000F0C7FA40F2022140F207
:10063000073000F0C1FA40F202214FF4427000F09E
:10064000BBFA40F2022140F2093000F0B5FA40F264
:1006500002214FF4437000F0AFFA40F2022140F261
:100660000D3000F0A9FA00214FF4047000F0A4FA54
:10067000EF2140F2112000F09FFA002140F21220F9
:1006800000F09AFA40F28F1140F2132000F094FA31
:100690004FF444514FF4806000F08EFA012140F293
:1006A000014000F089FA002140F2044000F084FA91
:1006B00000214FF4A06000F07FFA002140F20150C9
:1006C00000F07AFA002140F2025000F075FA0021A1
:1006D00040F2035000F070FA002140F2045000F0A4
:1006E0006BFA002140F2055000F066FA102108462E
:1006F00000F062FA4FF4C061112000F05DFA0221AF
:10070000202000F059FA40F27311072000F054FA4B
:1007100040F2022000F042FA142000F017FC2EE212
:1007200041F2C71084427DD13021152000F044FAF7
:100730001021112000F040FA43F22861102000F04F
:100740003BFA0521122000F037FA4FF464611320C0
:1007500000F032FA282000F0F9FB1521122000F0F9
:100760002BFA282000F0F2FB43F22061102000F069
:1007700023FA4FF43951132000F01EFA142000F030
:10078000E5FB0721302000F017FA40F2026131202A
:1007900000F012FA4FF48371322000F00DFA40F2AB
:1007A0000541332000F008FA40F20321342000F024
:1007B00003FA40F20261352000F0FEF907213620ED
:1007C00000F0FAF940F20451372000F0F5F940F654
:1007D0000901382000F0F0F940F60901392000F055
:1007E000EBF9142000F0B2FB4FF48071012000F00F
:1007F000E3F94FF44071022000F0DEF941F23001DC
:10080000032000F0D9F940F60801082000F0D4F9DF
:1008100008210A2000F0D0F94FF44451602000F084
:10082000CBF900E042E00121612000F0C5F954213C
:10083000902000F0C1F940F20F11922000F0BCF9B5
:1008400040F20151932000F0B7F909219A2000F0FD
:10085000B3F91021A32000F0AFF90121072000F027
:10086000ABF92121072000F0A7F92321072000F090
:10087000A3F93321072000F09FF940F2331107203C
:1008800000F09AF9142000F061FB78E100100240BA
:10089000000C024000040240BC8240420080404202
:1008A0009C024242A08241420000424241F22C504E
:1008B0008442EAD10021084600F07EF94FF48071AD
:1008C000012000F079F94FF48071022000F074F9F2
:1008D00041F23001032000F06FF940F608010820D2
:1008E00000F06AF90121092000F066F910210B20BF
:1008F00000F062F900210C2000F05EF900210F20C9
:1009000000F05AF90121072000F056F911211020BA
:1009100000F052F94FF40071112000F04DF94FF43E
:100920004071122000F048F940F21E21202000F012
:1009300043F940F20221212000F03EF94FF480718A
:10094000222000F039F94FF40041902000F034F9F2
:1009500041F2B0714FF4807000F02EF940F247116F
:1009600040F2011000F028F94FF49C714FF48170AF
:1009700000F022F94FF4405140F2031000F01CF94E
:10098000002140F2071000F017F901214FF48870A0
:1009900000F012F900214FF4207000F00DF9002151
:1009A00040F2812000F008F9002140F2822000F09E
:1009B00003F941F211014FF4407000F0FDF842F2EA
:1009C000245140F2013000F0F7F842F6207140F275
:1009D000023000F0F1F842F22F0140F2033000F053
:1009E000EBF842F225314FF4417000F0E5F841F2A6
:1009F000101140F2053000F0DFF840F6046140F2DB
:100A0000063000F0D9F840F20E4140F2073000F015
:100A1000D3F805214FF4427000F0CEF8032140F2E4
:100A2000093000F0C9F840F6047140F20A3000F0D5
:100A3000C3F84FF4706140F20B3000F0BDF80F21A5
:100A40004FF4437000F0B8F840F20F4140F20D301F
:100A500000F0B2F84FF4407140F20E3000F0ACF804
:100A60004FF4A06140F20F3000F0A6F84FF454515B
:100A70004FF4806000F0A0F8012140F2014000F046
:100A80009BF8002140F2044000F096F8002140F26B
:100A9000012000F091F800214FF4007000F08CF874
:100AA00000214FF4047000F087F8EF2140F211208C
:100AB00000F082F8002140F2122000F07DF840F2B0
:100AC0008F1140F2132000F077F800214FF4A0605E
:100AD00000F072F8002140F2015000F06DF80021A2
:100AE00040F2025000F068F8002140F2035000F09C
:100AF00063F8002140F2045000F05EF8002140F25B
:100B0000055000F059F800214FF4C06000F054F88F
:100B1000002140F2066000F04FF800214FF4DE6043
:100B200000F04AF845F220414FF4FE6000F044F82E
:100B3000002140F2DE7000F03FF8DF2140F2F27059
:100B400000F03AF840F68E0140F2F37000F034F80D
:100B5000222140F2F47000F02FF8012140F2F570EC
:100B600000F02AF800214FF4FE6000F025F840F272
:100B70007311072000F020F8962000F0E7F91CBD63
:100B800010B50446012004490860E1B2C4F307200F
:100B900000F01CF810BD0000A882414210B50446C8
:100BA000002004490860E1B2C4F3072000F00EF809
:100BB00010BD0000A882414230B505460C462846CB
:100BC000FFF7ECFF2046FFF7DBFF30BDF0B5024634
:100BD0000B4600200021002509E04FF6FF7606EACB
:100BE000400002F00106304352106E1CB5B2072DD2
:100BF000F3DD002409E04FF6FF7606EA410103F039
:100C0000010631435B10661CB4B2072CF3DD4FF6CE
:100C1000FF7606EA002006EA01210026104F3E601A
:100C20000126104FC7F8A4620026C7F8A4620E4E32
:100C3000706101260D4F3E60094F3E6000263E6008
:100C400001260A4F3E600026064FC7F8A462064EF2
:100C500071610126054F3E60054FC7F89C62F0BDEB
:100C60009C0242420080414200100240A482414264
:100C70000000424200BFFEE77047704729B1064AB4
:100C800012680243044B1A6004E0034A126882436C
:100C9000014B1A6070470000303802407047000076
:100CA0000CB50020019000903448006840F480307A
:100CB0003249086000BF3148006800F400300090FD
:100CC0000198401C0190009818B90198B0F5A04F08
:100CD000F1D12A48006800F4003010B101200090E2
:100CE00001E0002000900098012846D123484030C0
:100CF000006840F080502149403108602048006879
:100D000040F440401E4908601C48083000681B49F8
:100D1000083108600846006840F400400860084652
:100D2000006840F4A05008601648091F0860081FBA
:100D3000006840F08070091F086000BF0F4800681D
:100D400000F000700028F9D040F205700E490860EC
:100D50000A480830006820F003000849083108609C
:100D60000846006840F00200086000BF03480830F1
:100D7000006800F00C000828F8D10CBD00380240D3
:100D80000070004008544007003C0240042808D18D
:100D90004FF0E021096941F004014FF0E0221161B8
:100DA00007E04FF0E021096921F004014FF0E02253
:100DB000116170477047000010B51548006840F495
:100DC0007000134908601348006840F001001149A1
:100DD000086000200F49083108600E4800680E497D
:100DE00008400C4908600D48091D0860081F00688C
:100DF00020F48020091F0860002006490C3108609B
:100E0000FFF74EFF4FF0006001498039086010BDC8
:100E100088ED00E000380240FFFFF6FE10300024AD
:100E200010B540F225511D4800F03EF810B31B48A4
:100E300000F064F8C4B21A48008800F40040C8B951
:100E40001748008800F4804060B10A2C03D00020CD
:100E50001349088020E01248008840F400401049FF
:100E6000088019E00D2C06D10D48008840F4804020
:100E70000B49088010E00A480088C0F30D000949BA
:100E80000C5407480088401C054908800846008823
:100E9000C72801DD0020088010BD000000100140BF
:100EA000080000200C00002070B50246002400233A
:100EB0000025002040F66A16B14200D100BFC1F300
:100EC000421501F01F03012606FA03F3012D02D19A
:100ED0009689334006E0022D02D1168A334001E0A4
:100EE000968A33400C12012606FA04F41688344020
:100EF00013B10CB1012000E0002070BD01468888CC
:100F0000C0F30800704700BFFEE700BF7047000055
:100F100010B504466FF00400FFF738FFE11704EB4B
:100F20005171C1F3C701074A11701046007800EBF8
:100F30004001C1EBC0104FF6FF7101EAC000024949
:100F4000088010BD000000200200002070B504469B
:100F50004FF4077094FBF0F0C6B24FF4077094FBA7
:100F6000F0F100FB114085B205E04FF4077000F08E
:100F700009F8701EC6B2002EF7D115B1284600F050
:100F800001F870BD0146114A12884A434FF0E02330
:100F90005A6100229A611A46126942F001021A61EE
:100FA00000BF4FF0E022106900F001021AB100F416
:100FB0008032002AF5D04FF0E022126922F00102BF
:100FC0004FF0E0231A6100229A617047020000206E
:100FD000A820FFF79DFF42F26E40FFF74BFA42F266
:100FE0006E40FFF7C3F900BFFEE74FF04070E1EE3F
:100FF000100A704714100008000000200C000000C8
:10100000C4010008201000080C0000202C0700007C
:10101000E0010008000000000000000000000000E7
:040000050800018965
:00000001FF
