:020000040800F2
:10000000D00800200D02000825160008430E000845
:1000100021160008ED0500088122000800000000FC
:100020000000000000000000000000001919000896
:100030006108000800000000B91600083D1C000817
:1000400027020008270200082702000827020008EC
:1000500027020008270200082702000827020008DC
:1000600027020008270200082702000827020008CC
:100070002702000827020008F105000827020008EF
:1000800027020008270200082702000827020008AC
:10009000270200082702000827020008270200089C
:1000A000270200082702000827020008270200088C
:1000B000270200082702000827020008270200087C
:1000C000270200082702000827020008270200086C
:1000D00027020008A11C00082702000827020008C8
:1000E000270200082702000827020008270200084C
:1000F000270200082702000827020008270200083C
:10010000270200082702000827020008270200082B
:10011000270200082702000827020008270200081B
:10012000270200082702000827020008270200080B
:1001300000F002F800F05AF80AA090E8000C82449F
:100140008344AAF10107DA4501D100F04FF8AFF27C
:10015000090EBAE80F0013F0010F18BFFB1A43F0A5
:1001600001031847FC2800001C2900000A444FF036
:10017000000C10F8013B13F0070408BF10F8014B06
:100180001D1108BF10F8015B641E05D010F8016B4B
:10019000641E01F8016BF9D113F0080F1EBF10F8AF
:1001A000014BAD1C0C1B09D16D1E58BF01F801CBD2
:1001B000FAD505E014F8016B01F8016B6D1EF9D555
:1001C0009142D6D37047000000230024002500266A
:1001D000103A28BF78C1FBD8520728BF30C148BFAA
:1001E0000B6070471FB51FBD10B510BD00F033F890
:1001F0001146FFF7F7FF02F09FFA00F051F803B441
:10020000FFF7F2FF03BC02F03DF800000948804709
:1002100009480047FEE7FEE7FEE7FEE7FEE7FEE7E8
:10022000FEE7FEE7FEE7FEE704480549054A064B00
:1002300070470000411C000831010008D002002076
:10024000D0080020D0040020D00400207047704760
:10025000704770477047754600F028F8AE460500B5
:100260006946534620F00700854618B020B5FFF7D1
:10027000DBFFBDE820404FF000064FF000074FF0D5
:1002800000084FF0000B21F00701AC46ACE8C009B4
:10029000ACE8C009ACE8C009ACE8C0098D467047BD
:1002A0000446AFF300802046FFF7A9FF00487047DF
:1002B0007002002021B1826842F00102826003E0F6
:1002C000826822F0010282607047000010B5044687
:1002D0001248844208D10121401501F01BFA002187
:1002E000601501F017FA17E00D48844208D101218A
:1002F000001501F00FFA0021201501F00BFA0BE0B8
:100300000848844208D10121C80301F003FA002102
:100310004FF4004001F0FEF910BD00000024014040
:1003200000280140003C0140014600208A6802F09C
:1003300004020AB1012000E0002070470146C86CA9
:1003400080B270470246002013680B400BB10120B9
:1003500000E000207047014600208A6802F0080291
:100360000AB1012000E000207047000030B50246CD
:100370000020002350680F4C20400D790C6844EA9F
:1003800005242043506090680B4C2040D1E9025472
:100390002C434D7944EA450420439060D06A20F410
:1003A00070000C7C641EE4B2234340EA0350D06228
:1003B00030BD0000FFFEF0FFFDF7F1FFF0B5044691
:1003C0000D4600200021092D11DDE068A5F10A0687
:1003D00006EB4607072606FA07F18843A5F10A0649
:1003E00006EB460603FA06F10843E0600CE02069DC
:1003F00005EB4507072606FA07F1884305EB450696
:1004000003FA06F108432061072A0FDA606B561ED3
:1004100006EB86071F2606FA07F18843561E06EBF1
:10042000860605FA06F10843606322E00D2A0FDA1A
:10043000206BD61F06EB86071F2606FA07F18843B6
:10044000D61F06EB860605FA06F10843206310E086
:10045000E06AA2F10D0606EB86071F2606FA07F1F1
:100460008843A2F10D0606EB860605FA06F108435D
:10047000E062F0BD816841F008018160704721B100
:10048000826842F4A002826003E0826822F4A00243
:1004900082607047816841F004018160704700000C
:1004A00000B587B0012148F29C2001F023F94FF4F8
:1004B000004001F003F9FF20ADF8040000208DF8A2
:1004C000070001A9434800F0ADFB3F20ADF8040050
:1004D00000208DF8070001A93F4800F0A3FB03208E
:1004E000ADF8040000208DF8070001A93B4800F09A
:1004F00099FB4FF4F860ADF8040000208DF8070078
:1005000001A9374800F08EFB4FF48050ADF804008D
:1005100010208DF8070003208DF8060001A92F4850
:1005200000F080FB2F48FFF7D1FE002002908DF8ED
:100530000C008DF80D004FF4602004900020059011
:1005400001208DF8180002A92648FFF70FFF0121AE
:100550002448FFF7AFFE2348FFF78CFF00BF214878
:10056000FFF7F9FE0028FAD11E48FFF793FF00BFFE
:100570001C48FFF7D9FE0028FAD11B48FFF7A6FE5A
:10058000002002908DF80C008DF80D004FF46020D3
:1005900004900020059001208DF8180002A912484F
:1005A000FFF7E4FE01211048FFF784FE0E48FFF735
:1005B00061FF00BF0C48FFF7CEFE0028FAD10A48C1
:1005C000FFF768FF00BF0848FFF7AEFE0028FAD12A
:1005D00007B000BD0008014000100140000C0140C0
:1005E000001C014000240140003C014000BFFEE728
:1005F00010B54FF4005000F0CBF828B101200349AA
:100600000870400300F004F810BD00002A0100202B
:1006100000F0805111B10349086001E002494860CF
:1006200070470000040402400000024021B102684B
:1006300042F00102026004E002684FF6FE731A40C5
:100640000260704701684FF6FE72114001600021A0
:10065000016041608160C1604B49884208D14A49CC
:100660000839496841F00F01474A083A51608AE069
:1006700045491431884208D143490839496841F055
:10068000F001414A083A51607DE03F4928318842F3
:1006900008D13D490839496841F470613A4A083A3D
:1006A000516070E038493C31884208D136490839F8
:1006B000496841F47041344A083A516063E0324974
:1006C0005031884208D130490839496841F47021D5
:1006D0002D4A083A516056E02B496431884208D1CE
:1006E00029490839496841F47001274A083A51609C
:1006F00049E025497831884208D1234908394968B9
:1007000041F07061204A083A51603CE01F4988423C
:1007100006D1011F096841F00F01021F116032E08C
:100720001A491431884208D11849091F096841F053
:10073000F001164A121F116025E014492831884241
:1007400008D11249091F096841F470610F4A121F4C
:10075000116018E00D493C31884208D10B49091F4E
:10076000096841F47041094A121F11600BE0074902
:100770005031884207D10549091F096841F47021A9
:10078000024A121F1160704708000240080402402C
:1007900001460020002201F0805313B1054B1A6876
:1007A00001E0054B1A6802EA01030BB1012000E0E9
:1007B0000020704700040240000002401AB10368A4
:1007C0000B43036002E003688B430360704710B57E
:1007D0000022026847F6F0739A430C6A8B68234341
:1007E0000C6923434C6923438C692343CC6923431D
:1007F0004C6A23438C6A23431A430260CB684360EC
:100800000B6883604B68C36010BD41607047000097
:1008100010B50221114800F0D9FA10210F4800F05C
:10082000D5FA4EF6602000F01CF804210B4800F0C9
:10083000CDFA2021094800F0C9FA4EF6602000F0F8
:1008400010F82021054800F0C3FA4EF6602000F0B1
:1008500008F80421014800F0BBFA10BD0014014063
:10086000704710B50446204601F010FF10BD00008F
:100870003348006858B93248001D00683149087093
:1008800001203149087000203049087057E00020ED
:100890002E4908702C48007800284BD000202A49A7
:1008A00008702B48007800BB2648007801281CD12E
:1008B00028480078401C2749087000202649087005
:1008C00024480078032802DB0120224908702148CF
:1008D0000078012802D11D4908702BE01D480078DE
:1008E000022827D11949087024E019480078012806
:1008F00020D114480078E8B917480078401C164900
:10090000087000201349087013480078032802DBA0
:1009100001201149087010480078012803D10320F4
:100920000A49087006E00C480078022802D1042029
:10093000064908700248001D0068054908707047A4
:10094000208122421C0100201E01002018010020ED
:100950000801002010010020110100203348006828
:1009600058B93248001D00683149087001203149EA
:10097000087000203049087057E000202E490870A8
:100980002C48007800284BD000202A4908702B48BA
:10099000007800BB2648007801281CD12848007840
:1009A000401C274908700020264908702448007818
:1009B000032802DB01202249087021480078012821
:1009C00002D11D4908702BE01D480078022827D16C
:1009D0001949087024E019480078012820D11448EA
:1009E0000078E8B917480078401C164908700020C4
:1009F0001349087013480078032802DB01201149CD
:100A0000087010480078012803D103200A490870B3
:100A100006E00C480078022802D10420064908703C
:100A20000248001D0068054908707047288122426D
:100A30001F010020210100201901002009010020D0
:100A400012010020130100203348006858B93248D1
:100A5000001D0068314908700120314908700020EC
:100A60003049087057E000202E4908702C48007863
:100A700000284BD000202A4908702B48007800BB82
:100A80002648007801281CD128480078401C2749B6
:100A9000087000202649087024480078032802DBEB
:100AA00001202249087021480078012802D11D49FF
:100AB00008702BE01D480078022827D119490870DA
:100AC00024E019480078012820D114480078E8B9BA
:100AD00017480078401C1649087000201349087018
:100AE00013480078032802DB0120114908701048E0
:100AF0000078012803D103200A49087006E00C4859
:100B00000078022802D10420064908700248001D1E
:100B10000068054908707047308122422201002098
:100B2000240100201A0100200A01002014010020E5
:100B3000150100203348006858B93248001D00688C
:100B4000314908700120314908700020304908708F
:100B500057E000202F4908702C48007800284BD01F
:100B600000202A4908702C48007800BB26480078ED
:100B700001281CD129480078401C28490870002011
:100B80002749087025480078032802DB0120234903
:100B9000087022480078012802D11D4908702BE016
:100BA0001E480078022827D11949087024E01A4805
:100BB0000078012820D114480078E8B91848007856
:100BC000401C174908700020144908701448007828
:100BD000032802DB0120124908701148007801281F
:100BE00003D103200A49087006E00D480078022866
:100BF00002D10420064908700248001D0068064919
:100C0000087070473881224225010020270100200A
:100C10001B0100201A0100200B01002016010020FA
:100C2000170100202DE9F041024600250026002092
:100C300000230024002791F803C00CF00F0591F861
:100C400003C00CF0100CBCF1000F03D091F802C0EF
:100C50004CEA050591F800C0BCF1000F31D01468D2
:100C600000202BE04FF0010C0CFA00F3B1F800C0AB
:100C70000CEA03069E4220D183004FF00F0C0CFAC1
:100C800003F7BC4305FA03FC4CEA040491F803C0E3
:100C9000BCF1280F06D14FF0010C0CFA00FCC2F891
:100CA00014C00AE091F803C0BCF1480F05D14FF021
:100CB000010C0CFA00FCC2F810C0401C0828D1D36B
:100CC0001460B1F800C0BCF1FF0F34DD546800209F
:100CD0002EE000F1080C4FF0010808FA0CF3B1F80F
:100CE00000C00CEA03069E4221D183004FF00F0C96
:100CF0000CFA03F7BC4305FA03FC4CEA040491F830
:100D000003C0BCF1280F05D100F1080C08FA0CF85B
:100D1000C2F8148091F803C0BCF1480F07D100F16C
:100D2000080C4FF0010808FA0CF8C2F81080401CBB
:100D30000828CED35460BDE8F0810000F0B50A4623
:100D4000002300240021002500F00046B6F1004FEA
:100D500002D11D4EF16901E01B4E7168C0F30345DD
:100D600083B200F44016B6F5401F08D121F070613F
:100D7000154E766826F07066134F7E6012E000F420
:100D80008016B6F5801F06D1032606FA05F4A143A6
:100D900041F0706106E0460D360103FA06F6B143F4
:100DA00041F0706122B1460D360103FA06F6314377
:100DB00000F00046B6F1004F02D1034EF16101E0B0
:100DC000014E7160F0BD00000000014041617047BC
:100DD0000161704770B505460E46002407230122C5
:100DE00031462846FFF7EAFA01212846FFF747FB7C
:100DF00001E0601C84B202212846FFF7A3FA18B96B
:100E000041F687108442F4DB2846FFF797FA70BD5D
:100E10002DE9F0410746884614460025002609E0E2
:100E200041463846FFF7D6FF0544012001F02EFC6D
:100E3000701CC6B2A642F3DBB5FBF4F080B2BDE88D
:100E4000F08100BFFEE7000008B50121D02000F0CE
:100E500051FC4FF68070ADF8000048208DF803007B
:100E600069461E48FFF7DEFE012000F01FFC00204F
:100E700000F0CAFC002000F019FC4FF46040ADF80F
:100E8000000010208DF8030003208DF80200694651
:100E90001348FFF7C7FE3F20ADF8000010208DF883
:100EA000030003208DF8020069460E48FFF7BAFEE2
:100EB00001200D4908600D49C1F8B8010A490831FF
:100EC00008600B490860091D0860091D0860091DBC
:100ED0000860091D0860091D086008BD0018014070
:100EE00000100140001C0140B401224200002242D7
:100EF0008081234210B59C480078002870D00120E2
:100F00009A4908609A49C1F8B801984908310860BF
:100F100098490860091D0860091D0860091D0860DE
:100F2000091D0860091D086001F08AFB0124D0E05A
:100F30000A2C56D2DFE804F055050D161F2730396C
:100F4000424B00208949086001208B49C1F8940177
:100F50004CE000208549091D086001208449C1F842
:100F6000B40143E000208149083108600120804934
:100F7000C1F8B8013AE000207E49086001207C49B0
:100F8000C1F8BC0132E000207A49091D0860012047
:100F90007949C1F8800129E00020764908310860CC
:100FA00001207549C1F8840120E0002071490C310D
:100FB000086001207049C1F8880117E000206D49E0
:100FC0001031086001206C49C1F88C010EE000204E
:100FD00068491431086001206749C1F8900105E0B3
:100FE0007BE0012063491431086000BF00BF634803
:100FF000006800B36148001F0068E0B15F4808382E
:101000000068C0B15D48001D0068A0B15B480830B1
:10101000006880B159480C30006860B15748103002
:10102000006840B155481430006820B1534818306A
:10103000006800284BD100204B4908700A2001F0BD
:10104000FFFA4E48006810B94D48005D10BD4B488E
:10105000001F006818B94A480A30005DF6E74748A3
:101060000838006818B946481430005DEEE7434878
:10107000001D006818B942481E30005DE6E73F4891
:101080000830006818B93E482830005DDEE73B486C
:101090000C30006818B93A483230005DD6E737485E
:1010A0001030006818B936483C30005DCEE7334850
:1010B0001430006818B932484630005DC6E72F4842
:1010C0001830006818B92E485030005DBEE7601C2B
:1010D000C4B20B2CFFF62CAF44E00020234908607B
:1010E0002349C1F8B8012149083108602149086045
:1010F000091D0860091D0860091D0860091D0860B8
:101100001D49C1F894011F48D0F82401012829D1B4
:101110001A48001F0068012824D1184808380068C0
:1011200001281FD11548001D006801281AD1134855
:1011300008300068012815D110480C3000680128DB
:1011400010D10E481030006801280BD10B48143024
:101150000068012806D1094818300068012801D12B
:1011600001490870002071E7D4000020B401224238
:101170000000224280812342008023422401234236
:101180007A0000200000234230B58DB000240A22EE
:1011900000219048FFF73CFEADF806000A2201212D
:1011A0008C48FFF735FEADF808000A220221894875
:1011B000FFF72EFEADF80A000A2203218548FFF74B
:1011C00027FEADF80C000A2204218248FFF720FE1A
:1011D000ADF80E000A2205217E48FFF719FEADF892
:1011E00010000A2206217B48FFF712FEADF812001C
:1011F0000A2207217748FFF70BFEADF814000A22F8
:101200000E217448FFF704FEADF816000A220F21E4
:101210007048FFF7FDFDADF818000A2208216D485F
:10122000FFF7F6FDADF81A000A2209216948FFF719
:10123000EFFDADF81C000A2205216748FFF7E8FD25
:10124000ADF81E000A2204216348FFF7E1FDADF866
:1012500020000A2206216048FFF7DAFDADF82200DF
:101260000A2207215C48FFF7D3FDADF824000A22CB
:1012700008215948FFF7CCFDADF826000A22114697
:101280005448FFF7C5FDADF828000A220B2151484C
:10129000FFF7BEFDADF82A000A220C214D48FFF7EA
:1012A000B7FDADF82C0000204C4908600A220D2142
:1012B0004848FFF7ADFDADF82E0001204849C1F8C0
:1012C000B0010A220D214348FFF7A2FDADF830001E
:1012D000FFF7CEFAFFF742FBFFF7B6FBFFF72AFC5A
:1012E00001241AE001A931F814103E4A32F8142002
:1012F000881A01F017FB85B20A2D06DD01A830F827
:101300001400384921F8140005E0364830F814007C
:1013100001A921F81400601CC4B2172CE2DBBDF84F
:10132000060031490880BDF8080030490880BDF842
:101330000A002F490880BDF80C002E490880BDF82E
:101340000E002D490880BDF810002C490880BDF81A
:1013500012002B490880BDF814002A490880BDF806
:10136000160029490880BDF8180028490880BDF8F2
:101370001A0027490880BDF81C0026490880BDF8DE
:101380001E0025490880BDF8200024490880BDF8CA
:10139000220023490880BDF8240022490880BDF8B6
:1013A000260021490880BDF8280020490880BDF8A2
:1013B0002A001F490880BDF82C001E490880BDF88E
:1013C0002E001D490880BDF830001C4908800DB072
:1013D00030BD000000240140003C0140B0812142AA
:1013E00000802142EE010020D8000020DA00002019
:1013F000DC000020DE000020E0000020E2000020F1
:10140000E4000020E6000020E8000020EA000020C0
:10141000EC000020EE000020F0000020F200002090
:10142000F4000020F6000020F8000020FA00002060
:10143000FC000020FE00002000010020020100202E
:101440000022154B1A60154BC3F8B421002020E090
:101450000022114B1A60114BC3F8B42100210CE09B
:1014600000220D4B1B1D1A6001220C4BC3F8B82142
:101470000022094B1A604A1CD1B20829F0DB012274
:10148000054B1B1F1A600022044BC3F8B421421CF9
:10149000D0B20A28DCDB7047B881214200802142AB
:1014A00008B50121282000F025F90121084600F0A7
:1014B00021F901210E48FFF741FC4EF20800ADF87A
:1014C000000010208DF8030003208DF8020069460B
:1014D0000848FFF7A7FB4FF47F40ADF80000482015
:1014E0008DF8030069460448FFF79CFB08BD000027
:1014F00000023000000C01400014014030B500240F
:10150000174D2C60174DC5F8B44100221DE0002195
:1015100016E004780C4104F0010323B10124104DBE
:101520002D1D2C6003E000240D4D2D1D2C60012489
:101530000B4D2C6000240B4DC5F8B8414C1CE1B29A
:101540000829E6DB401C541CE2B20A2ADFDB012436
:10155000034D2D1F2C600024024DC5F8B44130BD51
:10156000B881214200802142F0B58DB007460D467A
:1015700016461C460121084600F0ACF83846FFF735
:1015800061F8194804800295039610200490059490
:1015900000200690802007900020089009900A9073
:1015A0004FF480500B9000200C9002A93846FFF7B2
:1015B0000EF9012202213846FFF700F90E208DF8BE
:1015C000040001208DF8070002208DF8050001209D
:1015D0008DF8060001A800F027F801213846FFF732
:1015E00025F80DB0F0BD00002801002010B504461C
:1015F0000948007878B1002007490870002120468A
:10160000FFF714F8054801882046FFF7FEF801218E
:101610002046FFF70BF810BD2A010020280100200A
:1016200000BFFEE77047000070B5002100230F22C5
:10163000C47804B3154C246804F4E064C4F5E06491
:10164000210AC1F10403CA40447804FA03F1847802
:101650001440214309010E4C0678A155047804F08A
:101660001F050124AC4005786D11AD0005F1E025A2
:10167000C5F8004109E0047804F01F050124AC40DE
:10168000044D0678761145F8264070BD0CED00E05B
:1016900000E400E080E100E002490143024A1160F9
:1016A000704700000000FA050CED00E001490862F7
:1016B0007047000000000E42704700000146002005
:1016C000034A506820F440400843506070470000CF
:1016D0000010024029B1064A52690243044B5A6184
:1016E00004E0034A52698243014B5A61704700008B
:1016F0000010024029B1064A92690243044B9A61E4
:1017000004E0034A92698243014B9A6170470000EA
:101710000010024029B1064AD2680243044BDA6045
:1017200004E0034AD2688243014BDA60704700004C
:101730000010024030B500210022002400232D4D6E
:101740006D6805F00C0121B1042905D0082923D1C9
:1017500005E0294D056022E0274D05601FE0254D7D
:101760006D6805F47012234D6D6805F48034022510
:1017700005EB92421CB9214D554305600BE01D4D10
:101780006D6805F400351DB11C4D5543056002E040
:10179000194D5543056002E0174D056000BF00BFBD
:1017A000144D6D6805F0F0010909154D6B5C056875
:1017B000DD4045600F4D6D6805F4E061090A104D8C
:1017C0006B5C4568DD4085600A4D6D6805F46051CD
:1017D000C90A0B4D6B5C4568DD40C560054D6D6801
:1017E00005F44041890B074D6B5CC568B5FBF3F50B
:1017F000056130BD0010024000127A0000093D0072
:10180000420100205201002000210B4A11700A4AB7
:10181000203A82F82010012802D0042808D103E0E1
:101820000121054A117004E00521034A117000E00E
:1018300000BF00BF704700002010024008B5012122
:101840004FF49070FFF756FF8020ADF80000102095
:101850008DF8030003208DF8020069462B48FFF73E
:10186000E1F94020ADF8000010208DF803000320BE
:101870008DF8020069462548FFF7D4F94FF400704F
:10188000ADF8000010208DF8030003208DF8020051
:1018900069461F48FFF7C6F90120ADF8000048204F
:1018A0008DF8030003208DF8020069461748FFF702
:1018B000B9F90820ADF8000048208DF80300032096
:1018C0008DF8020069461148FFF7ACF90620ADF823
:1018D000000010208DF8030003208DF802006946F7
:1018E0000A48FFF79FF93020ADF8000010208DF86E
:1018F000030003208DF8020069460448FFF792F9BF
:10190000FEF786FF00200349087008BD001401405F
:10191000002001402C0100207047000010B5FFF7A7
:1019200033FCAB2064490870BA20487063480078E3
:10193000887063480078C870624800880012087197
:1019400060480078487160480088001288715E48DD
:101950000078C8715D480088001208725B48007802
:1019600048725B4800880012887259480078C87233
:101970005848008800120873564800784873564843
:1019800000880012887354480078C8735348008850
:1019900000120874514800784874514800880012B9
:1019A00088744F480078C8744E4800880012087543
:1019B0004C48007848754C480088001288754A48A1
:1019C0000078C875494800880012087647480078B2
:1019D0004876474800880012887645480078C876DF
:1019E0004448008800120877424800784877424807
:1019F00000880012887740480078C8773F48008800
:101A0000001281F820003D48007881F821003C4810
:101A10000088001281F822003948007881F82300FC
:101A200038480088001281F824003648007881F890
:101A3000250035480088001281F8260032480078D9
:101A400081F8270031480088001281F828002F48CB
:101A5000007881F829002E480088001281F82A00B9
:101A60002B48007881F82B002A480088001281F862
:101A70002C002848007881F82D00274800880012A3
:101A800081F82E002448007881F82F002348007840
:101A900081F830002248007881F831002148007830
:101AA00081F832002048007881F8330000F0DAFB3A
:101AB000014981F8340010BDB80100205800002011
:101AC000D6000020D8000020DA000020DC00002032
:101AD000DE000020E0000020E2000020E400002002
:101AE000E6000020E8000020EA000020EC000020D2
:101AF000EE000020F0000020F2000020F4000020A2
:101B0000F6000020F8000020FA000020FC00002071
:101B1000FE0000200001002002010020180100202A
:101B2000190100201A0100201B01002010B500F04F
:101B300001F810BD0CB500200190009033480068FA
:101B400040F480303149086000BF3048006800F43C
:101B5000003000900198401C0190009818B901983D
:101B6000B0F5A06FF1D12948006800F4003010B141
:101B70000120009001E0002000900098012843D14E
:101B80002348006840F010002149086008460068BA
:101B900020F0030008600846006840F0020008607A
:101BA0001A48406819494860084640684860084635
:101BB000406840F4806048600846406820F47C102B
:101BC00048600846406840F4E810486008460068ED
:101BD00040F08070086000BF0C48006800F00070A2
:101BE0000028F9D00948406820F003000749486000
:101BF0000846406840F00200486000BF0348406863
:101C000000F00C000828F9D10CBD000000100240C3
:101C100000200240042808D14FF0E021096941F07A
:101C200004014FF0E022116107E04FF0E021096963
:101C300021F004014FF0E02211617047704700006D
:101C400010B51348006840F00100114908600846CB
:101C50004068104908400E494860084600680E492F
:101C600008400B4908600846006820F4802008609E
:101C70000846406820F4FE0048604FF41F0088606A
:101C8000FFF754FF4FF000600449086010BD0000EA
:101C9000001002400000FFF8FFFFF6FE08ED00E034
:101CA00010B508213A4800F092F810B1384800F019
:101CB000D3FA40F22551364800F096F8002866D055
:101CC000334800F0C9FAC4B23248007800283FD146
:101CD0003148008800F40040002858D12E48008880
:101CE00000F48040E8B1BA2C03D000202A490880D3
:101CF0004DE00120274908702748008840F4004043
:101D00002549088008460088401C08802348007840
:101D100001283CD108460088C0F30B0020490C5430
:101D200035E0AB2C10D11C48008840F480401A49A3
:101D300008801A480078012829D108460088C0F395
:101D40000B0017490C5422E00020134908801EE0C4
:101D50001048007801281AD10F480088401C0E490D
:101D600008800E480078012805D108460088C0F395
:101D70000B000B490C5408480088C0F30B00522894
:101D800005DB03200349087000200349088010BDCB
:101D900000380140370100204001002038010020B8
:101DA0001C02002021B1828942F40052828104E0A9
:101DB00082894DF6FF731A40828170471AB1838A77
:101DC0000B43838202E0838A8B43838270470246FF
:101DD0000020B1F5007F00D100BF13880B400BB18C
:101DE000012000E00020704770B502460024002367
:101DF0000025002040F66A16B14200D100BFC1F3B1
:101E0000421501F01F03012606FA03F3012D02D14A
:101E10009689334006E0022D02D1168A334001E054
:101E2000968A33400C12012606FA04F416883440D0
:101E300013B10CB1012000E0002070BDF0B50346E5
:101E4000002400260025002040F66A17B94200D180
:101E500000BF1846C1F3421401F01F06012707FA1C
:101E600006F5012C01D10C3004E0022C01D1103018
:101E700000E014301AB107682F43076002E00768DA
:101E8000AF430760F0BD00002DE9F04786B005467E
:101E90000E460024A24600BFA1460027B08900B12B
:101EA00000BF2F462C8A4CF6FF700440F088044394
:101EB0002C82AC894EF6F3100440B0883189084377
:101EC000718908430443AC81AC8A4FF6FF4004405B
:101ED000B0890443AC8201A8FFF72CFC1F4887425D
:101EE00002D1DDF810A001E0DDF80CA0A88900F413
:101EF000004040B10AEBCA0000EB0A10316849000B
:101F0000B0FBF1F807E00AEBCA0000EB0A103168F9
:101F10008900B0FBF1F86420B8FBF0F0040120095F
:101F2000642101FB1089A88900F4004040B13220EF
:101F300000EBC900B0FBF1F000F00700044308E03B
:101F4000322000EB09106421B0FBF1F000F00F002B
:101F500004432C8106B0BDE8F08700000038014042
:101F600010B5BB4890F83800C001B949897F00EB33
:101F70008110B749097900EB4110B549497900EB67
:101F80000110B349C97F00EBC100B14991F8391084
:101F900000EB8100AE49897900EB4100AC4991F832
:101FA00020100844AB494872A94890F83A00C00193
:101FB000A74991F83B1000EB8110A54991F8211039
:101FC00000EB4110A249C97900EB0110A049097A40
:101FD00000EBC1009E4991F8221000EB81009C4962
:101FE00091F83C1000EB4100994991F83D100844EC
:101FF00098490872964890F82300C0019449497A9C
:1020000000EB8110924991F83E1000EB411090498D
:1020100091F8241000EB01108D49897A00EBC10082
:102020008B49C97A00EB8100894991F8251000EBB2
:102030004100874991F83F1008448649C871844897
:1020400090F84000C001824991F8261000EB811001
:102050007F49097B00EB41107D4991F8411000EB6D
:1020600001107B4991F8271000EBC1007849497BAA
:1020700000EB8100764991F8281000EB410074498B
:1020800091F84210084473498871714890F84300F0
:10209000C0016F4991F8291000EB81106C49897BD0
:1020A00000EB41106A49C97B00EB0110684991F8C7
:1020B000441000EBC100664991F82A1000EB810042
:1020C0006349097C00EB4100614991F845100844DF
:1020D000604948715E4890F82B00C0015C49497C1A
:1020E00000EB81105A4991F8461000EB4110584915
:1020F00091F82C1000EB01105549897C00EBC100D0
:102100005349C97C00EB8100514991F82D1000EB37
:1021100041004F4991F8471008444E4908714C4816
:1021200090F84800C0014A4991F82E1000EB811048
:102130004749097D00EB41104549497D00EB0110FD
:10214000434991F82F1000EBC100414991F8491023
:1021500000EB81003E49897D00EB41003C4991F84C
:10216000301008443B49C870394890F84A00C00113
:10217000374991F84B1000EB8110354991F8311037
:1021800000EB41103249C97D00EB01103049097E56
:1021900000EBC1002E4991F8321000EB81002C4970
:1021A00091F84C1000EB4100294991F84D1008447A
:1021B00028498870264890F84E00C001244991F8BB
:1021C000341000EB81102249897E00EB4110204938
:1021D000C97E00EB01101E4991F8351000EBC100DB
:1021E0001B49097F00EB8100194991F8361000EB7B
:1021F0004100174991F84F10084416494870144897
:1022000090F85000C0011249C97800EB81101049C4
:10221000897800EB41100E49497F00EB01100C4911
:1022200091F8371000EBC100094991F8511000EB0B
:1022300081000749497E00EB4100054991F83310C0
:102240000844044908700846FFF758F910BD00001B
:102250001C020020AE01002001468888C0F308005F
:10226000704700000020002105E0044A525C02444F
:10227000D0B24A1CD1B23429F7DB7047B801002034
:1022800000BFFEE7014600BF7047000010B52148BF
:10229000007803283CD1002240F225511E48FFF768
:1022A000CDFD00201D4908701D4908701D490870AA
:1022B0000DE01D481B490978405C1949097808441C
:1022C0001749087017480078401C164908701548CF
:1022D00000785228EDDB144890F852001049097834
:1022E000884203D10120114908700BE000200F49FA
:1022F0000870012009490870012240F22551064862
:10230000FFF79CFD01200549087000200149087075
:1023100010BD0000370100200038014038010020C6
:1023200035010020340100201C020020360100206D
:1023300010B500200F4908600F4840680F49084059
:102340000D4948600846406840F44030486000202D
:102350000B49C1F8B001022000F098F901200549AD
:102360000860022000F092F900200549C1F8AC0194
:1023700010BD0000AC01224200100140FFFFF00F31
:102380000000224208B501211420FFF7B3F94FF4F1
:10239000E050ADF8000010208DF8030003208DF808
:1023A000020069460848FEF73DFC01200749086025
:1023B0000749C1F8B001C003ADF8000069460548FF
:1023C000FEF730FC08BD000000100140AC012242C5
:1023D000000022420008014010B500200F490860AB
:1023E0000F4840680F4908400D494860084640685A
:1023F00040F44030486001200B49C1F8B001022090
:1024000000F044F9012005490860022000F03EF97F
:1024100000200549C1F8AC0110BD0000AC0122420A
:1024200000100140FFFFF00F0000224270B505468A
:102430000024174840681749084015494860084675
:10244000406840F400204860002616E00020124951
:102450000860022000F01AF901201049C1F8AC010F
:102460006006040E0C487C38006808B1601CC4B2D9
:10247000012000F00BF9701CC6B2082EE6DB15B97E
:10248000FFF7AAFF01E0FFF753FF204670BD0000F1
:1024900000100140FFFFF00FAC0122420000224279
:1024A00070B5044600252948406829490840274955
:1024B00048600846406840F44030486000202549A4
:1024C0000860002617E0E0092249091D086060063F
:1024D000040E022000F0DAF801201F49C1F8AC0117
:1024E000022000F0D3F800201A490860022000F012
:1024F000CDF8701CC6B2082EE5DB144840681449BC
:102500000840124948600846406840F4002048608E
:1025100001201049091D086000F0B8F801200E499B
:10252000C1F8AC0100F0B2F807E0681CC5B2FA2DA2
:1025300003DD00F03BF8012070BD06487C380068E0
:102540000028F2D10349086000BFF5E70010014000
:10255000FFFFF00FAC0122420000224210B50F48ED
:1025600040680F4908400D4948600846406840F4FB
:102570004030486001200B4908600B49C1F8AC01AC
:10258000042000F083F8002006490860042000F0D1
:102590007DF800200449C1F8AC0110BD00100140D5
:1025A000FFFFF00FB00122420000224210B50F4899
:1025B00040680F4908400D4948600846406840F4AB
:1025C0004030486000200B4908600B49C1F8B00159
:1025D000042000F05BF80120064908600649C1F8B4
:1025E000B001042000F052F810BD000000100140BE
:1025F000FFFFF00FAC0122420000224210B56FF045
:102600000400FFF707FB0A4800680A49B0FBF1F035
:10261000094908700846007800EB4001C1EBC01082
:102620004FF6FF7101EAC0000449088010BD0000A8
:102630005C00002000127A002E01002030010020F2
:102640000146114A12884A434FF0E0235A610022A2
:102650009A611A46126942F001021A6100BF4FF0F6
:10266000E022106900F001021AB100F48032002A61
:10267000F5D04FF0E022126922F001024FF0E02382
:102680001A6100229A617047300100200146114A08
:1026900012784A434FF0E0235A6100229A611A46A9
:1026A000126942F001021A6100BF4FF0E022106986
:1026B00000F001021AB100F48032002AF5D04FF088
:1026C000E022126922F001024FF0E0231A61002299
:1026D0009A6170472E0100201A2812DC124A125CFF
:1026E0002AB90122114B1A700F4B1A541BE00E4AE3
:1026F000125C012A17D100220C4B1A700A4B1A5493
:1027000011E00B4A125C0B4B9A5C1AB90122074B81
:102710001A7008E0064A125C064B9A5C012A02D144
:102720000022024B1A707047580100205800002008
:10273000000000201C02002000240125FFF75EFF9E
:102740004FF4A060FEF7A8FF4FF4E13000F014F959
:102750003523664A66496748FEF706FFFEF770FEB6
:10276000FFF710FE0020644908600520FFF768FFAE
:1027700001206249C1F8A8010520FFF761FF002090
:102780005F4908600520FFF75BFF01205D49C1F844
:10279000BC010520FFF754FF80220221302000F009
:1027A0003DF9C3220321302000F038F980220221B4
:1027B000322000F033F9C3220321322000F02EF939
:1027C0000321322000F0B6F84F490870FFF736F8C1
:1027D0004EF66020FEF745F84EF66020FEF741F811
:1027E0004EF66020FEF73DF84EF66020FEF739F811
:1027F0004EF66020FEF735F84EF66020FEF731F811
:102800004EF66020FEF72DF84EF66020FEF729F810
:102810004EF66020FEF725F8FDF7FAFFFEF740FEC2
:10282000FDF73EFEFEF710FB5EE0FFF72FFDFEF723
:1028300061FB0446002C3AD0002034490870002285
:1028400040F225512A48001FFFF7F8FA304804707B
:1028500000212046FFF740FFFFF760F800260AE05E
:10286000012280212248001FFFF7A8FA2148FEF725
:10287000BDFE701CC6B2032EF2DB012240F22551D0
:102880001B48001FFFF7DAFA0120204908700020DA
:10289000204908802049087000E06D1C1E4800781F
:1028A000032802D01D488542F7D100250AE0FFF732
:1028B00035F8012280210E48001FFFF77FFA0D48EE
:1028C000FEF794FE1648007870B1FFF749FB002030
:1028D0001349087001200D490870012240F225516A
:1028E0000348001FFFF7AAFA9FE70000B801002085
:1028F0000438014044000240A80122420000224264
:10290000BC01214200002142540000203801002077
:10291000D6000020400100203701002020A1070040
:102920003601002001460020002901DA484200E07B
:102930000846704770B504460D460220FFF7A6FE14
:10294000FFF70CFE2046FFF7ABFD2846FFF7A8FD7A
:10295000FFF72CFEFFF702FE44F00100FFF7A0FD99
:102960000020FFF763FD0646FFF720FE0220FFF779
:102970008DFE304670BD000010B586B004460121C2
:1029800044F20400FEF7B6FE4FF40070ADF81400F8
:1029900003208DF8160018208DF8170005A91D4892
:1029A000FEF740F94FF48060ADF8140004208DF874
:1029B000170005A91748FEF735F925208DF8000006
:1029C00001208DF8010003208DF8020001208DF810
:1029D00003006846FEF728FE01940020ADF80800C9
:1029E000ADF80A00ADF80C00ADF810000C20ADF801
:1029F0000E0001A90848FFF747FA012240F22551CD
:102A00000548FFF71BFA01210348FFF7CBF906B091
:102A100010BD0000000801400038014070B50646B6
:102A20000C46154619E0FFF799FD3046FFF738FDD3
:102A300010B1FFF7BBFD10E02046FFF731FD10B1EC
:102A4000FFF7B4FD09E02846FFF72AFD10B1FFF7B4
:102A5000ADFD02E0FFF7AAFD00E0E4E700BF70BDB6
:102A6000802A000800000020580100006C010008C6
:102A7000142B00085801002078070000C801000846
:102A800011C0510405060708090A0B0C0D0E0F10A2
:102A90001112131415161718191A1B1C1D1E1F20AE
:102AA0002122232425262728292A2B2C2D2E2F309E
:102AB0003132333435363738393A3B3C3D3E3F408E
:102AC0004142434445464748494A4B4C4D4E4F507E
:102AD00051030284A24A042D0102030469B129139F
:102AE000397D11796D11795D1179921179821179A0
:102AF000721169A712506997124F698711022F014D
:102B00005A0101091D26091A0E19CB69E225020492
:042B100006080000B3
:040000050800020DE0
:00000001FF
