:020000040800F2
:1000000048070020CD0100082D0A00082904000837
:10001000290A000875020008AF0C00080000000063
:10002000000000000000000000000000510A00086D
:1000300079020008000000002F0A0008650B000884
:10004000E7010008E7010008E7010008E7010008F0
:10005000E7010008E7010008E7010008E7010008E0
:10006000E7010008E7010008E7010008E7010008D0
:10007000E7010008E7010008E7010008E7010008C0
:10008000E7010008E7010008E7010008E7010008B0
:10009000E7010008E7010008E7010008E7010008A0
:1000A000E7010008E7010008E7010008E701000890
:1000B000E7010008E7010008E7010008E701000880
:1000C000E7010008E7010008E7010008E701000870
:1000D000E7010008C90B0008E7010008E701000874
:1000E000E7010008E7010008E7010008E701000850
:1000F000E7010008E7010008E7010008E701000840
:10010000E7010008E7010008E7010008E70100082F
:10011000E7010008E7010008E7010008E70100081F
:10012000E7010008E7010008E7010008E70100080F
:1001300000F002F800F03AF80AA090E8000C8244BF
:100140008344AAF10107DA4501D100F02FF8AFF29C
:10015000090EBAE80F0013F0010F18BFFB1A43F0A5
:10016000010318478C0D0000AC0D0000103A24BFAD
:1001700078C878C1FAD8520724BF30C830C144BF0C
:1001800004680C607047000000230024002500264E
:10019000103A28BF78C1FBD8520728BF30C148BFEA
:1001A0000B6070471FB51FBD10B510BD00F033F8D0
:1001B0001146FFF7F7FF00F089FE00F051F803B495
:1001C000FFF7F2FF03BC00F07EFD00000948804706
:1001D00009480047FEE7FEE7FEE7FEE7FEE7FEE729
:1001E000FEE7FEE7FEE7FEE704480549054A064B41
:1001F00070470000690B0008310100084801002029
:10020000480700204803002048030020704770473B
:10021000704770477047754600F028F8AE460500F5
:100220006946534620F00700854618B020B5FFF711
:10023000DBFFBDE820404FF000064FF000074FF015
:1002400000084FF0000B21F00701AC46ACE8C009F4
:10025000ACE8C009ACE8C009ACE8C0098D467047FD
:100260000446AFF300802046FFF7A9FF004870471F
:10027000E800002000BFFEE770472DE9F04102468C
:1002800000250026002000230024002791F803C049
:100290000CF00F0591F803C00CF0100CBCF1000F2E
:1002A00003D091F802C04CEA050591F800C0BCF1FA
:1002B000000F31D0146800202BE04FF0010C0CFA35
:1002C00000F3B1F800C00CEA03069E4220D183007F
:1002D0004FF00F0C0CFA03F7BC4305FA03FC4CEA91
:1002E000040491F803C0BCF1280F06D14FF0010CB3
:1002F0000CFA00FCC2F814C00AE091F803C0BCF18B
:10030000480F05D14FF0010C0CFA00FCC2F810C0E8
:10031000401C0828D1D31460B1F800C0BCF1FF0F15
:1003200034DD546800202EE000F1080C4FF0010885
:1003300008FA0CF3B1F800C00CEA03069E4221D182
:1003400083004FF00F0C0CFA03F7BC4305FA03FCD3
:100350004CEA040491F803C0BCF1280F05D100F168
:10036000080C08FA0CF8C2F8148091F803C0BCF12C
:10037000480F07D100F1080C4FF0010808FA0CF8FB
:10038000C2F81080401C0828CED35460BDE8F0812C
:10039000F0B50A46002300240021002500F00046A5
:1003A000B6F1004F02D11D4EF16901E01B4E71689C
:1003B000C0F3034583B200F44016B6F5401F08D1E0
:1003C00021F07061154E766826F07066134F7E60DE
:1003D00012E000F48016B6F5801F06D1032606FA57
:1003E00005F4A14341F0706106E0460D360103FAC1
:1003F00006F6B14341F0706122B1460D360103FAB1
:1004000006F6314300F00046B6F1004F02D1034E2C
:10041000F16101E0014E7160F0BD0000000001409B
:10042000416170470161704700BFFEE708B50121D7
:10043000782000F0FDFA4FF4A040ADF80000102045
:100440008DF8030003208DF8020069461048FFF77D
:1004500014FF4FF4A060ADF8000069460D48FFF7A7
:100460000CFF4FF4A040ADF8000069460A48FFF7C2
:1004700004FF1020ADF8000069460848FFF7FDFEB4
:1004800010210648FFF7CEFF01200549086008BD8E
:100490000018014000140140000C01400010014010
:1004A000B001234208B50121282000F0C1FA012142
:1004B000084600F0BDFA01211248FFF769FFA020AD
:1004C000ADF8000010208DF8030003208DF8020025
:1004D00069460D48FFF7D1FEAA20ADF800001020B4
:1004E0008DF8030003208DF8020069460748FFF7E6
:1004F000C4FE80210448FFF795FF20210248FFF742
:100500008FFF08BD0002300000140140000C0140C4
:1005100010B5012066490860642000F01DFC002031
:100520006449C1F89401642000F016FC0120604980
:100530000860782000F010FC112000F02DFAC8208F
:1005400000F00AFC362000F027FA002000F048FAFC
:100550003A2000F021FA052000F042FAB22000F023
:100560001BFA0C2000F03CFA0C2000F039FA0020B5
:1005700000F036FA332000F033FA332000F030FA7E
:10058000B72000F009FA352000F02AFABB2000F06D
:1005900003FA2C2000F024FAC02000F0FDF92C20F2
:1005A00000F01EFAC22000F0F7F9012000F018FA5E
:1005B000C32000F0F1F90B2000F012FAC42000F083
:1005C000EBF9202000F00CFAC62000F0E5F90F202E
:1005D00000F006FAD02000F0DFF9A42000F000FAC5
:1005E000A12000F0FDF9E02000F0D6F9D02000F0C5
:1005F000F7F9062000F0F4F9012000F0F1F90E20DF
:1006000000F0EEF90E2000F0EBF9082000F0E8F918
:10061000322000F0E5F9442000F0E2F9402000F03B
:10062000DFF9082000F0DCF9102000F0D9F90F20E4
:1006300000F0D6F9152000F0D3F9192000F0D0F918
:10064000E12000F0A9F9D02000F0CAF9062000F05E
:10065000C7F9012000F0C4F90F2000F0C1F90E2005
:1006600000F0BEF9092000F0BBF92F2000F0B8F926
:10067000542000F0B5F9442000F0B2F90F2000F04A
:10068000AFF91D2000F0ACF91A2000F0A9F91620EE
:1006900000F0A6F9192000F0A3F9212000F07CF960
:1006A000292000F079F9782000F056FB10BD0000F9
:1006B000948121420080214210B5012082490860C6
:1006C000642000F049FB00208049C1F8A8016420A3
:1006D00000F042FB01207C490860782000F03CFBE0
:1006E000112000F0F5F8782000F036FBB12000F082
:1006F000EFF8052000F022F93A2000F01FF93A2027
:1007000000F01CF9B22000F0E3F8052000F016F923
:100710003A2000F013F93A2000F010F9B32000F06D
:10072000D7F8052000F00AF93A2000F007F93A203E
:1007300000F004F9052000F001F93A2000F0FEF87D
:100740003A2000F0FBF8B42000F0C2F8032000F0DB
:10075000F5F8C02000F0BCF8622000F0EFF80220AD
:1007600000F0ECF8042000F0E9F8C12000F0B0F847
:10077000C02000F0E3F8C22000F0AAF80D2000F03D
:10078000DDF8002000F0DAF8C32000F0A1F88D2099
:1007900000F0D4F86A2000F0D1F8C42000F098F8F6
:1007A0008D2000F0CBF8EE2000F0C8F8C52000F056
:1007B0008FF8122000F0C2F8032000F0BFF83620B6
:1007C00000F0BCF8C82000F0B9F8E02000F080F894
:1007D000032000F0B3F81B2000F0B0F8122000F066
:1007E000ADF8112000F0AAF83F2000F0A7F83A2059
:1007F00000F0A4F8322000F0A1F8342000F09EF8B8
:100800002F2000F09BF82B2000F098F8302000F00B
:1008100095F83A2000F092F8002000F08FF80120BF
:1008200000F08CF8022000F089F8052000F086F82E
:10083000E12000F04DF8032000F080F81B2000F0CC
:100840007DF8122000F07AF8112000F077F83220BD
:1008500000F074F82F2000F071F82A2000F06EF8F4
:100860002F2000F06BF82E2000F068F82C2000F00C
:1008700065F8352000F062F83F2000F05FF80020B6
:1008800000F05CF8002000F059F8012000F056F864
:10089000052000F053F8FC2000F01AF88C2000F03E
:1008A0004DF83A2000F014F8052000F047F8362003
:1008B00000F00EF8602000F041F8292000F008F860
:1008C000142000F049FA10BDA88122420080224283
:1008D0000022114B1A60114BC3F8A021002115E032
:1008E00000F080021AB101220D4B1A6002E00022D2
:1008F0000B4B1A6000220A4B08331A600122094B85
:10090000C3F8B8214206100E4A1CD1B20829E7DB11
:100910000122014B1A607047B80123420080224235
:10092000B08121420080214270B505460C46284620
:1009300000F004F8204600F001F870BD0022124BD0
:100940001A600122114BC3F8A021002115E000F02C
:1009500080021AB101220E4B1A6002E000220C4BF9
:100960001A6000220A4B08331A600122094BC3F8AF
:10097000B8214206100E4A1CD1B20829E7DB012239
:10098000014B1A6070470000B801234200802242E8
:10099000B08121420080214200220F4B1A600021C9
:1009A00017E000F0800222B101220B4B103B1A60CD
:1009B00003E00022084B103B1A600022064B183B54
:1009C0001A600122054BC3F884214206100E4A1C0E
:1009D000D1B20829E5DB70479C8121420080214289
:1009E00001220F4B1A60002117E000F0800222B1B3
:1009F00001220B4B103B1A6003E00022084B103B16
:100A00001A600022064B183B1A600122054BC3F8FE
:100A100084214206100E4A1CD1B20829E5DB70473A
:100A20009C8121420080214200BFFEE77047704751
:100A300029B1064A92690243044B9A6104E0034AD1
:100A400092698243014B9A61704700000010024096
:100A5000704710B500F002F810BD00000CB5002082
:100A6000019000903348006840F4803031490860BC
:100A700000BF3048006800F4003000900198401C2E
:100A80000190009818B90198B0F5A06FF1D12948EC
:100A9000006800F4003010B10120009001E0002057
:100AA00000900098012843D12348006840F01000CE
:100AB000214908600846006820F0030008600846E5
:100AC000006840F0020008601A4840681949486010
:100AD0000846406848600846406840F480604860C6
:100AE0000846406820F47C1048600846406840F49E
:100AF000E81048600846006840F08070086000BF59
:100B00000C48006800F000700028F9D009484068DF
:100B100020F00300074948600846406840F00200A2
:100B2000486000BF0348406800F00C000828F9D175
:100B30000CBD00000010024000200240042808D133
:100B40004FF0E021096941F004014FF0E02211610A
:100B500007E04FF0E021096921F004014FF0E022A5
:100B6000116170477047000010B51348006840F0ED
:100B700001001149086008464068104908400E49C4
:100B80004860084600680E4908400B49086008465E
:100B9000006820F4802008600846406820F4FE00C9
:100BA00048604FF41F008860FFF753FF4FF000606C
:100BB0000449086010BD0000001002400000FFF86A
:100BC000FFFFF6FE08ED00E010B540F225511D488C
:100BD00000F03EF810B31B4800F064F8C4B21A48A5
:100BE000008800F40040C8B91748008800F480402D
:100BF00060B10A2C03D000201349088020E012487D
:100C0000008840F400401049088019E00D2C06D1FE
:100C10000D48008840F480400B49088010E00A48E5
:100C20000088C0F30D0009490C5407480088401C97
:100C30000549088008460088C72801DD0020088093
:100C400010BD0000003801401C00002020000020E2
:100C500070B50246002400230025002040F66A16E5
:100C6000B14200D100BFC1F3421501F01F030126BC
:100C700006FA03F3012D02D19689334006E0022DD6
:100C800002D1168A334001E0968A33400C120126C5
:100C900006FA04F41688344013B10CB1012000E0C8
:100CA000002070BD01468888C0F30800704700BF6F
:100CB000FEE770B505460C462846FFF791FE204634
:100CC000FFF78EFE70BD014600BF704710B52A20A9
:100CD000FFF762FE0020FFF783FE0020FFF780FE93
:100CE0000020FFF77DFEEF20FFF77AFE2B20FFF7B5
:100CF00053FE0020FFF774FE0020FFF771FE012075
:100D0000FFF76EFE3F20FFF76BFE2C20FFF744FE3F
:100D100010BD000010B56FF00400FFF70FFF0A4888
:100D200000680A49B0FBF1F00949087008460078EC
:100D300000EB4001C1EBC0104FF6FF7101EAC000AB
:100D40000449088010BD00000000002000127A0055
:100D500014000020160000200146114A12884A4360
:100D60004FF0E0235A6100229A611A46126942F05C
:100D700001021A6100BF4FF0E022106900F0010289
:100D80001AB100F48032002AF5D04FF0E022126947
:100D900022F001024FF0E0231A6100229A617047AD
:100DA0001600002070B500262A20FFF791FD0020D4
:100DB000FFF7C4FD0120FFF7C1FD0020FFF7BEFDD6
:100DC000A020FFF7BBFD2B20FFF782FD0020FFF7DF
:100DD000B5FD1A20FFF7B2FD0020FFF7AFFD692037
:100DE000FFF7ACFD2C20FFF773FD00240BE000257E
:100DF00005E00021FF20FFF797FD681C85B2A02DBC
:100E0000F7DB601C84B2152CF1DB15240BE0002508
:100E100005E0F0210020FFF787FD681C85B2A02DBA
:100E2000F7DB601C84B2322CF1DB32240BE00025AE
:100E300005E0FF210720FFF777FD681C85B2A02D94
:100E4000F7DB601C84B2502CF1DB70BD70B5FFF78E
:100E50003DFF002519E0002413E0502C04DC0021A4
:100E6000F820FFF726FF0AE0A02C04DCE021072091
:100E7000FFF71FFF03E01F210020FFF71AFF601C90
:100E8000C4B2F02CE9DB681CC5B2782DE3DB002589
:100E900019E0002413E0502C04DCFF210846FFF782
:100EA00008FF0AE0A02C04DC00210846FFF701FF40
:100EB00003E000218420FFF7FCFE601CC4B2F02C8C
:100EC000E9DB681CC5B2782DE3DB70BDFFF722FFBC
:100ED000FFF7E8FAFFF7AAFAFFF71AFBFFF718FB8C
:100EE000FFF7B4FFFFF7E8FBFFF75CFF00BFFEE78B
:100EF000100F000800000020200000006C01000816
:100F0000300F00082000002028070000880100089A
:100F100000A24A04000000000000000001020304D7
:100F200006070809000000000000000000000000A3
:04000005080001CD21
:00000001FF
