:020000040800F2
:1000000048070020CD010008ED050008990300080D
:10001000E9050008750200080B0A0008000000004E
:10002000000000000000000000000000AD07000814
:100030007902000800000000EF050008C108000870
:10004000E7010008E7010008E7010008E7010008F0
:10005000E7010008E7010008E7010008E7010008E0
:10006000E7010008E7010008E7010008E7010008D0
:10007000E7010008E7010008E7010008E7010008C0
:10008000E7010008E7010008E7010008E7010008B0
:10009000E7010008E7010008E7010008E7010008A0
:1000A000E7010008E7010008E7010008E701000890
:1000B000E7010008E7010008E7010008E701000880
:1000C000E7010008E7010008E7010008E701000870
:1000D000E701000825090008E7010008E70100081A
:1000E000E7010008E7010008E7010008E701000850
:1000F000E7010008E7010008E7010008E701000840
:10010000E7010008E7010008E7010008E70100082F
:10011000E7010008E7010008E7010008E70100081F
:10012000E7010008E7010008E7010008E70100080F
:1001300000F002F800F03AF80AA090E8000C8244BF
:100140008344AAF10107DA4501D100F02FF8AFF29C
:10015000090EBAE80F0013F0010F18BFFB1A43F0A5
:1001600001031847140A0000340A0000103A24BFA3
:1001700078C878C1FAD8520724BF30C830C144BF0C
:1001800004680C607047000000230024002500264E
:10019000103A28BF78C1FBD8520728BF30C148BFEA
:1001A0000B6070471FB51FBD10B510BD00F033F8D0
:1001B0001146FFF7F7FF00F0B6FC00F051F803B46A
:1001C000FFF7F2FF03BC00F02CFC00000948804759
:1001D00009480047FEE7FEE7FEE7FEE7FEE7FEE729
:1001E000FEE7FEE7FEE7FEE704480549054A064B41
:1001F00070470000C50800083101000848010020D0
:10020000480700204803002048030020704770473B
:10021000704770477047754600F028F8AE460500F5
:100220006946534620F00700854618B020B5FFF711
:10023000DBFFBDE820404FF000064FF000074FF015
:1002400000084FF0000B21F00701AC46ACE8C009F4
:10025000ACE8C009ACE8C009ACE8C0098D467047FD
:100260000446AFF300802046FFF7A9FF004870471F
:10027000E800002000BFFEE770472DE9F04102468C
:1002800000250026002000230024002791F803C049
:100290000CF00F0591F803C00CF0100CBCF1000F2E
:1002A00003D091F802C04CEA050591F800C0BCF1FA
:1002B000000F31D0146800202BE04FF0010C0CFA35
:1002C00000F3B1F800C00CEA03069E4220D183007F
:1002D0004FF00F0C0CFA03F7BC4305FA03FC4CEA91
:1002E000040491F803C0BCF1280F06D14FF0010CB3
:1002F0000CFA00FCC2F814C00AE091F803C0BCF18B
:10030000480F05D14FF0010C0CFA00FCC2F810C0E8
:10031000401C0828D1D31460B1F800C0BCF1FF0F15
:1003200034DD546800202EE000F1080C4FF0010885
:1003300008FA0CF3B1F800C00CEA03069E4221D182
:1003400083004FF00F0C0CFA03F7BC4305FA03FCD3
:100350004CEA040491F803C0BCF1280F05D100F168
:10036000080C08FA0CF8C2F8148091F803C0BCF12C
:10037000480F07D100F1080C4FF0010808FA0CF8FB
:10038000C2F81080401C0828CED35460BDE8F0812C
:10039000416170470161704700BFFEE708B5012168
:1003A000602000F035F944F20100ADF800001020A3
:1003B0008DF8030003208DF8020069460D48FFF711
:1003C0005CFF4AF68020ADF8000010208DF8030095
:1003D00003208DF8020069460748FFF74EFF4FF4EF
:1003E00000410548FFF7D4FF4FF400510248FFF7E2
:1003F000D1FF08BD001401400018014010B50120D4
:100400006B4908606B49C1F89801642000F052FB09
:100410000020674908606749C1F89801642000F02E
:1004200049FB0120624908606249C1F898017820BF
:1004300000F040FB112000F0BFF8C82000F03AFBAC
:10044000362000F0B9F8002000F0C2F83A2000F0A1
:10045000B3F8052000F0BCF8B22000F0ADF80C2095
:1004600000F0B6F80C2000F0B3F8002000F0B0F86F
:10047000332000F0ADF8332000F0AAF8B72000F0E8
:100480009BF8352000F0A4F8BB2000F095F82C2054
:1004900000F09EF8C02000F08FF82C2000F098F8B3
:1004A000C22000F089F8012000F092F8C32000F08B
:1004B00083F80B2000F08CF8C42000F07DF8202099
:1004C00000F086F8C62000F077F80F2000F080F8E2
:1004D000D02000F071F8A42000F07AF8A12000F0FC
:1004E00077F8E02000F068F8D02000F071F80620DE
:1004F00000F06EF8012000F06BF80E2000F068F8B4
:100500000E2000F065F8082000F062F8322000F0BC
:100510005FF8442000F05CF8402000F059F8082013
:1005200000F056F8102000F053F80F2000F050F8BB
:10053000152000F04DF8192000F04AF8E12000F0F5
:100540003BF8D02000F044F8062000F041F80120EC
:1005500000F03EF80F2000F03BF80E2000F038F8D5
:10056000092000F035F82F2000F032F8542000F078
:100570002FF8442000F02CF80F2000F029F81D205F
:1005800000F026F81A2000F023F8162000F020F8DA
:10059000192000F01DF8212000F00EF8292000F0AD
:1005A0000BF8782000F086FA00F03EFA10BD00004B
:1005B0009C0123420000224210B50446002003495A
:1005C0000860204600F090F810BD000088812142AC
:1005D00010B50446012003490860204600F084F865
:1005E00010BD00008881214200BFFEE770477047C0
:1005F00029B1064AD2690243044BDA6104E0034A96
:10060000D2698243014BDA6170470000001002405A
:1006100029B1064A92690243044B9A6104E0034AF5
:1006200092698243014B9A617047000000100240BA
:1006300000B587B001211820FFF7EAFF01218803E8
:10064000FFF7D6FF0420ADF8180010208DF81B002E
:1006500003208DF81A0006A92048FFF70EFE40205F
:10066000ADF8180006A91E48FFF707FE4FF46040DA
:10067000ADF8180018208DF81B0003208DF81A0023
:1006800006A91648FFF7F9FD4FF460411348FFF73C
:1006900081FE0020ADF804004FF48270ADF8060032
:1006A0000020ADF808000220ADF80A000120ADF8E6
:1006B0000C004002ADF80E000020ADF81000ADF8BF
:1006C00012000720ADF8140001A9064800F050F808
:1006D0000121044800F032F807B000BD000C0140D1
:1006E000001001400038004070B50546002405E0C8
:1006F000601CC4B2C82C01DD002070BD02210E4870
:1007000000F028F80028F3D029460B4800F02EF816
:10071000002405E0601CC4B2C82C01DD0020ECE719
:100720000121054800F016F80028F3D0024800F037
:100730001AF8C0B2E1E700000038004021B1028899
:1007400042F04002028004E002884FF6BF731A4074
:10075000028070470246002013890B400BB1012034
:1007600000E000207047014688897047818170470A
:1007700010B50022028802F441520B884C882343B2
:100780008C882343CC8823430C8923434C892343FF
:100790008C892343CC8923431A430280838B4FF2F5
:1007A000FF74234083830B8A038210BD704710B50A
:1007B00000F002F810BD00000CB500200190009080
:1007C0003348006840F480303149086000BF304849
:1007D000006800F4003000900198401C01900098DF
:1007E00018B90198B0F5A06FF1D12948006800F45C
:1007F000003010B10120009001E00020009000982E
:10080000012843D12348006840F0100021490860C6
:100810000846006820F0030008600846006840F0C1
:10082000020008601A484068194948600846406854
:1008300048600846406840F4806048600846406868
:1008400020F47C1048600846406840F4E810486096
:100850000846006840F08070086000BF0C480068DF
:1008600000F000700028F9D00948406820F003002B
:10087000074948600846406840F00200486000BFF1
:100880000348406800F00C000828F9D10CBD0000B6
:100890000010024000200240042808D14FF0E0215F
:1008A000096941F004014FF0E022116107E04FF0C7
:1008B000E021096921F004014FF0E0221161704745
:1008C0007047000010B51348006840F0010011495E
:1008D000086008464068104908400E4948600846CC
:1008E00000680E4908400B4908600846006820F47B
:1008F000802008600846406820F4FE0048604FF4FD
:100900001F008860FFF753FF4FF000600449086044
:1009100010BD0000001002400000FFF8FFFFF6FECF
:1009200008ED00E010B540F225511D4800F03EF8FA
:1009300010B31B4800F064F8C4B21A48008800F4F1
:100940000040C8B91748008800F4804060B10A2C04
:1009500003D000201349088020E01248008840F4AA
:1009600000401049088019E00D2C06D10D48008880
:1009700040F480400B49088010E00A480088C0F32A
:100980000D0009490C5407480088401C054908809F
:1009900008460088C72801DD0020088010BD00003F
:1009A000003801401C0000202000002070B50246E5
:1009B000002400230025002040F66A16B14200D131
:1009C00000BFC1F3421501F01F03012606FA03F32D
:1009D000012D02D19689334006E0022D02D1168AFC
:1009E000334001E0968A33400C12012606FA04F4E3
:1009F0001688344013B10CB1012000E0002070BD16
:100A000001468888C0F30800704700BFFEE770B554
:100A100005460C462846FFF7DBFD2046FFF7D8FDCC
:100A200070BD014600BF704710B52A20FFF7C4FD16
:100A30000020FFF7CDFD0020FFF7CAFD0020FFF7E3
:100A4000C7FDEF20FFF7C4FD2B20FFF7B5FD002009
:100A5000FFF7BEFD0020FFF7BBFD0020FFF7B8FD4C
:100A6000EF20FFF7B5FD2C20FFF7A6FD10BD00001D
:100A700010B56FF00400FFF70FFF0A4800680A493D
:100A8000B0FBF1F0094908700846007800EB40011E
:100A9000C1EBC0104FF6FF7101EAC00004490880A5
:100AA00010BD00000000002000127A001400002099
:100AB000160000200146114A12884A434FF0E023F5
:100AC0005A6100229A611A46126942F001021A61C3
:100AD00000BF4FF0E022106900F001021AB100F4EB
:100AE0008032002AF5D04FF0E022126922F0010294
:100AF0004FF0E0231A6100229A617047160000202F
:100B000070B5044600250BE0002605E0E1B2201296
:100B1000FFF77DFF701CC6B2F02EF7DB681CC5B274
:100B2000F02DF1DB70BD00BF00BFFFF7A1FFFFF7A5
:100B300035FCFFF77DFDFFF761FCFFF75FFC002050
:100B4000FFF7DEFF16E04FF47840FFF7D9FF4FF4D0
:100B50009670FFF7AFFF4FF4FC60FFF7D1FF4FF443
:100B60009670FFF7A7FF1F20FFF7CAFF4FF496709C
:100B7000FFF7A0FFE7E70000980B00080000002047
:100B8000200000006C010008B80B000820000020C5
:100B9000280700008801000800A24A0400000000A5
:100BA000000000000102030406070809000000001D
:080BB00000000000000000003D
:04000005080001CD21
:00000001FF
