:020000040800F2
:100000003807002029020008450F00086703000890
:10001000410F0008D1020008D311000800000000C1
:10002000000000000000000000000000690F000850
:10003000D502000800000000470F000881100008EA
:10004000430200084302000843020008430200087C
:10005000430200084302000843020008430200086C
:10006000430200084302000843020008430200085C
:10007000430200084302000843020008430200084C
:10008000430200084302000843020008430200083C
:10009000430200084302000843020008430200082C
:1000A000430200084302000843020008430200081C
:1000B000430200084302000843020008430200080C
:1000C00043020008430200084302000843020008FC
:1000D00043020008ED100008430200084302000834
:1000E00043020008430200084302000843020008DC
:1000F00043020008430200084302000843020008CC
:1001000043020008430200084302000843020008BB
:1001100043020008430200084302000843020008AB
:10012000430200084302000843020008430200089B
:10013000430200084302000843020008430200088B
:10014000430200084302000843020008430200087B
:10015000430200084302000843020008430200086B
:10016000430200084302000843020008430200085B
:10017000430200084302000843020008430200084B
:10018000430200084302000800F002F800F03CF8C7
:100190000AA090E8000C82448344AAF10107DA45E2
:1001A00001D100F031F8AFF2090EBAE80F0013F0F8
:1001B000010F18BFFB1A43F0010318470411000098
:1001C00024110000103A24BF78C878C1FAD8520729
:1001D00024BF30C830C144BF04680C6070470000C1
:1001E0000023002400250026103A28BF78C1FBD840
:1001F000520728BF30C148BF0B6070471FB501F0E0
:100200005AF81FBD10B510BD00F033F81146FFF7C6
:10021000F5FF01F043F800F051F803B4FFF7F2FFE7
:1002200003BC00F0D8FF0000094880470948004798
:10023000FEE7FEE7FEE7FEE7FEE7FEE7FEE7FEE796
:10024000FEE7FEE704480549054A064B70470000F3
:1002500085100008890100083801002038070020B7
:1002600038030020380300207047704770477047FC
:100270007047754600F028F8AE46050069465346BB
:1002800020F00700854618B020B5FFF7DBFFBDE87A
:1002900020404FF000064FF000074FF000084FF0ED
:1002A000000B21F00701AC46ACE8C009ACE8C0097E
:1002B000ACE8C009ACE8C0098D4670470446AFF30E
:1002C00000802046FFF7A9FF00487047D4000020B7
:1002D00000BFFEE77047F0B50A4600210023002466
:1002E00000BF3DE0012505FA01F3156805EA0304A6
:1002F0009C4234D105684F000326BE40B5430560DB
:1003000015794E00B5400668354305601579012D15
:1003100002D01579022D16D185684F000326BE4004
:10032000B543856055794E00B54086683543856094
:10033000456801268E40B5434560456896798E40F4
:10034000B6B235434560C5684F000326BE40B5438D
:10035000C560D5794E00B540C6683543C560491CB7
:100360001029BFD3F0BD00BFFEE7000070B5064600
:1003700041F22C50864223D100214FF4047000F04A
:1003800081FDEF2140F2112000F07CFD002140F2C0
:10039000122000F077FD40F28F1140F2132000F0A0
:1003A00071FD002140F2012000F06CFD00214FF4AE
:1003B000007000F067FD40F2022000F055FD1EE0E5
:1003C00042F2094086421AD1AF21362000F05AFD90
:1003D0000021372000F056FDDB21382000F052FDCF
:1003E0000021392000F04EFD0021202000F04AFDC0
:1003F0000021212000F046FD222000F035FD0120E3
:100400002449086000202449C1F89C0200240BE024
:10041000002504E0002000F019FD681C85B2B5F548
:10042000C87FF7DB601C84B2F02CF1DB00240BE00A
:10043000002504E01F2000F009FD681C85B2B5F519
:10044000C87FF7DB601C84B2502CF1DB00240CE089
:10045000002505E04FF4FC6000F0F8FC681C85B254
:10046000B5F5C87FF6DB601C84B2502CF0DB0024AD
:100470000CE0002505E04FF4704000F0E7FC681C3C
:1004800085B2B5F5C87FF6DB601C84B2502CF0DB7A
:1004900070BD0000A8824142000042421CB50446E3
:1004A00001211A2000F050FD4FF6807000900120CD
:1004B0008DF8040000208DF8060003208DF805005B
:1004C00001208DF807006946FA48FFF704FF4FF452
:1004D000E06000906946F848FFF7FDFE4FF40040E9
:1004E00000906946F548FFF7F6FE0020F4490860E1
:1004F000642000F091FE0120F249C1F8BC020A20FC
:1005000000F08AFE0120F0490860F0490860091DEA
:100510000860052000F080FE0020ED49C1F89C0233
:1005200042F26E4084427DD143F2080140F20270F3
:1005300000F0A8FC362140F2057000F0A3FC41F267
:10054000132140F20B7000F09DFC4FF480710120EC
:1005500000F098FC4FF48071022000F093FC3021F1
:10056000032000F08FFC40F20221082000F08AFCFA
:100570000021092000F086FC00210C2000F082FC04
:1005800000210F2000F07EFC00214FF4807000F06D
:1005900079FC00214FF4817000F074FC002140F2DE
:1005A000031000F06FFCC82000F036FE41F29011FD
:1005B0004FF4807000F066FC40F2272140F20110F9
:1005C00000F060FC322000F027FE1D214FF4817006
:1005D00000F058FC322000F01FFE4FF4005140F2B2
:1005E000031000F04FFC012140F2812000F04AFC92
:1005F000002140F20B2000F045FC322000F00CFE00
:1006000000214FF4007000F03DFC002140F2012079
:1006100000F038FC00214FF4407000F033FC40F251
:10062000022100E090E040F2013000F02BFC40F2AB
:10063000022140F2023000F025FC40F2022140F29B
:10064000053000F01FFC40F2022140F2063000F0BD
:1006500019FC40F2022140F2073000F013FC40F296
:1006600002214FF4427000F00DFC40F2022140F2F2
:10067000093000F007FC40F202214FF4437000F013
:1006800001FC40F2022140F20D3000F0FBFB0021A2
:100690004FF4047000F0F6FBEF2140F2112000F05F
:1006A000F1FB002140F2122000F0ECFB40F28F1130
:1006B00040F2132000F0E6FB4FF444514FF4806009
:1006C00000F0E0FB012140F2014000F0DBFB0021E3
:1006D00040F2044000F0D6FB00214FF4A06000F08F
:1006E000D1FB002140F2015000F0CCFB002140F290
:1006F000025000F0C7FB002140F2035000F0C2FBA3
:10070000002140F2045000F0BDFB002140F20550F2
:1007100000F0B8FB1021084600F0B4FB4FF4C061B4
:10072000112000F0AFFB0221202000F0ABFB40F2D3
:100730007311072000F0A6FB40F2022000F094FBAA
:10074000142000F069FD80E341F2C71084427DD19E
:100750003021152000F096FB1021112000F092FBB3
:1007600043F22861102000F08DFB0521122000F0DB
:1007700089FB4FF46461132000F084FB282000F013
:100780004BFD1521122000F07DFB282000F044FDD8
:1007900043F22061102000F075FB4FF43951132013
:1007A00000F070FB142000F037FD0721302000F02E
:1007B00069FB40F20261312000F064FB4FF4837169
:1007C000322000F05FFB40F20541332000F05AFB7D
:1007D00040F20321342000F055FB40F20261352045
:1007E00000F050FB0721362000F04CFB40F2045192
:1007F000372000F047FB40F60901382000F042FBAB
:1008000040F60901392000F03DFB142000F004FD02
:100810004FF48071012000F035FB4FF4407102204D
:1008200000F030FB41F23001032000F02BFB40F6DA
:100830000801082000F026FB08210A2000F022FB16
:100840004FF44451602000F01DFB00E042E0012124
:10085000612000F017FB5421902000F013FB40F2C0
:100860000F11922000F00EFB40F20151932000F096
:1008700009FB09219A2000F005FB1021A32000F0BC
:1008800001FB0121072000F0FDFA2121072000F0E3
:10089000F9FA2321072000F0F5FA3321072000F0B0
:1008A000F1FA40F23311072000F0ECFA142000F0C6
:1008B000B3FCCAE200100240000C024000040240F7
:1008C000BC824042008040429C024242A08241429F
:1008D0000000424241F22C5084427DD10021084662
:1008E00000F0D0FA4FF48071012000F0CBFA4FF401
:1008F0008071022000F0C6FA41F23001032000F0BE
:10090000C1FA40F60801082000F0BCFA01210920D4
:1009100000F0B8FA10210B2000F0B4FA00210C20EE
:1009200000F0B0FA00210F2000F0ACFA01210720FE
:1009300000F0A8FA1121102000F0A4FA4FF4007181
:10094000112000F09FFA4FF44071122000F09AFA43
:1009500040F21E21202000F095FA40F202212120D1
:1009600000F090FA4FF48071222000F08BFA4FF4DF
:100970000041902000F086FA41F2B0714FF480708F
:1009800000F080FA40F2471140F2011000F07AFACC
:100990004FF49C714FF4817000F074FA4FF44051A1
:1009A00040F2031000F06EFA002140F2071000F050
:1009B00069FA01214FF4887000F064FA00214FF4C5
:1009C000207000F05FFA002140F2812000F05AFA16
:1009D000002140F2822000E0E8E000F053FA41F20A
:1009E00011014FF4407000F04DFA42F2245140F2F0
:1009F000013000F047FA42F6207140F2023000F078
:100A000041FA42F22F0140F2033000F03BFA42F289
:100A100025314FF4417000F035FA41F2101140F2E7
:100A2000053000F02FFA40F6046140F2063000F085
:100A300029FA40F20E4140F2073000F023FA052176
:100A40004FF4427000F01EFA032140F2093000F02A
:100A500019FA40F6047140F20A3000F013FA4FF42C
:100A6000706140F20B3000F00DFA0F214FF443702B
:100A700000F008FA40F20F4140F20D3000F002FAA7
:100A80004FF4407140F20E3000F0FCF94FF4A061D9
:100A900040F20F3000F0F6F94FF454514FF48060FB
:100AA00000F0F0F9012140F2014000F0EBF90021E3
:100AB00040F2044000F0E6F9002140F2012000F08D
:100AC000E1F900214FF4007000F0DCF900214FF44F
:100AD000047000F0D7F9EF2140F2112000F0D2F9B4
:100AE000002140F2122000F0CDF940F28F1140F2C7
:100AF000132000F0C7F900214FF4A06000F0C2F904
:100B0000002140F2015000F0BDF9002140F20250F6
:100B100000F0B8F9002140F2035000F0B3F90021D1
:100B200040F2045000F0AEF9002140F2055000F010
:100B3000A9F900214FF4C06000F0A4F9002140F2AF
:100B4000066000F09FF900214FF4DE6000F09AF992
:100B500045F220414FF4FE6000F094F9002140F28C
:100B6000DE7000F08FF9DF2140F2F27000F08AF9B8
:100B700040F68E0140F2F37000F084F9222140F239
:100B8000F47000F07FF9012140F2F57000F07AF97D
:100B900000214FF4FE6000F075F940F27311072058
:100BA00000F070F9962000F037FB4EE14FF245005F
:100BB0008442FAD1002000F057F9002000F054F9E7
:100BC0000A2000F029FB002000F04EF9002000F080
:100BD0004BF9002000F048F9002000F045F90A2008
:100BE00000F01AFB4FF4806000F03EF94FF4C4406F
:100BF00000F02CF9082000F037F940F6080000F06A
:100C000025F94FF4407000F02FF940F2091000F080
:100C10001DF940F2013000F027F947F60A6000F0B4
:100C200015F940F2023000F01FF940F2047000F0B4
:100C30000DF940F2033000F017F940F6111000F002
:100C400005F94FF4417000F00FF94FF4045000F033
:100C5000FDF840F2053000F007F941F2091000F00C
:100C6000F5F840F2063000F0FFF847F2074000F0D8
:100C7000EDF840F2073000F0F7F840F60E2000F0F3
:100C8000E5F84FF4427000F0EFF840F6011000F084
:100C9000DDF840F2093000F0E7F8212000F0D6F846
:100CA000102000F0E1F8182000F0D0F8112000F03A
:100CB000DBF840F2022000F0C9F8122000F0D4F86E
:100CC0004FF4407000F0C2F8132000F0CDF8072078
:100CD00000F0BCF80A2000F09FFA4FF4807000F09A
:100CE000C3F84FF44C7000F0B1F840F2011000F07E
:100CF000BBF840F2472000F0A9F840F2031000F0E2
:100D0000B3F84FF4805000F0A1F84FF4207000F0D9
:100D1000ABF84FF4484000F099F84FF4817000F0C0
:100D2000A3F84DF2B01000F091F8642000F074FACE
:100D3000012000F099F84FF4807000F087F802204D
:100D400000F092F84FF4807000F080F8032000F07B
:100D50008BF845F2380000F079F8092000F084F8AB
:100D6000012000F073F80C2000F07EF8002000F065
:100D70006DF8902000F078F84FF4004000F066F82D
:100D80000F2000F071F8002000F060F84FF40470BC
:100D900000F06AF8002000F059F840F2112000F04D
:100DA00063F8EF2000F052F840F2122000F05CF8F7
:100DB000002000F04BF840F2132000F055F840F20C
:100DC0008F1000F043F84FF4A06000F04DF80020C1
:100DD00000F03CF840F2015000F046F8002000F02E
:100DE00035F840F2025000F03FF85F2000F02EF896
:100DF00040F2014000F038F8012000F027F840F2FE
:100E0000044000F031F8002000F020F8322000F01B
:100E100003FA072000F028F84FF4807000F016F86D
:100E2000642000F0F9F94FF4007000F01DF8002084
:100E300000F00CF840F2012000F016F8002000F05D
:100E400005F840F2022000F00FF81CBD10B5044672
:100E5000012004490860E1B2C4F3072000F01CF847
:100E600010BD0000A882414210B50446002004498C
:100E70000860E1B2C4F3072000F00EF810BD0000D6
:100E8000A882414230B505460C462846FFF7ECFFE4
:100E90002046FFF7DBFF30BDF0B502460B460020D1
:100EA0000021002509E04FF6FF7606EA400002F037
:100EB0000106304352106E1CB5B2072DF3DD00243D
:100EC00009E04FF6FF7606EA410103F001063143DF
:100ED0005B10661CB4B2072CF3DD4FF6FF7606EA12
:100EE000002006EA01210026104F3E600126104F27
:100EF000C7F8A4620026C7F8A4620E4E70610126EE
:100F00000D4F3E60094F3E6000263E6001260A4FAD
:100F10003E600026064FC7F8A462064E71610126A6
:100F2000054F3E60054FC7F89C62F0BD9C024242EF
:100F30000080414200100240A4824142000042422F
:100F400000BFFEE77047704729B1064A12680243A6
:100F5000044B1A6004E0034A12688243014B1A6092
:100F60007047000030380240704700000CB5002088
:100F7000019000903448006840F4803032490860A5
:100F800000BF3148006800F4003000900198401C18
:100F90000190009818B90198B0F5A04FF1D12A48F6
:100FA000006800F4003010B10120009001E0002042
:100FB00000900098012846D123484030006840F056
:100FC00080502149403108602048006840F440408A
:100FD0001E4908601C48083000681B490831086039
:100FE0000846006840F4004008600846006840F485
:100FF000A05008601648091F0860081F006840F0EC
:101000008070091F086000BF0F48006800F0007082
:101010000028F9D040F205700E4908600A480830EF
:10102000006820F00300084908310860084600689D
:1010300040F00200086000BF03480830006800F07C
:101040000C000828F8D10CBD0038024000700040A8
:1010500008544007003C0240042808D14FF0E0212A
:10106000096941F004014FF0E022116107E04FF0FF
:10107000E021096921F004014FF0E022116170477D
:101080007047000010B51548006840F4700013491F
:1010900008601348006840F0010011490860002012
:1010A0000F49083108600E4800680E4908400C4995
:1010B00008600D48091D0860081F006820F48020A2
:1010C000091F0860002006490C310860FFF74EFF39
:1010D0004FF0006001498039086010BD88ED00E0E4
:1010E00000380240FFFFF6FE1030002410B540F239
:1010F00025511D4800F03EF810B31B4800F064F87D
:10110000C4B21A48008800F40040C8B917480088E3
:1011100000F4804060B10A2C03D0002013490880FD
:1011200020E01248008840F400401049088019E08F
:101130000D2C06D10D48008840F480400B490880F2
:1011400010E00A480088C0F30D0009490C54074814
:101150000088401C0549088008460088C72801DD32
:101160000020088010BD0000001001400800002091
:101170000C00002070B5024600240023002500204A
:1011800040F66A16B14200D100BFC1F3421501F02A
:101190001F03012606FA03F3012D02D1968933407D
:1011A00006E0022D02D1168A334001E0968A3340D0
:1011B0000C12012606FA04F41688344013B10CB15F
:1011C000012000E0002070BD01468888C0F30800BF
:1011D000704700BFFEE700BF7047000010B504462F
:1011E0006FF00400FFF738FFE11704EB5171C1F312
:1011F000C701074A11701046007800EB4001C1EBAF
:10120000C0104FF6FF7101EAC0000249088010BD0E
:10121000000000200200002070B504464FF4077063
:1012200094FBF0F0C6B24FF4077094FBF0F100FBB2
:10123000114085B205E04FF4077000F009F8701E08
:10124000C6B2002EF7D115B1284600F001F870BDE6
:101250000146114A12884A434FF0E0235A610022A6
:101260009A611A46126942F001021A6100BF4FF0FA
:10127000E022106900F001021AB100F48032002A65
:10128000F5D04FF0E022126922F001024FF0E02386
:101290001A6100229A61704702000020A820FFF71F
:1012A0009DFF4FF24500FFF7F9F841F22C50FFF790
:1012B0005DF800BFFEE74FF04070E1EE100A7047A6
:1012C000E0120008000000200C000000C40100082B
:1012D000EC1200080C0000202C070000E0010008C0
:0C12E00000000000000000000000000002
:040000050800018965
:00000001FF
