:020000040800F2
:1000000038070020290200082D11000867030008A6
:1000100029110008D1020008BB13000800000000ED
:100020000000000000000000000000005111000866
:10003000D5020008000000002F1100086912000816
:10004000430200084302000843020008430200087C
:10005000430200084302000843020008430200086C
:10006000430200084302000843020008430200085C
:10007000430200084302000843020008430200084C
:10008000430200084302000843020008430200083C
:10009000430200084302000843020008430200082C
:1000A000430200084302000843020008430200081C
:1000B000430200084302000843020008430200080C
:1000C00043020008430200084302000843020008FC
:1000D00043020008D512000843020008430200084A
:1000E00043020008430200084302000843020008DC
:1000F00043020008430200084302000843020008CC
:1001000043020008430200084302000843020008BB
:1001100043020008430200084302000843020008AB
:10012000430200084302000843020008430200089B
:10013000430200084302000843020008430200088B
:10014000430200084302000843020008430200087B
:10015000430200084302000843020008430200086B
:10016000430200084302000843020008430200085B
:10017000430200084302000843020008430200084B
:10018000430200084302000800F002F800F03CF8C7
:100190000AA090E8000C82448344AAF10107DA45E2
:1001A00001D100F031F8AFF2090EBAE80F0013F0F8
:1001B000010F18BFFB1A43F001031847EC120000AF
:1001C0000C130000103A24BF78C878C1FAD852073F
:1001D00024BF30C830C144BF04680C6070470000C1
:1001E0000023002400250026103A28BF78C1FBD840
:1001F000520728BF30C148BF0B6070471FB501F0E0
:100200004EF91FBD10B510BD00F033F81146FFF7D1
:10021000F5FF01F037F900F051F803B4FFF7F2FFF2
:1002200003BC01F0CCF800000948804709480047AA
:10023000FEE7FEE7FEE7FEE7FEE7FEE7FEE7FEE796
:10024000FEE7FEE704480549054A064B70470000F3
:100250006D120008890100083801002038070020CD
:1002600038030020380300207047704770477047FC
:100270007047754600F028F8AE46050069465346BB
:1002800020F00700854618B020B5FFF7DBFFBDE87A
:1002900020404FF000064FF000074FF000084FF0ED
:1002A000000B21F00701AC46ACE8C009ACE8C0097E
:1002B000ACE8C009ACE8C0098D4670470446AFF30E
:1002C00000802046FFF7A9FF00487047D4000020B7
:1002D00000BFFEE77047F0B50A4600210023002466
:1002E00000BF3DE0012505FA01F3156805EA0304A6
:1002F0009C4234D105684F000326BE40B5430560DB
:1003000015794E00B5400668354305601579012D15
:1003100002D01579022D16D185684F000326BE4004
:10032000B543856055794E00B54086683543856094
:10033000456801268E40B5434560456896798E40F4
:10034000B6B235434560C5684F000326BE40B5438D
:10035000C560D5794E00B540C6683543C560491CB7
:100360001029BFD3F0BD00BFFEE7000070B5064600
:1003700041F22C50864223D100214FF4047000F04A
:1003800075FEEF2140F2112000F070FE002140F2D6
:10039000122000F06BFE40F28F1140F2132000F0AB
:1003A00065FE002140F2012000F060FE00214FF4C4
:1003B000007000F05BFE40F2022000F049FE1EE0FB
:1003C00042F2094086421AD1AF21362000F04EFE9B
:1003D0000021372000F04AFEDB21382000F046FEE5
:1003E0000021392000F042FE0021202000F03EFED6
:1003F0000021212000F03AFE222000F029FE0120F9
:100400002249086000202249C1F89C0200240BE028
:10041000002504E0002000F00DFE681C85B2B5F553
:10042000C87FF7DB601C84B2F02CF1DB00240AE00B
:10043000002504E01F2000F0FDFD681C85B2F02DB2
:10044000F8DB601C84B2852CF2DB00240BE0002575
:1004500005E04FF4784000F0EDFD681C85B2F02D0A
:10046000F7DB601C84B2852CF1DB00240BE0002557
:1004700005E04FF4FC6000F0DDFD681C85B2F02D56
:10048000F7DB601C84B2862CF1DB70BDA882414290
:10049000000042421CB5044601211A2000F048FE2B
:1004A0004FF68070009001208DF8040000208DF838
:1004B000060003208DF8050001208DF8070069462D
:1004C000FA48FFF708FF4FF4E06000906946F848EB
:1004D000FFF701FF4FF4004000906946F548FFF731
:1004E000FAFE0020F4490860642000F089FF012032
:1004F000F249C1F8BC020A2000F082FF0120F04955
:100500000860F0490860091D0860052000F078FFC8
:100510000020ED49C1F89C0242F26E4084427DD138
:1005200043F2080140F2027000F0A0FD362140F2D3
:10053000057000F09BFD41F2132140F20B7000F0BA
:1005400095FD4FF48071012000F090FD4FF4807113
:10055000022000F08BFD3021032000F087FD40F2E7
:100560000221082000F082FD0021092000F07EFD1C
:1005700000210C2000F07AFD00210F2000F076FD14
:1005800000214FF4807000F071FD00214FF4817064
:1005900000F06CFD002140F2031000F067FDC82060
:1005A00000F02EFF41F290114FF4807000F05EFDDC
:1005B00040F2272140F2011000F058FD322000F0F7
:1005C0001FFF1D214FF4817000F050FD322000F01C
:1005D00017FF4FF4005140F2031000F047FD0121D6
:1005E00040F2812000F042FD002140F20B2000F09B
:1005F0003DFD322000F004FF00214FF4007000F0B8
:1006000035FD002140F2012000F030FD00214FF4C3
:10061000407000F02BFD40F2022100E090E040F23B
:10062000013000F023FD40F2022140F2023000F0E0
:100630001DFD40F2022140F2053000F017FD40F2AE
:10064000022140F2063000F011FD40F2022140F29A
:10065000073000F00BFD40F202214FF4427000F031
:1006600005FD40F2022140F2093000F0FFFC40F2AB
:1006700002214FF4437000F0F9FC40F2022140F2F5
:100680000D3000F0F3FC00214FF4047000F0EEFC9C
:10069000EF2140F2112000F0E9FC002140F212208D
:1006A00000F0E4FC40F28F1140F2132000F0DEFC79
:1006B0004FF444514FF4806000F0D8FC012140F227
:1006C000014000F0D3FC002140F2044000F0CEFCD9
:1006D00000214FF4A06000F0C9FC002140F201505D
:1006E00000F0C4FC002140F2025000F0BFFC0021E9
:1006F00040F2035000F0BAFC002140F2045000F038
:10070000B5FC002140F2055000F0B0FC1021084675
:1007100000F0ACFC4FF4C061112000F0A7FC0221F6
:10072000202000F0A3FC40F27311072000F09EFC93
:1007300040F2022000F08CFC142000F061FE28E35F
:1007400041F2C71084427DD13021152000F08EFC8B
:100750001021112000F08AFC43F22861102000F0E3
:1007600085FC0521122000F081FC4FF46461132008
:1007700000F07CFC282000F043FE1521122000F040
:1007800075FC282000F03CFE43F22061102000F0B0
:100790006DFC4FF43951132000F068FC142000F078
:1007A0002FFE0721302000F061FC40F20261312071
:1007B00000F05CFC4FF48371322000F057FC40F2F3
:1007C0000541332000F052FC40F20321342000F0B8
:1007D0004DFC40F20261352000F048FC0721362034
:1007E00000F044FC40F20451372000F03FFC40F69A
:1007F0000901382000F03AFC40F60901392000F0E8
:1008000035FC142000F0FCFD4FF48071012000F055
:100810002DFC4FF44071022000F028FC41F2300121
:10082000032000F023FC40F60801082000F01EFC25
:1008300008210A2000F01AFC4FF44451602000F017
:1008400015FC00E042E00121612000F00FFC542182
:10085000902000F00BFC40F20F11922000F006FCFB
:1008600040F20151932000F001FC09219A2000F090
:10087000FDFB1021A32000F0F9FB0121072000F06F
:10088000F5FB2121072000F0F1FB2321072000F0D8
:10089000EDFB3321072000F0E9FB40F23311072084
:1008A00000F0E4FB142000F0ABFDC2E300100240B6
:1008B000000C024000040240BC82404200804042E2
:1008C0009C024242A08241420000424241F22C502E
:1008D00084427DD140F2066000F0BAFB002000F0B7
:1008E000A9FB642000F08CFD072000F0B1FB012083
:1008F00000F0A0FB052000F083FD4FF4887000F0AD
:10090000A7FB012000F096FB052000F079FD4FF4D5
:10091000807000F09DFB41F2B07000F08BFB40F264
:10092000011000F095FB40F2471000F083FB4FF4FC
:10093000817000F08DFB40F29D1000F07BFB40F2D7
:10094000031000F085FB4FF4585000F073FB40F2A9
:10095000812000F07DFB102000F06CFB052000F0F2
:100960004FFD4FF4817000F073FB40F2BD1000F0BA
:1009700061FB052000F044FD002000F069FB002031
:1009800000F058FB012000F063FB4FF4807000F092
:1009900051FB022000F05CFB4FF4807000F04AFB3A
:1009A000032000F055FB41F2B00000F043FB0620AD
:1009B00000F04EFB002000F03DFB082000F048FB5B
:1009C00040F2035000F036FB092000F041FB00E04C
:1009D000E0E1012000F02EFB0B2000F039FB10209D
:1009E00000F028FB0C2000F033FB002000F022FB7D
:1009F0000F2000F02DFB002000F01CFB072000F072
:100A000027FB012000F016FB102000F021FB142032
:100A100000F010FB112000F01BFB40F2022000F060
:100A200009FB122000F014FB4FF4407000F002FBB1
:100A3000202000F00DFB40F21E2000F0FBFA2120E8
:100A400000F006FB40F2022000F0F4FA902000F0E3
:100A5000FFFA4FF4004000F0EDFA922000F0F8FAAF
:100A6000002000F0E7FA4FF4807000F0F1FA41F254
:100A7000B03000F0DFFA0A2000F0C2FC40F20110B2
:100A800000F0E6FA40F2471000F0D4FA0A2000F035
:100A9000B7FC4FF4817000F0DBFA40F28D1000F0EB
:100AA000C9FA0A2000F0ACFC40F2031000F0D0FAC2
:100AB0004FF4007000F0BEFA0A2000F0A1FC40F2F2
:100AC000071000F0C5FA002000F0B4FA0A2000F088
:100AD00097FC4FF4887000F0BBFA012000F0AAFAEE
:100AE0000A2000F08DFC4FF4047000F0B1FA0020F1
:100AF00000F0A0FA40F2112000F0AAFAEF2000F076
:100B000099FA40F2122000F0A3FA002000F092FAC5
:100B100040F2132000F09CFA40F28F1000F08AFAA5
:100B20004FF4007000F094FA002000F083FA40F2D5
:100B3000012000F08DFA002000F07CFA4FF42070C4
:100B400000F086FA002000F075FA40F2812000F0F3
:100B50007FFA002000F06EFA40F2822000F078FA6E
:100B6000002000F067FA0A2000F04AFC4FF44070C1
:100B700000F06EFA102000F05DFA40F2013000F053
:100B800067FA40F2372000F055FA40F2023000F0E8
:100B90005FFA40F23A4000F04DFA40F2033000F0C4
:100BA00057FA43F6043000F045FA4FF4417000F074
:100BB0004FFA43F2027000F03DFA40F2053000F0C7
:100BC00047FA4FF4805000F035FA40F2063000F05A
:100BD0003FFA41F2034000F02DFA40F2073000F0F6
:100BE00037FA4FF4457000F025FA4FF4427000F0E8
:100BF0002FFA4FF4417000F01DFA40F2093000F076
:100C000027FA4FF4417000F015FA40F20A3000F074
:100C10001FFA40F6065000F00DFA40F20B3000F0DB
:100C200017FA40F6026000F005FA4FF4437000F046
:100C30000FFA40F20E2000F0FDF940F20D3000F006
:100C400007FA40F20D6000F0F5F940F20E3000F0C6
:100C5000FFF940F2034000F0EDF940F20F3000F0F0
:100C6000F7F940F2034000F0E5F94FF4806000F03E
:100C7000EFF94FF4545000F0DDF940F2014000F07C
:100C8000E7F9012000F0D6F940F2044000F0E0F965
:100C9000002000F0CFF94FF4A06000F0D9F9002057
:100CA00000F0C8F940F2015000F0D2F9002000F045
:100CB000C1F940F2025000F0CBF9002000F0BAF97F
:100CC00040F2035000F0C4F9002000F0B3F940F204
:100CD000045000F0BDF9002000F0ACF940F20550DE
:100CE00000F0B6F9002000F0A5F94FF4C06000F064
:100CF000AFF9002000F09EF940F2066000F0A8F97C
:100D0000002000F097F94FF4DE6000F0A1F9002018
:100D100000F090F94FF4FE6000F09AF945F220409F
:100D200000F088F940F2F37000F092F942F68B007F
:100D300000F080F940F2F47000F08AF9222000F00F
:100D400079F940F2F57000F083F9112000F072F9A2
:100D50004FF4FE6000F07CF9002000F06BF90720F2
:100D600000F076F940F2731000F064F9052000F00D
:100D700047FB072000F06CF9612000F05BF90520CB
:100D800000F03EFB072000F063F940F2731000F022
:100D900051F94EE14FF245008442FAD1002000F0B3
:100DA00057F9002000F054F90A2000F029FB002038
:100DB00000F04EF9002000F04BF9002000F048F957
:100DC000002000F045F90A2000F01AFB4FF4806083
:100DD00000F03EF94FF4C44000F02CF9082000F078
:100DE00037F940F6080000F025F94FF4407000F0A4
:100DF0002FF940F2091000F01DF940F2013000F027
:100E000027F947F60A6000F015F940F2023000F0C9
:100E10001FF940F2047000F00DF940F2033000F0C9
:100E200017F940F6111000F005F94FF4417000F089
:100E30000FF94FF4045000F0FDF840F2053000F0D7
:100E400007F941F2091000F0F5F840F2063000F021
:100E5000FFF847F2074000F0EDF840F2073000F0ED
:100E6000F7F840F60E2000F0E5F84FF4427000F07D
:100E7000EFF840F6011000F0DDF840F2093000F024
:100E8000E7F8212000F0D6F8102000F0E1F8182053
:100E900000F0D0F8112000F0DBF840F2022000F062
:100EA000C9F8122000F0D4F84FF4407000F0C2F8F6
:100EB000132000F0CDF8072000F0BCF80A2000F065
:100EC0009FFA4FF4807000F0C3F84FF44C7000F0BC
:100ED000B1F840F2011000F0BBF840F2472000F0FA
:100EE000A9F840F2031000F0B3F84FF4805000F07E
:100EF000A1F84FF4207000F0ABF84FF4484000F038
:100F000099F84FF4817000F0A3F84DF2B01000F0A2
:100F100091F8642000F074FA012000F099F84FF481
:100F2000807000F087F8022000F092F84FF4807093
:100F300000F080F8032000F08BF845F2380000F054
:100F400079F8092000F084F8012000F073F80C20F3
:100F500000F07EF8002000F06DF8902000F078F8A6
:100F60004FF4004000F066F80F2000F071F8002008
:100F700000F060F84FF4047000F06AF8002000F010
:100F800059F840F2112000F063F8EF2000F052F819
:100F900040F2122000F05CF8002000F04BF840F224
:100FA000132000F055F840F28F1000F043F84FF492
:100FB000A06000F04DF8002000F03CF840F2015035
:100FC00000F046F8002000F035F840F2025000F042
:100FD0003FF85F2000F02EF840F2014000F038F8B2
:100FE000012000F027F840F2044000F031F8002022
:100FF00000F020F8322000F003FA072000F028F873
:101000004FF4807000F016F8642000F0F9F94FF406
:10101000007000F01DF8002000F00CF840F20120F4
:1010200000F016F8002000F005F840F2022000F071
:101030000FF81CBD10B50446012004490860E1B258
:10104000C4F3072000F01CF810BD0000A882414244
:1010500010B50446002004490860E1B2C4F307203B
:1010600000F00EF810BD0000A882414230B50546E0
:101070000C462846FFF7ECFF2046FFF7DBFF30BDAC
:10108000F0B502460B4600200021002509E04FF68E
:10109000FF7606EA400002F00106304352106E1C53
:1010A000B5B2072DF3DD002409E04FF6FF7606EA1E
:1010B000410103F0010631435B10661CB4B2072CFA
:1010C000F3DD4FF6FF7606EA002006EA012100264E
:1010D000104F3E600126104FC7F8A4620026C7F8E3
:1010E000A4620E4E706101260D4F3E60094F3E60B6
:1010F00000263E6001260A4F3E600026064FC7F8D4
:10110000A462064E71610126054F3E60054FC7F887
:101110009C62F0BD9C0242420080414200100240AD
:10112000A48241420000424200BFFEE77047704780
:1011300029B1064A12680243044B1A6004E0034ACC
:1011400012688243014B1A60704700003038024039
:10115000704700000CB500200190009034480068F2
:1011600040F480303249086000BF3148006800F424
:10117000003000900198401C0190009818B9019827
:10118000B0F5A04FF1D12A48006800F4003010B14A
:101190000120009001E0002000900098012846D135
:1011A00023484030006840F08050214940310860B9
:1011B0002048006840F440401E4908601C48083040
:1011C00000681B49083108600846006840F4004088
:1011D00008600846006840F4A05008601648091FDF
:1011E0000860081F006840F08070091F086000BF99
:1011F0000F48006800F000700028F9D040F2057038
:101200000E4908600A480830006820F003000849C9
:10121000083108600846006840F00200086000BF1E
:1012200003480830006800F00C000828F8D10CBD15
:10123000003802400070004008544007003C024063
:10124000042808D14FF0E021096941F004014FF072
:10125000E022116107E04FF0E021096921F004016B
:101260004FF0E022116170477047000010B515483B
:10127000006840F47000134908601348006840F0AB
:1012800001001149086000200F49083108600E482C
:1012900000680E4908400C4908600D48091D0860A7
:1012A000081F006820F48020091F086000200649FC
:1012B0000C310860FFF74EFF4FF0006001498039A4
:1012C000086010BD88ED00E000380240FFFFF6FE28
:1012D0001030002410B540F225511D4800F03EF8B2
:1012E00010B31B4800F064F8C4B21A48008800F438
:1012F0000040C8B91748008800F4804060B10A2C4B
:1013000003D000201349088020E01248008840F4F0
:1013100000401049088019E00D2C06D10D480088C6
:1013200040F480400B49088010E00A480088C0F370
:101330000D0009490C5407480088401C05490880E5
:1013400008460088C72801DD0020088010BD000085
:1013500000100140080000200C00002070B502467B
:10136000002400230025002040F66A16B14200D177
:1013700000BFC1F3421501F01F03012606FA03F373
:10138000012D02D19689334006E0022D02D1168A42
:10139000334001E0968A33400C12012606FA04F429
:1013A0001688344013B10CB1012000E0002070BD5C
:1013B00001468888C0F30800704700BFFEE700BF01
:1013C0007047000010B504466FF00400FFF738FFC7
:1013D000E11704EB5171C1F3C701074A11701046C0
:1013E000007800EB4001C1EBC0104FF6FF7101EA3D
:1013F000C0000249088010BD00000020020000204B
:1014000070B504464FF4077094FBF0F0C6B24FF489
:10141000077094FBF0F100FB114085B205E04FF43A
:10142000077000F009F8701EC6B2002EF7D115B192
:10143000284600F001F870BD0146114A12884A435F
:101440004FF0E0235A6100229A611A46126942F075
:1014500001021A6100BF4FF0E022106900F00102A2
:101460001AB100F48032002AF5D04FF0E022126960
:1014700022F001024FF0E0231A6100229A617047C6
:1014800002000020A820FFF79DFF41F22C50FFF73B
:1014900001F841F22C50FEF769FF00BFFEE74FF064
:1014A0004070E1EE100A7047C814000800000020E8
:1014B0000C000000C4010008D41400080C00002037
:1014C0002C070000E0010008000000000000000000
:0414D0000000000018
:040000050800018965
:00000001FF
