:020000040800F2
:1000000048070020CD010008B5070008910300084B
:10001000B107000875020008370A00080000000058
:10002000000000000000000000000000D9070008E8
:100030007902000800000000B7070008ED0800087A
:10004000E7010008E7010008E7010008E7010008F0
:10005000E7010008E7010008E7010008E7010008E0
:10006000E7010008E7010008E7010008E7010008D0
:10007000E7010008E7010008E7010008E7010008C0
:10008000E7010008E7010008E7010008E7010008B0
:10009000E7010008E7010008E7010008E7010008A0
:1000A000E7010008E7010008E7010008E701000890
:1000B000E7010008E7010008E7010008E701000880
:1000C000E7010008E7010008E7010008E701000870
:1000D000E701000851090008E7010008E7010008EE
:1000E000E7010008E7010008E7010008E701000850
:1000F000E7010008E7010008E7010008E701000840
:10010000E7010008E7010008E7010008E70100082F
:10011000E7010008E7010008E7010008E70100081F
:10012000E7010008E7010008E7010008E70100080F
:1001300000F002F800F03AF80AA090E8000C8244BF
:100140008344AAF10107DA4501D100F02FF8AFF29C
:10015000090EBAE80F0013F0010F18BFFB1A43F0A5
:10016000010318470C1000002C100000103A24BFA7
:1001700078C878C1FAD8520724BF30C830C144BF0C
:1001800004680C607047000000230024002500264E
:10019000103A28BF78C1FBD8520728BF30C148BFEA
:1001A0000B6070471FB51FBD10B510BD00F033F8D0
:1001B0001146FFF7F7FF00F08BFC00F051F803B495
:1001C000FFF7F2FF03BC00F038FC0000094880474D
:1001D00009480047FEE7FEE7FEE7FEE7FEE7FEE729
:1001E000FEE7FEE7FEE7FEE704480549054A064B41
:1001F00070470000F10800083101000848010020A4
:10020000480700204803002048030020704770473B
:10021000704770477047754600F028F8AE460500F5
:100220006946534620F00700854618B020B5FFF711
:10023000DBFFBDE820404FF000064FF000074FF015
:1002400000084FF0000B21F00701AC46ACE8C009F4
:10025000ACE8C009ACE8C009ACE8C0098D467047FD
:100260000446AFF300802046FFF7A9FF004870471F
:10027000E800002000BFFEE770472DE9F04102468C
:1002800000250026002000230024002791F803C049
:100290000CF00F0591F803C00CF0100CBCF1000F2E
:1002A00003D091F802C04CEA050591F800C0BCF1FA
:1002B000000F31D0146800202BE04FF0010C0CFA35
:1002C00000F3B1F800C00CEA03069E4220D183007F
:1002D0004FF00F0C0CFA03F7BC4305FA03FC4CEA91
:1002E000040491F803C0BCF1280F06D14FF0010CB3
:1002F0000CFA00FCC2F814C00AE091F803C0BCF18B
:10030000480F05D14FF0010C0CFA00FCC2F810C0E8
:10031000401C0828D1D31460B1F800C0BCF1FF0F15
:1003200034DD546800202EE000F1080C4FF0010885
:1003300008FA0CF3B1F800C00CEA03069E4221D182
:1003400083004FF00F0C0CFA03F7BC4305FA03FCD3
:100350004CEA040491F803C0BCF1280F05D100F168
:10036000080C08FA0CF8C2F8148091F803C0BCF12C
:10037000480F07D100F1080C4FF0010808FA0CF8FB
:10038000C2F81080401C0828CED35460BDE8F0812C
:1003900000BFFEE730B5AF21362000F05BF9002149
:1003A000372000F057F9DB21382000F053F9002105
:1003B000392000F04FF90021202000F04BF90021F6
:1003C000212000F047F9222000F036F901201749DA
:1003D000086000201649C1F89C01002522E0492D43
:1003E00009DA002404E0002000F018F9601CC4B20F
:1003F000B02CF8DB14E0922D09DA002404E0002090
:1004000000F00CF9601CC4B2B02CF8DB08E000244A
:1004100004E0002000F002F9601CC4B2B02CF8DB4C
:10042000681CC5B2DC2DDADB30BD0000A881224299
:100430000000234208B50121682000F0BDF94FF605
:100440008070ADF8000010208DF8030003208DF8B7
:10045000020069466948FFF710FF4FF4E060ADF80D
:10046000000069466648FFF708FF4FF40040ADF80A
:10047000000069466348FFF700FF002062490860FA
:10048000142000F0FFFA01206049C1F8BC010A20E5
:1004900000F0F8FA01205E4908605E490860091D15
:1004A0000860052000F0EEFA00205B49C1F89C01CD
:1004B0004FF48E71012000F0CDF84FF480710220CE
:1004C00000F0C8F83021032000F0C4F840F608011D
:1004D000082000F0BFF800210C2000F0BBF840F627
:1004E00001010F2000F0B6F80021202000F0B2F842
:1004F0000021212000F0AEF8052000F0C3FA4FF4EF
:100500002061102000F0A6F841F23B01112000F01C
:10051000A1F8052000F0B6FA46F22111122000F0F1
:1005200099F86F21132000F095F843F245711420DB
:1005300000F090F80021302000F08CF800213120EC
:1005400000F088F80021322000F084F800213320E8
:1005500000F080F8DB21342000F07CF80021352009
:1005600000F078F8AF21362000F074F80021372031
:1005700000F070F8DB21382000F06CF80021392001
:1005800000F068F84FF48061502000F063F840F606
:100590000B01512000F05EF840F60C61522000F093
:1005A00059F840F20311532000F054F840F60E4180
:1005B000542000F04FF840F60831552000F04AF87A
:1005C0000421562000F046F840F20131572000F097
:1005D00041F84FF46061582000F03CF80E2159209A
:1005E00000F038F8052000F04DFA41F2170107201D
:1005F00000F030F8142000F045FA08BD0018014062
:1006000000140140000C0140BC81214200802142C5
:100610009C012342A08122420000234210B50446DF
:10062000012004490860E1B2C4F3072000F01CF87F
:1006300010BD0000A881224210B5044600200449E4
:100640000860E1B2C4F3072000F00EF810BD00000E
:10065000A881224230B505460C462846FFF7ECFF3C
:100660002046FFF7DBFF30BD2DE9F04102460B4687
:100670000020002100270CE04FF6FF7C0CEA400030
:1006800002F0010C4CEA0000521007F1010C1FFAB5
:100690008CF7072FF0DD00240CE04FF6FF7C0CEA0E
:1006A000410103F0010C4CEA01015B1004F1010C63
:1006B0001FFA8CF4072CF0DD4FF6FF7C0CEA0020CB
:1006C0000CEA01214FF0000CDFF89C80C8F89CC1B7
:1006D0004FF0010CDFF89480C8F8A4C1DFF890C097
:1006E000DCF800C00CF47F454FEA054CDFF8808051
:1006F00008F10808C8F800C0C446CCF800004FF064
:10070000000CDFF86880C8F8A4C14FF0010CC8F8ED
:10071000A4C1DFF85480C8F89CC14FF0000CC8F8A1
:100720009CC14FF0010CDFF84480C8F8A4C1DFF889
:1007300040C0DCF800C00CF47F464FEA064CDFF8FE
:10074000308008F10808C8F800C0C446CCF8001092
:100750004FF0000CDFF81480C8F8A4C14FF0010C72
:10076000C8F8A4C1BDE8F081000023420080224205
:1007700008180140F0B507460C4615461E463620BF
:10078000FFF75AFF2846FFF749FF3720FFF754FFCE
:100790003846FFF743FF3820FFF74EFF3046FFF79C
:1007A0003DFF3920FFF748FF2046FFF737FFF0BD38
:1007B00000BFFEE77047704729B1064A92690243BD
:1007C000044B9A6104E0034A92698243014B9A61A7
:1007D0007047000000100240704710B500F002F8AA
:1007E00010BD00000CB50020019000903348006857
:1007F00040F480303149086000BF3048006800F4A0
:10080000003000900198401C0190009818B90198A0
:10081000B0F5A06FF1D12948006800F4003010B1A4
:100820000120009001E0002000900098012843D1B1
:100830002348006840F0100021490860084600681D
:1008400020F0030008600846006840F002000860DD
:100850001A48406819494860084640684860084698
:10086000406840F4806048600846406820F47C108E
:1008700048600846406840F4E81048600846006850
:1008800040F08070086000BF0C48006800F0007005
:100890000028F9D00948406820F003000749486063
:1008A0000846406840F00200486000BF03484068C6
:1008B00000F00C000828F9D10CBD00000010024027
:1008C00000200240042808D14FF0E021096941F0DE
:1008D00004014FF0E022116107E04FF0E0210969C7
:1008E00021F004014FF0E0221161704770470000D1
:1008F00010B51348006840F001001149086008462F
:100900004068104908400E494860084600680E4992
:1009100008400B4908600846006820F48020086001
:100920000846406820F4FE0048604FF41F008860CD
:10093000FFF753FF4FF000600449086010BD00004E
:10094000001002400000FFF8FFFFF6FE08ED00E097
:1009500010B540F225511D4800F03EF810B31B4879
:1009600000F064F8C4B21A48008800F40040C8B926
:100970001748008800F4804060B10A2C03D00020A2
:100980001349088020E01248008840F400401049D4
:10099000088019E00D2C06D10D48008840F48040F5
:1009A0000B49088010E00A480088C0F30D0009498F
:1009B0000C5407480088401C0549088008460088F8
:1009C000C72801DD0020088010BD0000003801406C
:1009D0001C0000202000002070B5024600240023E7
:1009E0000025002040F66A16B14200D100BFC1F3D5
:1009F000421501F01F03012606FA03F3012D02D16F
:100A00009689334006E0022D02D1168A334001E078
:100A1000968A33400C12012606FA04F416883440F4
:100A200013B10CB1012000E0002070BD01468888A0
:100A3000C0F30800704700BFFEE7014600BF7047E3
:100A400010B56FF00400FFF73DFF0A4800680A493F
:100A5000B0FBF1F0094908700846007800EB40014E
:100A6000C1EBC0104FF6FF7101EAC00004490880D5
:100A700010BD00000000002000127A0014000020C9
:100A8000160000200146114A12884A434FF0E02325
:100A90005A6100229A611A46126942F001021A61F3
:100AA00000BF4FF0E022106900F001021AB100F41B
:100AB0008032002AF5D04FF0E022126922F00102C4
:100AC0004FF0E0231A6100229A617047160000205F
:100AD00000240025CC26FFF7B3FFFFF7ABFCFFF7A0
:100AE00059FC00BF0BE004F12103DAB2F1B2E8B225
:100AF00000F00AF808350320FFF7C4FF641C162C29
:100B0000F1DB00BFFEE700002DE9F0430446884614
:100B1000164600270025A94608F10F03E21D4146AD
:100B20002046FFF727FE21462020FFF793FD414690
:100B30002120FFF78FFD2220FFF77EFD00BF18E088
:100B40000E4800EB061010F8059000270DE009F0A4
:100B5000010018B11F20FFF761FD02E00020FFF740
:100B60005DFD4FEA6909781CC7B2082FEFDB681CEE
:100B7000C5B2102DE4DBBDE8F0830000800B000857
:100B80000000000000000000000000000000000065
:100B900000000008080808080808000018180000ED
:100BA00000486C241200000000000000000000005B
:100BB0000000002424247F1212127F12121200005F
:100BC0000000081C2A2A0A0C1828282A2A1C0808AF
:100BD00000000022251515152A58545454220000EF
:100BE0000000000C1212120A76252911916E0000E5
:100BF00000060604030000000000000000000000E2
:100C000000402010100808080808081010204000B4
:100C10000002040808101010101010080804020048
:100C20000000000008086B1C1C6B08080000000096
:100C300000000000080808087F08080808000000F5
:100C40000000000000000000000000000606040391
:100C50000000000000000000FE0000000000000096
:100C60000000000000000000000000000606000078
:100C700000008040402020101008080404020200F8
:100C8000000000182442424242424242241800001E
:100C9000000000080E08080808080808083E0000C0
:100CA0000000003C4242422020100804427E000026
:100CB0000000003C4242201820404042221C00001C
:100CC000000000203028242422227E2020780000EA
:100CD0000000007E0202021A26404042221C000050
:100CE000000000382402021A264242422418000062
:100CF0000000007E222210100808080808080000E2
:100D00000000003C4242422418244242423C00007F
:100D1000000000182442424264584040241C000055
:100D20000000000000001818000000001818000063
:100D30000000000000000008000000000008080497
:100D400000000040201008040204081020400000A9
:100D50000000000000007F0000007F000000000095
:100D600000000002040810204020100804020000C7
:100D70000000003C424246402010100018180000BD
:100D80000000001C225A555555552D42221C0000CA
:100D90000000000808181414243C224242E7000016
:100DA0000000001F2222221E22424242221F000077
:100DB0000000007C4242010101010142221C0000AE
:100DC0000000001F2242424242424242221F0000D3
:100DD0000000003F4212121E12120242423F000067
:100DE0000000003F4212121E12120202020700000F
:100DF0000000003C2222010101712122221C00007E
:100E0000000000E7424242427E42424242E7000086
:100E10000000003E0808080808080808083E00000E
:100E20000000007C10101010101010101010110F86
:100E30000000007722120A0E0A1212222277000006
:100E4000000000070202020202020202427F0000CA
:100E500000000077363636362A2A2A2A2A6B000006
:100E6000000000E346464A4A52525262624700007E
:100E70000000001C2241414141414141221C00002F
:100E80000000003F424242423E02020202070000CE
:100E90000000001C2241414141414D53321C600081
:100EA0000000003F4242423E1212222242C700008E
:100EB0000000007C4242020418204042423E0000F2
:100EC0000000007F4908080808080808081C0000FE
:100ED000000000E74242424242424242423C00009D
:100EE000000000E7424222242414141808080000DD
:100EF0000000006B4949494955553622222200001D
:100F0000000000E7422424181818242442E70000B7
:100F1000000000772222141408080808081C0000AA
:100F20000000007E2120101008040442423F00000F
:100F30000078080808080808080808080808780061
:100F4000000002020404080808101020202040407D
:100F5000001E1010101010101010101010101E0095
:100F60000038440000000000000000000000000005
:100F7000000000000000000000000000000000FF72
:100F80000006080000000000000000000000000053
:100F9000000000000000003C4278444242FC000097
:100FA000000000030202021A26424242261A0000F2
:100FB0000000000000000038440202024438000033
:100FC00000000060404040784442424264D8000043
:100FD000000000000000003C427E0202423C000093
:100FE000000000F08808087E08080808083E000095
:100FF000000000000000007C22221C023C42423C17
:10100000000000030202023A4642424242E7000068
:101010000000000C0C00000E08080808083E000044
:101020000000003030000038202020202020221E28
:101030000000000302020272120A16122277000058
:101040000000000E0808080808080808083E00000C
:10105000000000000000007F9292929292B7000080
:10106000000000000000003B4642424242E7000010
:10107000000000000000003C42424242423C0000AE
:10108000000000000000001B26424242221E020710
:10109000000000000000007844424242447840E0F2
:1010A00000000000000000774C040404041F00004E
:1010B000000000000000007C42023C40423E000074
:1010C000000000000008083E08080808083000007A
:1010D00000000000000000634242424262DC000067
:1010E00000000000000000E742242414080800006B
:1010F00000000000000000EB494955552222000085
:10110000000000000000007624181818246E00006B
:1011100000000000000000E742242414180808071B
:10112000000000000000007E22100808447E00003D
:1011300000C0202020202010202020202020C000BF
:10114000101010101010101010101010101010109F
:10115000000608080808081008080808080806001B
:101160000C32C2000000000000000000000000007F
:101170009011000800000020200000006C01000811
:10118000B011000820000020280700008801000896
:1011900000A24A0400000000000000000102030455
:1011A0000607080900000000000000000000000021
:04000005080001CD21
:00000001FF
