:020000040800F2
:1000000050070020CD010008FD0C0008DD070008A6
:10001000F90C000875020008131100080000000028
:10002000000000000000000000000000C90D0008F2
:100030007902000800000000850D0008DD0E0008B0
:10004000E7010008E7010008E7010008E7010008F0
:10005000E7010008E70100087D020008E701000849
:1000600099020008CD02000801030008E70100081A
:10007000E7010008E7010008E7010008E7010008C0
:10008000E7010008E7010008E7010008E7010008B0
:10009000E7010008E7010008E70100084D03000838
:1000A000E7010008E7010008E7010008E701000890
:1000B000E7010008E7010008E7010008E701000880
:1000C000E7010008E7010008E7010008E701000870
:1000D000E70100082D100008E7010008E70100080B
:1000E000E7010008E7010008E7010008E701000850
:1000F000E7010008E7010008E7010008E701000840
:10010000E7010008E7010008E7010008E70100082F
:10011000E7010008E7010008E7010008E70100081F
:10012000E7010008E7010008E7010008E70100080F
:1001300000F002F800F03AF80AA090E8000C8244BF
:100140008344AAF10107DA4501D100F02FF8AFF29C
:10015000090EBAE80F0013F0010F18BFFB1A43F0A5
:1001600001031847BC100000DC100000103A24BF47
:1001700078C878C1FAD8520724BF30C830C144BF0C
:1001800004680C607047000000230024002500264E
:10019000103A28BF78C1FBD8520728BF30C148BFEA
:1001A0000B6070471FB51FBD10B510BD00F033F8D0
:1001B0001146FFF7F7FF00F0F9FF00F051F803B424
:1001C000FFF7F2FF03BC00F0A6FF000009488047DC
:1001D00009480047FEE7FEE7FEE7FEE7FEE7FEE729
:1001E000FEE7FEE7FEE7FEE704480549054A064B41
:1001F00070470000E10E00083101000850010020A6
:100200005007002050030020500300207047704723
:10021000704770477047754600F028F8AE460500F5
:100220006946534620F00700854618B020B5FFF711
:10023000DBFFBDE820404FF000064FF000074FF015
:1002400000084FF0000B21F00701AC46ACE8C009F4
:10025000ACE8C009ACE8C009ACE8C0098D467047FD
:100260000446AFF300802046FFF7A9FF004870471F
:10027000F000002000BFFEE77047000010B50A2024
:1002800000F06EFF0121034800F055FA012000F054
:1002900057F910BD0008014010B50A2000F060FFBA
:1002A0000421084800F047FA38B90748006808B93F
:1002B000012000E0002004490860042000F040F91B
:1002C00010BD0000001801409481214210B50A20A1
:1002D00000F046FF0821084800F02DFA38B9074819
:1002E000006808B9012000E00020044908600820E7
:1002F00000F026F910BD00000018014094012342CF
:1003000010B50A2000F02CFF10210C4800F013FA61
:1003100080B90B48006808B9012000E000200849B6
:1003200008600848D0F8940108B9012000E00020D6
:1003300005490860102000F003F910BD00180140C5
:100340009481214200002342940123422DE9F0418F
:1003500000F020FA84B240F25230844203DB40F2D3
:10036000B630844205DD4FF4007000F0E9F8BDE8D6
:10037000F08100F0EBF984B2B4F5C87F02DBB4F58C
:10038000FA7F04DD4FF4007000F0DAF8EFE70025A3
:100390002BE0002723E000F0FDF984B2222C01DBE2
:1003A0004E2C04DD4FF4007000F0CAF8DFE700F0D7
:1003B000CDF984B2222C03DD4E2C01DA76100CE04C
:1003C000922C05DDBE2C03DA761046F0800604E0A0
:1003D0004FF4007000F0B4F8C9E7781CC7B2082FDA
:1003E000D9DB07484655681CC5B2042DD1DB012076
:1003F00004490870400200F0A3F800BFB7E700000E
:1004000015000020140000201FB50121084600F04F
:10041000CBFC0221042000F0E3F80321042000F0CB
:10042000DFF80421084600F0DBF81C2002900020D1
:100430008DF80C000C208DF80D0001208DF80E00B9
:1004400002A800F083F80021084600F0C9F8012056
:10045000029008208DF80D0002A800F077F8012125
:10046000082000F0A1FC4FF40070ADF8000004205B
:100470008DF8030003208DF8020069462F4800F034
:10048000CFF80921012000F0ABF84FF40070029082
:1004900000208DF80C000C208DF80D0001208DF847
:1004A0000E0002A800F052F817208DF80400022078
:1004B0008DF8050004208DF8060001208DF8070056
:1004C00001A800F01DFC06208DF8040002208DF824
:1004D000050003208DF8060001208DF8070001A813
:1004E00000F00EFC08208DF8040002208DF80500B5
:1004F0008DF8060001208DF8070001A800F000FC2F
:1005000009208DF8040002208DF8050001208DF8E7
:1005100006008DF8070001A800F0F2FB0A208DF814
:10052000040002208DF8050000208DF8060001204F
:100530008DF8070001A800F0E3FB1FBD000C01408F
:10054000014908607047000014040140002123495C
:100550008279002A3AD00A46126803689A430B4609
:100560001A600A1D126803689A430B1D1A6002790B
:1005700011440A6803681A430A60184A083212686C
:1005800003689A43154B08331A601A1D12680368F2
:100590009A43124B0C331A604279102A0ED11A1F5B
:1005A000126803681A430D4B08331A601A1D12684B
:1005B00003681A43094B0C331A600DE0074942796E
:1005C00011440A6803681A430A6005E0027911447D
:1005D0000A6803689A430A607047000000040140FB
:1005E00030B500228B071C0F0F2303FA04F20B4BCC
:1005F0008C1053F824309343084C8D1044F8253068
:1006000023468C1053F824308C07240F00FA04F48E
:100610002343024C8D1044F8253030BD08000140C2
:100620002DE9F04102460025002600200023002489
:10063000002791F803C00CF00F0591F803C00CF0EF
:10064000100CBCF1000F03D091F802C04CEA050574
:1006500091F800C0BCF1000F31D0146800202BE0ED
:100660004FF0010C0CFA00F3B1F800C00CEA0306DD
:100670009E4220D183004FF00F0C0CFA03F7BC43CD
:1006800005FA03FC4CEA040491F803C0BCF1280FFE
:1006900006D14FF0010C0CFA00FCC2F814C00AE0BD
:1006A00091F803C0BCF1480F05D14FF0010C0CFAD2
:1006B00000FCC2F810C0401C0828D1D31460B1F867
:1006C00000C0BCF1FF0F34DD546800202EE000F1C3
:1006D000080C4FF0010808FA0CF3B1F800C00CEA5E
:1006E00003069E4221D183004FF00F0C0CFA03F752
:1006F000BC4305FA03FC4CEA040491F803C0BCF1C6
:10070000280F05D100F1080C08FA0CF8C2F8148083
:1007100091F803C0BCF1480F07D100F1080C4FF06D
:10072000010808FA0CF8C2F81080401C0828CED343
:100730005460BDE8F0810246002093680B400BB185
:10074000012000E0002070470161704710B50020D3
:100750000E49088001210D48243800F009FC05E00D
:100760000A480088B0F5FA6F00DB06E04FF400712C
:100770000748FFF7E0FF0028F2D100BF002103483F
:10078000243800F0F5FB0148008810BD2404004027
:10079000000C014010B500200E49088001210D48D1
:1007A000243800F0E5FB05E00A480088B0F5FA6F50
:1007B00000DB06E04FF400710748FFF7BCFF00289C
:1007C000F2D000BF00210348243800F0D1FB0148DB
:1007D000008810BD24040040000C014000BFFEE76B
:1007E00008B50121442000F0DFFA1C20ADF800001C
:1007F00048208DF8030069460648FFF711FF0120E5
:10080000ADF8000028208DF8030069460248FFF784
:1008100007FF08BD001801400008014030B5012065
:100820001A49086000201A49C1F89C0100240AE016
:10083000002504E01F2000F089F9681C85B2F02D26
:10084000F8DB601C84B2852CF2DB00240BE0002571
:1008500005E04FF4FC6000F079F9681C85B2F02DDA
:10086000F7DB601C84B2852CF1DB00240BE0002553
:1008700005E04FF4784000F069F9681C85B2F02D6E
:10088000F7DB601C84B2862CF1DB30BDA8812242EC
:100890000000234208B50121682000F085FA4FF6D8
:1008A0008070ADF8000010208DF8030003208DF853
:1008B000020069469D48FFF7B3FE4FF4E060ADF8D3
:1008C000000069469A48FFF7ABFE4FF40040ADF8D0
:1008D000000069469748FFF7A3FE0020964908608C
:1008E000142000F03DFC01209449C1F8BC010A200D
:1008F00000F036FC01209249086092490860091D09
:100900000860052000F02CFC00208F49C1F89C01F4
:1009100043F2080140F2027000F034F9362140F24F
:10092000057000F02FF941F2132140F20B7000F036
:1009300029F94FF48071012000F024F94FF48071FF
:10094000022000F01FF93021032000F01BF940F2D3
:100950000221082000F016F90021092000F012F908
:1009600000210C2000F00EF900210F2000F00AF900
:1009700000214FF4807000F005F900214FF48170E0
:1009800000F000F9002140F2031000F0FBF8C8204D
:1009900000F0E6FB41F290114FF4807000F0F2F8A5
:1009A00040F2272140F2011000F0ECF8322000F074
:1009B000D7FB1D214FF4817000F0E4F8322000F0E5
:1009C000CFFB4FF4005140F2031000F0DBF801219F
:1009D00040F2812000F0D6F8002140F20B2000F018
:1009E000D1F8322000F0BCFB00214FF4007000F081
:1009F000C9F8002140F2012000F0C4F800214FF4B2
:100A0000407000F0BFF840F2022140F2013000F0E7
:100A1000B9F840F2022140F2023000F0B3F840F29F
:100A2000022140F2053000F0ADF840F2022140F220
:100A3000063000F0A7F840F2022140F2073000F043
:100A4000A1F840F202214FF4427000F09BF840F20E
:100A5000022140F2093000F095F840F202214FF4F3
:100A6000437000F08FF840F2022140F20D3000F0A8
:100A700089F800214FF4047000F084F8EF2140F26F
:100A8000112000F07FF8002140F2122000F07AF8E7
:100A900040F28F1140F2132000F074F84FF44451EB
:100AA0004FF4806000F06EF8012140F2014000F048
:100AB00069F8002140F2044000F064F800214FF48E
:100AC000A06000F05FF8002140F2015000F05AF8F9
:100AD000002140F2025000F055F8002140F203508E
:100AE00000F050F8002140F2045000F04BF80021D3
:100AF00040F2055000F046F81021084600F042F898
:100B00004FF4C061112000F03DF80221202000F0D8
:100B100039F840F27311072000F034F840F2022057
:100B200000F022F8142000F01BFB08BD0018014063
:100B300000140140000C0140BC8121420080214290
:100B40009C012342A08122420000234210B50446AA
:100B5000012004490860E1B2C4F3072000F01CF84A
:100B600010BD0000A881224210B5044600200449AF
:100B70000860E1B2C4F3072000F00EF810BD0000D9
:100B8000A881224230B505460C462846FFF7ECFF07
:100B90002046FFF7DBFF30BD2DE9F04102460B4652
:100BA0000020002100270CE04FF6FF7C0CEA4000FB
:100BB00002F0010C4CEA0000521007F1010C1FFA80
:100BC0008CF7072FF0DD00240CE04FF6FF7C0CEAD9
:100BD000410103F0010C4CEA01015B1004F1010C2E
:100BE0001FFA8CF4072CF0DD4FF6FF7C0CEA002096
:100BF0000CEA01214FF0000CDFF8A480C8F89CC17A
:100C00004FF0010CDFF89C80C8F8A4C1DFF898C051
:100C1000DCF800C00CF47F454FEA054CDFF8888013
:100C200008F10808C8F800C0C446CCF800004FF02E
:100C3000000CDFF87080C8F8A4C14FF0010CC8F8B0
:100C4000A4C1DFF85C80C8F89CC14FF0000CC8F864
:100C50009CC14FF0010CDFF84C80C8F8A4C1DFF84C
:100C600048C0DCF800C00CF47F464FEA064CDFF8C1
:100C7000388008F10808C8F800C0C446CCF8001055
:100C80004FF0000CDFF81C80C8F8A4C14FF0010C35
:100C9000C8F8A4C1DFF80880C8F89CC1BDE8F0819D
:100CA00000002342008022420818014008B50121BB
:100CB000482000F079F82020ADF8000010208DF8D1
:100CC000030003208DF8020069460948FFF7A8FCDD
:100CD00020210748FFF738FD2020ADF800006946C5
:100CE0000448FFF79DFC20210248FFF72DFD08BDB9
:100CF000000C01400018014000BFFEE770470000F3
:100D000070B5002100230F22C47804B3154C246869
:100D100004F4E064C4F5E064210AC1F10403CA40AC
:100D2000447804FA03F184781440214309010E4CFD
:100D30000678A155047804F01F050124AC4005781D
:100D40006D11AD0005F1E025C5F8004109E004781A
:100D500004F01F050124AC40044D0678761145F8D7
:100D6000264070BD0CED00E000E400E080E100E012
:100D700002490143024A1160704700000000FA0571
:100D80000CED00E07047000029B1064AD269024329
:100D9000044BDA6104E0034AD2698243014BDA6111
:100DA000704700000010024029B1064A92690243D0
:100DB000044B9A6104E0034A92698243014B9A61B1
:100DC0007047000000100240704710B500F002F8B4
:100DD00010BD00000CB50020019000903348006861
:100DE00040F480303149086000BF3048006800F4AA
:100DF000003000900198401C0190009818B90198AB
:100E0000B0F5A06FF1D12948006800F4003010B1AE
:100E10000120009001E0002000900098012843D1BB
:100E20002348006840F01000214908600846006827
:100E300020F0030008600846006840F002000860E7
:100E40001A484068194948600846406848600846A2
:100E5000406840F4806048600846406820F47C1098
:100E600048600846406840F4E8104860084600685A
:100E700040F08070086000BF0C48006800F000700F
:100E80000028F9D00948406820F00300074948606D
:100E90000846406840F00200486000BF03484068D0
:100EA00000F00C000828F9D10CBD00000010024031
:100EB00000200240042808D14FF0E021096941F0E8
:100EC00004014FF0E022116107E04FF0E0210969D1
:100ED00021F004014FF0E0221161704770470000DB
:100EE00010B51348006840F0010011490860084639
:100EF0004068104908400E494860084600680E499D
:100F000008400B4908600846006820F4802008600B
:100F10000846406820F4FE0048604FF41F008860D7
:100F2000FFF753FF4FF000600449086010BD000058
:100F3000001002400000FFF8FFFFF6FE08ED00E0A1
:100F40003EB505460C4601210220FFF71DFFADF816
:100F50000450ADF800400020ADF80600ADF80200E6
:100F60006946024800F010F83EBD00000004004051
:100F700021B1028842F00102028004E002884FF6AB
:100F8000FE731A4002807047002202881D4B98426F
:100F90000ED01D4B98420BD0B0F1804F08D01B4BA8
:100FA000984205D01A4B984202D01A4B984204D16D
:100FB0004FF68F731A404B881A43174B984207D04D
:100FC000164B984204D04FF6FF431A40CB881A4381
:100FD00002808B8883850B8803850A4B98420BD04F
:100FE000094B984208D00E4B984205D00D4B9842C1
:100FF00002D00D4B984201D10B7A038601238382E4
:1010000070470000002C0140003401400004004003
:1010100000080040000C0040001000400014004098
:1010200000400140004401400048014010B540F23A
:1010300025511D4800F03EF810B31B4800F064F83D
:10104000C4B21A48008800F40040C8B917480088A4
:1010500000F4804060B10A2C03D0002013490880BE
:1010600020E01248008840F400401049088019E050
:101070000D2C06D10D48008840F480400B490880B3
:1010800010E00A480088C0F30D0009490C540748D5
:101090000088401C0549088008460088C72801DDF3
:1010A0000020088010BD000000380140240000200E
:1010B0002800002070B502460024002300250020EF
:1010C00040F66A16B14200D100BFC1F3421501F0EB
:1010D0001F03012606FA03F3012D02D1968933403E
:1010E00006E0022D02D1168A334001E0968A334091
:1010F0000C12012606FA04F41688344013B10CB120
:10110000012000E0002070BD01468888C0F308007F
:10111000704700BFFEE7014600BF704710B56FF093
:101120000400FFF7C7FE0A4800680A49B0FBF1F067
:10113000094908700846007800EB4001C1EBC01077
:101140004FF6FF7101EAC0000449088010BD00009D
:101150000000002000127A001A0000201C0000206D
:101160000146114A12884A434FF0E0235A61002297
:101170009A611A46126942F001021A6100BF4FF0EB
:10118000E022106900F001021AB100F48032002A56
:10119000F5D04FF0E022126922F001024FF0E02377
:1011A0001A6100229A6170471C00002000BF00BF36
:1011B00000BFFFF7B3FF4FF4A060FFF7D9FDFFF7C3
:1011C00075FDFFF767FBFFF70BFBFFF727FBFFF74B
:1011D0001BF940F2CF214CF24F30FFF7B1FE16E081
:1011E0000B48007898B10020094908700948006848
:1011F00008B9012000E00020064908600648D0F840
:10120000940108B9012000E0002004490860E7E7E4
:1012100014000020948121420000234294012342C3
:101220004012000800000020280000006C010008A7
:101230006812000828000020280700008801000824
:1012400000A24A04000000000000000001020304A4
:101250000607080900000000000000000000000070
:08126000000000000000000086
:04000005080001CD21
:00000001FF
