:020000040800F2
:100000006007002031020008FD08000863060008B0
:10001000F9080008E504000843110008000000008A
:100020000000000000000000000000004B0C000871
:10003000E9040008000000008D090008610D0008B7
:100040004B0200084B0200084B0200084B0200085C
:100050004B0200084B0200084B0200084B0200084C
:100060004B0200084B0200084B0200084B0200083C
:100070004B0200084B0200084B0200084B0200082C
:100080004B0200084B0200084B0200084B0200081C
:100090004B0200084B0200084B0200084B0200080C
:1000A0004B0200084B0200084B0200084B020008FC
:1000B0004B020008CD0D00084B0200084B0200085F
:1000C0004B0200084B0200084B0200084B020008DC
:1000D0004B020008250F00084B0200084B020008E5
:1000E0004B0200084B0200084B0200084B020008BC
:1000F0004B0200084B0200084B0200084B020008AC
:100100004B0200084B0200084B0200084B0200089B
:100110004B0200084B0200084B0200084B0200088B
:100120004B0200084B0200084B0200084B0200087B
:100130004B0200084B0200084B0200084B0200086B
:100140004B0200084B0200084B0200084B0200085B
:100150004B0200084B0200084B0200084B0200084B
:100160004B0200084B0200084B0200084B0200083B
:100170004B0200084B0200084B0200084B0200082B
:100180004B0200084B02000800F002F800F041F8B2
:100190000AA090E8000C82448344AAF10107DA45E2
:1001A00001D100F036F8AFF2090EBAE80F0013F0F3
:1001B000010F18BFFB1A43F0010318471413000086
:1001C00034130000103A24BF78C878C1FAD8520717
:1001D00024BF30C830C144BF04680C6070470000C1
:1001E0000023002400250026103A28BF78C1FBD840
:1001F000520728BF30C148BF0B607047642900F028
:100200007980002070471FB501F05CF91FBD10B563
:1002100010BD00F037F91146FFF7F5FF01F060F867
:1002200000F055F903B4FFF7F2FF03BC00F095FFAF
:100230000948804709480047FEE7FEE7FEE7FEE77A
:10024000FEE7FEE7FEE7FEE7FEE7FEE704480549B6
:10025000054A064B70470000650D0008890100083B
:100260006001002060070020600300206003002080
:10027000704700000FB4044910B503AA029800F0BB
:10028000D3F810BC5DF814FB1C0000202DE9F041F0
:100290000E460446002020622046E168884730B3BD
:1002A000252805D0D4E901219047206A401CF2E7B7
:1002B000E168204600278847050018D0A5F14100D5
:1002C000192802D820354FF40067324629462046C7
:1002D0002760FFF793FF40B1012804D0F61D26F0F8
:1002E00007060836D8E7361DD6E72846DAE7206A3B
:1002F000BDE8F0812DE9F04106460024106875291B
:10030000314616A510D0AFF30080002802DA404233
:1003100013A507E031688A0701D512A502E0490755
:1003200004D511A5012401E0AFF3008000210A22C9
:1003300006F1240709E0B0FBF2FCB0FBF2F302FB8C
:100340001C00303078541846491C0028F3D123464D
:100350002A463046BDE8F04100F00CB8000000002D
:100360002D0000002B0000002000000070477047A7
:10037000704770472DE9F0470D469946924604466E
:1003800000F124080168880604D5E06921F0100115
:10039000216000E00120A84201DD471B00E00027AA
:1003A000A1697A1902EB0900081AA0612078C00639
:1003B00002D42046AFF30080002608E0D4E90121F2
:1003C0001AF806009047206A401C761C20624E45B1
:1003D000F4DB2078C0060AD52046AFF3008006E0A3
:1003E000D4E9012130209047206A401C2062381E49
:1003F000A7F10107F4DC07E0D4E9012118F80500B2
:100400009047206A401C2062281EA5F10105F3DCFC
:100410002046AFF300802078000602D50220BDE818
:10042000F0870120FBE70000074B70B50D467B44C9
:1004300000F011F80446284600F020F810B14FF003
:10044000FF3070BD204670BD930E000001694A1C4C
:1004500002610878704700B58FB0CDE90131002105
:10046000059105497944CDE9031011466846FFF727
:100470000DFF0FB000BD0000E5FFFFFF007B00F0A7
:1004800080007047754600F029F8AE4605006946C1
:10049000534620F00700854618B020B5FFF7D6FE7A
:1004A000BDE820404FF000064FF000074FF0000875
:1004B0004FF0000B21F00701AC46ACE8C009ACE8F6
:1004C000C009ACE8C009ACE8C0098D4670470446D5
:1004D000AFF300802046FFF7A5FE000000487047FC
:1004E000FC00002000BFFEE7704700001CB50121A2
:1004F0007A2000F04DFA4FF40040009001208DF872
:10050000040000208DF8060003208DF8050001206E
:100510008DF807006946154800F038F84FF68070EE
:1005200000906946124800F031F84CF233700090A8
:100530006946104800F02AF84FF480500090694650
:100540000D4800F023F84FF48050009069460B48A6
:1005500000F01CF801200A4908600A49C1F890021D
:10056000094908600749C1F894021CBD0004024013
:1005700000100240000C024000140240001802402B
:10058000B002434200804142BC824042F0B50A467C
:1005900000210023002400BF3DE0012505FA01F3FE
:1005A000156805EA03049C4234D105684F00032610
:1005B000BE40B543056015794E00B5400668354329
:1005C00005601579012D02D01579022D16D18568A7
:1005D0004F000326BE40B543856055794E00B540B7
:1005E000866835438560456801268E40B543456081
:1005F000456896798E40B6B235434560C5684F0070
:100600000326BE40B543C560D5794E00B540C668E7
:100610003543C560491C1029BFD3F0BDF0B5002398
:1006200000244D07ED0E02FA05F3CE1000F120056F
:1006300055F826504E07F70E0F26BE40B543CF1093
:1006400000F1200646F82750CE1000F1200555F89D
:10065000265045EA0304CE1000F1200545F8264057
:10066000F0BD00BFFEE7000010B501209249086010
:100670009249C1F8BC02642000F090FD002090492E
:1006800008609049C1F89802642000F087FD0120BD
:100690008B4908608B49C1F89802322000F07EFD3A
:1006A000112000F01DF9782000F078FD362000F0D0
:1006B00017F9002000F008F93A2000F011F90520A0
:1006C00000F002F9212000F00BF9E72000F008F912
:1006D000002000F0F9F82A2000F002F9002000F0D4
:1006E000F3F8002000F0F0F8002000F0EDF8EF2023
:1006F00000F0EAF82B2000F0F3F8002000F0E4F816
:10070000002000F0E1F8002000F0DEF8EF2000F01B
:10071000DBF8B22000F0E4F80C2000F0D5F80C2053
:1007200000F0D2F8002000F0CFF8332000F0CCF831
:10073000332000F0C9F8B72000F0D2F8352000F0DF
:10074000C3F8BB2000F0CCF82A2000F0BDF8C02090
:1007500000F0C6F82C2000F0B7F8C22000F0C0F876
:10076000012000F0B1F8C32000F0BAF80B2000F02F
:10077000ABF8C42000F0B4F8202000F0A5F8C620A3
:1007800000F0AEF80F2000F09FF8D02000F0A8F89D
:10079000A42000F099F8A12000F096F8E92000F0DC
:1007A0009FF8112000F090F8112000F08DF8032040
:1007B00000F08AF8E02000F093F8F02000F084F8D0
:1007C000092000F081F8132000F07EF80A2000F0E4
:1007D0007BF80B2000F078F8062000F075F8382040
:1007E00000F072F8332000F06FF84F2000F06CF842
:1007F000042000F069F80D2000F066F8192000F0E0
:1008000063F82E2000F060F82F2000F05DF8E12062
:1008100000F066F8F02000F057F8092000F054F8D6
:10082000132000F051F80A2000F04EF80B2000F0E1
:100830004BF8062000F048F8382000F045F8332047
:1008400000F042F84F2000F03FF8042000F03CF8A0
:100850000D2000F039F8192000F036F82E2000F0B5
:1008600033F82F2000F030F8962000F097FC292074
:1008700000F036F82A2000F033F8002000F024F8C9
:10088000002000F021F8002000F01EF8EF2000F01A
:100890001BF82B2000F024F8002000F015F80020B1
:1008A00000F012F8002000F00FF8EF2000F00CF834
:1008B0002C2000F015F810BD980241420080404203
:1008C000BC8240420000414210B504460120034969
:1008D0000860E0B200F06CF910BD00008882404270
:1008E00010B50446002003490860E0B200F060F94A
:1008F00010BD00008882404200BFFEE77047000044
:1009000070B5002100230F22C4781CB3174C246853
:1009100004F4E064C4F5E064C4F30721C1F1040405
:10092000E3B20A4144789C40E1B284781440214308
:100930000C07210E0E4C05786155047804F01F0554
:100940000124AC4005786D11AD0005F1E025C5F836
:10095000004109E0047804F01F050124AC40054D76
:100960000678761145F8264070BD00000CED00E0D9
:1009700000E400E080E100E002490143024A116026
:10098000704700000000FA050CED00E07047000021
:1009900029B1064A12680243044B1A6004E0034A74
:1009A00012688243014B1A607047000030380240E1
:1009B00029B1064A12680243044B1A6004E0034A54
:1009C00012688243014B1A607047000040380240B1
:1009D00029B1064A12680243044B1A6004E0034A34
:1009E00012688243014B1A6070470000443802408D
:1009F000F0B5002100220024022500260223324FF8
:100A00003F6807F00C0121B1042905D0082937D12E
:100A100005E02E4F076036E02D4F076033E02A4F88
:100A20003F1F3F68C7F38056274F3F1F3F6807F0BF
:100A30003F036EB1264FB7FBF3F7DFF88CC0ACF184
:100A4000040CDCF800C0CCF3881C07FB0CF40CE0B1
:100A50001E4FB7FBF3F7DFF870C0ACF1040CDCF805
:100A600000C0CCF3881C07FB0CF4174F3F1F3F68F6
:100A7000C7F301477F1C7D00B4FBF5F7076002E078
:100A8000124F076000BF00BF0F4F3F6807F0F00133
:100A90000909104F7A5C0768D74047600A4F3F68E2
:100AA00007F4E051890A0B4F7A5C4768D7408760AA
:100AB000054F3F6807F46041490B064F7A5C476871
:100AC000D740C760F0BD0000083802400024F400A1
:100AD00000127A002200002000B587B001214720D3
:100AE000FFF756FF01210803FFF772FF042005906E
:100AF00001208DF8180000208DF81A0003208DF8D1
:100B0000190001208DF81B0005A92548FFF73EFDBF
:100B10004020059005A92348FFF738FDA020059047
:100B200002208DF8180000208DF81A0002208DF8A0
:100B3000190001208DF81B0005A91B48FFF726FDB1
:100B4000052207211848FFF769FD052211461648BE
:100B5000FFF764FD0020ADF800004FF48270ADF89F
:100B600002000020ADF804000220ADF806000120CC
:100B7000ADF808004002ADF80A000020ADF80C0006
:100B8000ADF80E000720ADF810006946074800F0E8
:100B90003EF80121054800F023F807B000BD000031
:100BA0000004024000080240000002400030014002
:100BB00070B5054600BF0221084800F01DF8002866
:100BC000F9D02946054800F020F8002402E0601C16
:100BD00080B204460B2CFADB70BD000000300140EF
:100BE00021B1028842F04002028004E002884FF600
:100BF000BF731A40028070470246002013890B40E1
:100C00000BB1012000E0002070478181704710B5D2
:100C10000022028802F441520B884C8823438C88BE
:100C20002343CC8823430C8923434C8923438C8959
:100C30002343CC8923431A430280838B4FF2FF74F2
:100C4000234083830B8A038210BD70470CB50020BC
:100C5000019000903448006840F4803032490860C8
:100C600000BF3148006800F4003000900198401C3B
:100C70000190009818B90198B0F5A04FF1D12A4819
:100C8000006800F4003010B10120009001E0002065
:100C900000900098012846D123484030006840F079
:100CA00080502149403108602048006840F44040AD
:100CB0001E4908601C48083000681B49083108605C
:100CC0000846006840F4004008600846006840F4A8
:100CD000A05008601648091F0860081F006840F00F
:100CE0008070091F086000BF0F48006800F00070A6
:100CF0000028F9D040F205700E4908600A48083013
:100D0000006820F0030008490831086008460068C0
:100D100040F00200086000BF03480830006800F09F
:100D20000C000828F8D10CBD0038024000700040CB
:100D300008544007003C0240042808D14FF0E0214D
:100D4000096941F004014FF0E022116107E04FF022
:100D5000E021096921F004014FF0E02211617047A0
:100D60007047000010B51548006840F47000134942
:100D700008601348006840F0010011490860002035
:100D80000F49083108600E4800680E4908400C49B8
:100D900008600D48091D0860081F006820F48020C5
:100DA000091F0860002006490C310860FFF74EFF5C
:100DB0004FF0006001498039086010BD88ED00E007
:100DC00000380240FFFFF6FE1030002410B507483F
:100DD0000068401C054908600121054800F045F8FD
:100DE0000121034800F032F810BD0000100000207F
:100DF000000400407FB505460C4601210220FFF7A4
:100E0000D7FD0295ADF804400020ADF80600ADF81E
:100E10000C0001A90C4800F043F8012211460A48D1
:100E200000F034F80121084800F013F81D208DF877
:100E3000000001208DF801008DF802008DF80300FC
:100E40006846FFF75DFD7FBD00040040CA43028293
:100E5000704721B1028842F00102028004E002885A
:100E60004FF6FE731A400280704730B502460020EC
:100E700000230024158A05EA0103958905EA010487
:100E800013B10CB1012000E0002030BD1AB18389FC
:100E90000B43838102E083898B4383817047000089
:100EA00000220288184B98420ED0184B98420BD063
:100EB000B0F1804F08D0164B984205D0154B9842A0
:100EC00002D0154B984204D14FF68F731A404B88CD
:100ED0001A43124B984207D0114B984204D04FF658
:100EE000FF431A400B891A4302804B68C3620B8888
:100EF0000385054B984202D0044B984201D18B7A6E
:100F000003860123838270470000014000040140F2
:100F10000004004000080040000C004000100040A9
:100F20000014004010B540F225511D4800F04AF869
:100F300010B31B4800F000F9C4B21A48008800F44E
:100F40000040C8B91748008800F4804060B10A2CFE
:100F500003D000201349088020E01248008840F4A4
:100F600000401049088019E00D2C06D10D4800887A
:100F700040F480400B49088010E00A480088C0F324
:100F80000D0009490C5407480088401C0549088099
:100F900008460088C72801DD0020088010BD000039
:100FA00000100140200000203400002021B182897F
:100FB00042F40052828104E082894DF6FF731A40A8
:100FC0008281704770B5024600240023002500206E
:100FD00040F66A16B14200D100BFC1F3421501F0DC
:100FE0001F03012606FA03F3012D02D1968933402F
:100FF00006E0022D02D1168A334001E0968A334082
:101000000C12012606FA04F41688344013B10CB110
:10101000012000E0002070BDF0B50346002400264A
:101020000025002040F66A17B94200D100BF1846DB
:10103000C1F3421401F01F06012707FA06F5012C3F
:1010400001D10C3004E0022C01D1103000E014304A
:101050001AB107682F43076002E00768AF430760D3
:10106000F0BD00002DE9FF4705460E460024A146CD
:1010700000BFA046B08900B100BF2C8A24F44054C0
:10108000F08804432C82AC8941F20C608443B08820
:1010900031890843718908430443AC81AC8A24F444
:1010A0004074B0890443AC826846FFF7A1FC204835
:1010B000854202D01F48854202D1DDF80C9001E044
:1010C000DDF80890A88900F4004040B109EBC900A0
:1010D00000EB091031684900B0FBF1F707E009EBBC
:1010E000C90000EB091031688900B0FBF1F76420FA
:1010F000B7FBF0F004012009642101FB1078A889F6
:1011000000F4004040B1322000EBC800B0FBF1F029
:1011100000F00700044308E0322000EB08106421CF
:10112000B0FBF1F000F00F0004432C81BDE8FF8715
:10113000001001400014014001468888C0F30800F7
:10114000704700BFFEE770B505460C462846FFF71E
:10115000BBFB2046FFF7B8FB70BD00BF7047000027
:1011600010B504466FF00400FFF7E6FDE11704EB4D
:101170005171C1F3C701074A11701046007800EBA6
:101180004001C1EBC0104FF6FF7101EAC0000249F7
:10119000088010BD160000201800002070B504461D
:1011A0004FF4077094FBF0F0C6B24FF4077094FB55
:1011B000F0F100FB114085B205E04FF4077000F03C
:1011C00009F8701EC6B2002EF7D115B1284600F0FE
:1011D00001F870BD0146114A12884A434FF0E023DE
:1011E0005A6100229A611A46126942F001021A619C
:1011F00000BF4FF0E022106900F001021AB100F4C4
:101200008032002AF5D04FF0E022126922F001026C
:101210004FF0E0231A6100229A6170471800002005
:101220002DE9F04100260DE0002707E00020FFF740
:101230004BFB0020FFF748FB781C87B2F02FF5DB53
:10124000701C86B2F02EEFDB002519E0002413E0BD
:10125000502C04DC0021F820FFF775FF0AE0A02CD9
:1012600004DCE0210720FFF76EFF03E01F210020D0
:10127000FFF769FF601CC4B2F02CE9DB681CC5B243
:10128000782DE3DB002519E0002413E0502C04DC6A
:10129000FF210846FFF757FF0AE0A02C04DC0021DD
:1012A0000846FFF750FF03E030218420FFF74BFF93
:1012B000601CC4B2F02CE9DB681CC5B2782DE3DBFE
:1012C000BDE8F08100BF054A128802F04002002A02
:1012D000F9D0C2B2014B9A80704700000010014063
:1012E000002400254FF4A060FFF746FBA820FFF77D
:1012F00037FF4FF4E13000F08FF8FFF7F7F8FFF712
:10130000EBFBFFF7B1F9FFF7AFF9FFF789FF5321C7
:1013100040F2E730FFF76EFD59E000202C490860ED
:1013200000240DE0002507E0F820FFF7CDFA0020AB
:10133000FFF7CAFA681C85B2F02DF5DB601C84B299
:10134000F02CEFDB2248016822A0FEF793FF00207B
:101350001F4908604FF49670FFF720FF00240DE04E
:10136000002507E00720FFF7AFFAE020FFF7ACFA0F
:10137000681C85B2F02DF5DB601C84B2F02CEFDB2D
:101380001348016818A0FEF775FF00201049086097
:101390004FF49670FFF702FF00240DE0002507E0F0
:1013A0000020FFF791FA1F20FFF78EFA681C85B224
:1013B000F02DF5DB601C84B2F02CEFDB04480168F3
:1013C0000FA0FEF757FF4FF49670FFF7E7FEA4E774
:1013D00010000020524544CBA2C6C1CAB1BCE4CE25
:1013E000AA3A25640D0A0000475245454ECBA2C6D5
:1013F000C1CAB1BCE4CEAA3A25640D0A00000000BF
:101400000D0A424C5545CBA2C6C1CAB1BCE4CEAA16
:101410003A25640D0A00000010B588B00446012189
:101420000846FFF7B5FA01211020FFF7D1FA07228D
:1014300009212248FFF7F2F807220A211F48FFF787
:10144000EDF84FF4C060069002208DF81C008DF876
:101450001D0000208DF81E0001208DF81F0006A938
:101460001648FFF793F802940020ADF80C00ADF891
:101470000E00ADF81000ADF814000C20ADF812000D
:1014800002A90F48FFF7EEFD01210D48FFF78EFD81
:10149000012240F225510A48FFF7BEFD25208DF8B4
:1014A000040003208DF805008DF8060001208DF85A
:1014B000070001A8FFF724FA08B010BD00000240A1
:1014C000001001404FF04070E1EE100A704700003C
:1014D000F01400080000002034000000C4010008DF
:1014E00024150008340000202C070000E00100084B
:1014F00000000000E0012003002C002A002B000067
:1015000000000000000000000000000000000000DB
:1015100000000000000001020304010203040607AA
:0415200008090000B6
:040000050800018965
:00000001FF
